:0400000090EF13F07A
:1000080000C018F001C017F002C016F003C015F0C8
:10001800E1CF19F0E2CF1AF0F2A41CD0F2AA1AD05C
:10002800010E4524006E000E4620016E000E47208A
:10003800026E000E4820036E00C045F001C046F075
:1000480002C047F003C048F0630ED76EC00ED66EEC
:10005800F2942ED09EAA2CD09DAA2AD072EC11F030
:1000680000C049F500505B0A09E1D80E0101EC6FA8
:10007800010EED6F010E0001C96F19D0050149513C
:100088005D0A08E10001C951010A04E1C96BEFECFE
:1000980010F00DD00001C951010A09E1ECC1E1FFDE
:1000A800EDC1E2FF49C5E6FF0101EC4BED2B9E9A3D
:1000B80018C000F017C001F016C002F015C003F018
:0A00C80019C0E1FF1AC0E2FF1100A9
:0C00D2001A0E0D6E0D2EFED7000012005D
:0A00DE00F9DF8A88F7DF8A98120024
:0C00E800020E0D6E0D2EFED7000012005F
:1000F4007F0E05014815016E01C048F501AC03D01F
:0C0104008A808A9202D08A908A821200BF
:100110008A948A96B80E05014811836EE0DF1200BA
:100120007F0E05014815006E00C048F58A948A9636
:10013000BF0E001600C048F5008C00C048F500C096
:0601400083FFCDDF120079
:10014600F250026EF29E0500FF6A0150FE6E0050EC
:08015600FD6E02BEF28E1200E4
:0E015E008A988A848A9648C583FFBADF120009
:10016C00120E006E000E016E830E0024E16E0F0E57
:10017C000120E26EFF0EE66EB1DFB0DF8A848A9852
:10018C008A868A88A0DF83CF48F58A988A96A6DF6C
:10019C00A5DF120E006E000E016E830E0024E16EC0
:0E01AC000F0E0120E26EE66A48C500F0120058
:1001BA003AC5F0F13BC5F1F13CC5F2F1020E050179
:1001CA003A25F66E000E3B21F76E000E3C21F86EC2
:1001DA000900F5CF04F0030E3A25F66E000E3B2116
:1001EA00F76E000E3C21F86E0900F5CF03F003C04C
:1001FA0001F0006A045000240101C26F000E0120C0
:10020A00C36F040E05013A25F66E000E3B21F76E08
:10021A00000E3C21F86E0900F5CF04F0050E3A25D0
:10022A00F66E000E3B21F76E000E3C21F86E0900B7
:10023A00F5CF03F003C001F0006A04500024010165
:10024A00C86F000E0120C96F060E05013A25F66E29
:10025A00000E3B21F76E000E3C21F86E0900F5CF27
:10026A00CAF1000E0101CB6F3DC5C0F1000EC16F8E
:10027A003EC5BCF1010E0001CA6F0101EE6BEF6BC6
:02028A00120060
:10028C000B6A0A6A096A00500402F4CF09F0F3CF32
:10029C0008F001500502F4CF0BF0F3CF0AF0005038
:1002AC000502F3500926F4500A22E86A0B22015089
:1002BC000402F3500926F4500A22E86A0B2208C003
:1002CC0000F009C001F00AC002F00BC003F01200EC
:1002DC00000E05013A5D0AE33A517F0807E3000E70
:1002EC003B5D04E33B513F0801E301D04AD03AC5E2
:1002FC0048F5FADE3BC548F54833489F4833489FDC
:10030C004833489FFFDE3AC548F504DF29DF00C0BB
:10031C003FF526DF00C03FF53BC548F54833489F05
:10032C004833489F4833489FEDDE3AC548F5F2DE26
:10033C00070E3B15006E00C03DF500C001F0010E2C
:10034C00006E015004E000360090FF0FFBD700C098
:10035C003DF5001C3E6F09D03E513F170FD03D516B
:10036C003F130CD03D513F1B09D03C51000AF4E027
:10037C003C51010AF4E03C51020AF4E03FC548F557
:04038C00E8DE120095
:10039000FE0E0501466F010E476F000E006E3F51C5
:1003A000005C02E13E51000843E2C6C1E1FFC7C163
:1003B000E2FF3AC5E6FF3BC5E6FF3CC5E6FF3DC5AB
:1003C000E6FF3EC5E6FF3FC5E6FF420EE66E050EC0
:1003D000E66EC4C100F0C5C101F0B5DE00C044F551
:1003E00001C045F50501406B416B4351415D02E1A0
:1003F0004251405D11E244C5E9FF45C5EAFF46C5EB
:10040000E1FF47C5E2FFEECFE6FF464B472B444BEB
:10041000452B404B412BE9D742513E5F43513F5B57
:1004200042513A2743513B23000E3C233D23B5D78D
:020430001200B8
:100432000501286B296B2A6B0001CA51000A0EE1E3
:10044200380E05013A6F290E3B6F000E3C6F010E0C
:100452003D6F3E6BB1DE010E0001CA6F000E006EF1
:100462000101C351005C03E1C2510501205D01E2BB
:10047200FDD0000E0101C95D04E105012051010119
:10048200C85D01E2F3D0C2510501205D016EC3C116
:1004920002F0000E025601C003F002C004F003365F
:1004A20003900436033603900436080E0101F0254A
:1004B200006E000EF121016E000EF221026E000E9E
:1004C200056E00500326015004220250052203C08B
:1004D200F6FF04C0F7FF05C0F8FF0900F5CF28F5C5
:1004E200010E0324F66E000E0420F76E000E0520A6
:1004F200F86E0900F5CF00F000C006F0000E076E9E
:10050200086E096E020E0324F66E000E0420F76ECA
:10051200000E0520F86E0900F5CF03F003C001F0CC
:10052200006A000E026E036E06500026075001227A
:100532000850022209500322F05100240501256FC0
:100542000101F15101200501266F0101F251022042
:100552000501276F0101BC51000A45E1BAC123F52B
:100562000501226B000E006E0101CB51005C03E11C
:10057200CA510501225D2EE20501BDC129F5246B98
:10058200216B2851215D23E22451000A10E125C587
:10059200F6FF26C5F7FF27C5F8FF0900F5CF2AF5B4
:1005A200010E2527000E26232723010E246F245136
:1005B2002A15006E07E029C53AF523C53BF5C0C1EF
:1005C2003CF58BDE292B24372491212BDAD7232BE0
:1005D200222BC8D705012951010F0101BD6FBE6B46
:1005E200000EBE2343D0BDC123F50501226B000ED0
:1005F200006E0101CB51005C03E1CA510501225D8D
:100602002EE20501BAC129F5246B216B2851215D27
:1006120023E22451000A10E125C5F6FF26C5F7FFA3
:1006220027C5F8FF0900F5CF2AF5010E2527000E90
:1006320026232723010E246F24512A15006E07E07A
:1006420023C53AF529C53BF5C0C13CF546DE29076D
:1006520024372491212BDAD7232B222BC8D705014B
:0E06620029050101BA6FBB6B000EBB5B1200D5
:100670000501356B366B376B386B0101C3510501D2
:10068000215D04E10101C2510501205D01E2E1D1DA
:1006900021510101C95D04E1050120510101C85D3D
:1006A00001E2D7D1C2510501205D036E0101C351A2
:1006B00005012159046E03C000F004C001F00036AA
:1006C00000900136003600900136080E0101CC255D
:1006D00005013A6F000E0101CD2105013B6F000EAF
:1006E0000101CE2105013C6F000E0101CF21050162
:1006F0003D6F00503A2701503B23000E3C233D2321
:10070000040E3E6F000E3F6F43DEFE0E336F010E90
:10071000346F33C5E9FF34C5EAFFEECF39F539C58B
:1007200035F5010E3325E96E000E3421EA6EEECF69
:1007300004F0000E056E066E076E020E3325E96E9C
:10074000000E3421EA6EEECF03F003C001F0006A20
:10075000000E026E036E0450002605500122065062
:1007600002220750032200500101CC250501276F0A
:1007700001500101CD210501286F02500101CE2158
:100780000501296F03500101CF2105012A6F39C5E9
:1007900000F00032009E0032009E0032009E000EEB
:1007A000016ECAC104F0CBC105F070DD00C02DF5AB
:1007B00001C02EF5070E3915006E08E00101CA517F
:1007C00005012D270101CB5105012E232DC531F542
:1007D0002EC532F5C6C1E1FFC7C1E2FF27C5E6FF5E
:1007E00028C5E6FF29C5E6FF2AC5E6FF2DC5E6FFB9
:1007F0002EC5E6FF2B0EE66E050EE66EC4C100F0B8
:10080000C5C101F0A0DC00C033F501C034F505011D
:100810002B5127272C512823000E29232A232B5123
:100820002D5F2C512E5B2F6B306B0101BC51000AE8
:10083000D8A486D0BAC124F5BBC125F50501236B28
:10084000000E006E0101CB51005C03E1CA510501AD
:10085000235D6BE20501BDC136F5BEC137F5266BE0
:10086000226B3551225D5DE22651000A49E12F4B92
:10087000302B32512C5D02E131512B5D37E230518A
:100880002C5D02E12F512B5D31E2010E2F6F000E26
:10089000306FC6C1E1FFC7C1E2FF27C5E6FF28C52B
:1008A000E6FF29C5E6FF2AC5E6FF2DC5E6FF2EC5F2
:1008B000E6FF2B0EE66E050EE66EC4C100F0C5C164
:1008C00001F041DC00C033F501C034F52DC531F530
:1008D0002EC532F505012B5127272C512823000E58
:1008E00029232A232B512D5F2C512E5B33C5E9FF81
:1008F00034C5EAFFEECF38F5334B342B010E266FAB
:1009000026513815006E07E036C53AF524C53BF58B
:10091000C0C13CF5E3DC364B372B26372691222B22
:10092000A0D7244B252B232B8BD70501010E362571
:100930000101BD6F000E050137210101BE6F89D095
:10094000BDC124F5BEC125F50501236B000E006E67
:100950000101CB51005C03E1CA510501235DD8B010
:100960006ED00501BAC136F5BBC137F5266B226BD7
:100970003551225D60E22651000A4AE12F4B302BAF
:1009800032512C5D02E131512B5D38E230512C5D4A
:1009900002E12F512B5D32E2010E2F6F000E306FFE
:1009A000C6C1E1FFC7C1E2FF27C5E6FF28C5E6FFD4
:1009B00029C5E6FF2AC5E6FF2DC5E6FF2EC5E6FFE1
:1009C0002B0EE66E050EE66EC4C100F0C5C101F047
:1009D000A3EC00F000C033F501C034F52DC531F5AE
:1009E0002EC532F505012B5127272C512823000E47
:1009F00029232A232B512D5F2C512E5B33C5E9FF70
:100A000034C5EAFFEECF38F5334B342B010E266F99
:100A100026513815006E07E024C53AF536C53BF57A
:100A2000C0C13CF55BDC010E365F000E375B26373C
:100A30002691222B9DD7244B252B232B87D70501CD
:100A4000010E365D0101BA6F000E05013759010133
:040A5000BB6F120066
:100A540020C5BDF121C5BEF122C5BAF123C5BBF144
:020A640012007E
:0E0A6600ACB202D00000FCD7FDC4ADFF120000
:100A7400800E05010219006E800E005C02E1000E7A
:100A8400015D02E2016B026B800E006E800E0219A2
:100A9400005C02E101517F0804E27F0E016F000E49
:100AA400026F800E0619006E800E005C02E1000EDB
:100AB400055D02E2056B066B800E006E800E061962
:100AC400005C02E105517F0804E27F0E056F000E11
:100AD400066F800E0419006E800E005C02E1000EA9
:100AE400035D02E2036B046B800E006E800E04193A
:100AF400005C02E103513F0804E23F0E036F000E65
:100B0400046F800E0819006E800E005C02E1000E76
:100B1400075D02E2076B086B800E006E800E0819F9
:100B2400005C02E107513F0804E23F0E076F000E2C
:100B3400086F0151055D016E02510659026E01C034
:100B4400FDF402C0FEF40351075D0A6F0451085915
:100B54000B6F800E0218006E800E005C02E1000E26
:100B6400015C0DE20401FD510008FD6FFE51000E11
:100B7400FE57FF0E05010C6FFF0E0D6F04D0010E22
:100B84000C6F000E0D6F800E0B19006E800E005C52
:100B940002E1000E0A5D0BE20A5100080A6F0B51D4
:100BA400000E0B57FF0E0E6FFF0E0F6F04D0010ED9
:100BB4000E6F000E0F6F0401FD37FD91FE37050126
:100BC4000A370A910B3701C53AF503C53BF509C548
:100BD4003CF56EEC01F0800E0B19006E800E0401E2
:100BE400FE19005C03E1FD5105010A5D43E20501C4
:100BF400FDC400F0FEC401F001320032019E01BCCC
:100C0400018E00500A5D106F01500B59116F025193
:100C1400061902E1055101192CE0800E1119006E2C
:100C2400800E005C02E1000E105D0CE30E51032700
:100C34000F5104230401FD510501105F0401FE510D
:100C44000501115B0C510125006E0D510221016E4D
:100C540000C001F501C002F50A5110270B51112300
:100C640000C03AF503C53BF509C53CF56EEC01F04F
:100C7400CED745D00AC500F00BC501F001320032D1
:100C8400019E01BC018E00500401FD5D0501106F41
:100C940001500401FE590501116F0451081902E1C4
:100CA400075103192CE0800E1119006E800E005CB0
:100CB40002E1000E105D08E30C5101270D510223DF
:100CC4000A51105F0B51115B0E510325006E0F5139
:100CD4000421016E00C003F501C004F50401FD51B7
:100CE400050110270401FE510501112301C53AF540
:100CF40000C03BF509C53CF56EEC01F0CED71200FF
:100D0400000E0501045D02E1800E035D01E349D09C
:100D1400000E065D02E1400E055D01E342D00401D0
:100D2400FD6BFE6B03C520F504C521F505C522F551
:100D340006C523F58DDEFD5105010125E96E04018B
:100D4400FE5105010221EA6EEE522BE00101EE5143
:100D5400EF1115E00401FD5105010125E96E0401BF
:100D6400FE5105010221EA6EEECF20F5000E216F3F
:100D7400000E216F7BDC0401FD4BFE2B11D004011E
:100D8400FD5105010125E96E0401FE510501022111
:100D9400EA6EEECF20F519EC02F00401FD4BFE2BB8
:040DA400CAD7120098
:100DA800050103514524026E04514620036E000ECE
:100DB8004720046E000E4820056E000E0001ED1954
:100DC80002E1000EEC1913E04850055C08E14750B9
:100DD800045C05E14650035C02E14550025C03E215
:100DE800010E016E01D0016A015201E010D001C567
:100DF800E9FF02C5EAFFEE50010A08E101C5E1FF7B
:100E080002C5E2FFE66A010E006E02D0D6D7006A7C
:020E18001200C6
:100E1A000501126B136B146B156B166B176B186B42
:100E2A00196B05510125006E06510221016E010E52
:100E3A00005C026E000E0158036E000E006E035035
:100E4A00005C02E102507F0807E201518008056F49
:100E5A0002C506F5000E065707510325006E085114
:100E6A000421016E010E005C026E000E0158036E31
:100E7A00000E006E0350005C02E102503F0807E2D8
:100E8A0003514008076F04C508F5000E085703C54B
:100E9A0000F004C501F001320032019E0132003235
:100EAA00019E01320032019E00C0FDF40751032564
:100EBA00056E08510421066E010E055C036E000ED4
:100ECA000658046E03C000F004C001F0013200327B
:100EDA00019E01320032019E01320032019E00C0A1
:100EEA00FEF4070E0315006E04C501F0000E01168C
:100EFA0000C000F5070E0514006E06C001F0000ED2
:100F0A00011600C010F50C51085D02E10B51075D96
:100F1A0003E2FEC411F51BD00B510325006E0C51E0
:100F2A000421016E010E005C036E000E0158046E6E
:100F3A0003C000F004C001F001320032019E013208
:100F4A000032019E01320032019E00C011F5070EE7
:100F5A000B15016E0CC502F0000E0216000E0218E7
:100F6A0002E1000E011818E10BC500F00CC501F0F2
:100F7A0001320032019E01320032019E01320032FA
:100F8A00019E09C504F00AC505F046EC01F000C04F
:100F9A001CF501C01DF519D00BC500F00CC501F0F8
:100FAA0001320032019E01320032019E01320032CA
:100FBA00019E004A012A09C504F00AC505F046EC5B
:100FCA0001F000C01CF501C01DF5FDC412F5000EAC
:100FDA00136F000E006E1351005C03E112510401FD
:100FEA00FE5DD8A011D105011A6B1B6B146B156B32
:100FFA000651155D02E10551145DD8B0F4D01451C3
:10100A000125486F7AEC00F012C548F588EC00F02B
:10101A000A51155D02E10951145D3FE2000E006EAE
:10102A001351005C02E11251115D37E3000E1319EE
:10103A0004E10401FD510501121902E11E6B12D0EF
:10104A0018511A25006E19511B21016E00500D25E9
:10105A00F66E01500E21F76E000E0F21F86E090090
:10106A00F5CF1EF51D51175D02E11C51165D02E315
:10107A001F6B12D016511A25006E17511B21016ED3
:10108A0000500D25F66E01500E21F76E000E0F214D
:10109A00F86E0900F5CF1FF502D01F6B1E6B1FC536
:1010AA00FFF4005100081CE200510808006E016AB2
:1010BA00000E015A1EC5FFF4005005E00401FF337B
:1010CA00FF9FFF0FFAD700C501F01FC500F00150BE
:1010DA0004E000360090FF0FFBD704010050FF1315
:1010EA00000E0501131904E10401FD51050112194D
:1010FA002EE1005100082BE214510125486F90ECB3
:10110A0000F0B6EC00F0B6EC00F000510808016EF1
:10111A00026A000E025A01C002F0FF0E016E02506E
:10112A0004E00132019EFF0FFBD701500014026E4A
:10113A0000C501F0FF0E006E015004E00036009079
:10114A00FF0FFBD700500401FF170250FF13000ED8
:10115A000501131904E10401FE51050112192EE1DA
:10116A00105100082BE214510125486F90EC00F051
:10117A00B6EC00F0B6EC00F010C502F0FF0E016EFE
:10118A00025004E001360190FF0FFBD70150001412
:10119A00026E10510808006E016A000E015A00C062
:1011AA0001F0FF0E006E015004E00032009EFF0FB6
:1011BA00FBD700500401FF170250FF1305010A5123
:1011CA00155D02E10951145D02E21A4B1B2B145101
:1011DA000125486F90EC00F0FFC448F5AFEC00F031
:1011EA00144B152B05D7000E135D02E11151125D48
:1011FA0008E216C518F517C519F5095116270A5137
:0A120A001723124B132BE5D6120038
:10121400070E0401F725E96E000EF821EA6EEE5080
:10122400010A3BE1030EF725E96E000EF821EA6E90
:10123400EECF01F5000E0501026F000E026F040EE1
:101244000401F725E96E000EF821EA6EEECF03F5EE
:10125400000E0501046F000E046F050E0401F7254E
:10126400E96E000EF821EA6EEECF05F5000E0501D9
:10127400066F000E066F060E0401F725E96E000ED8
:10128400F821EA6EEECF07F5000E0501086F000E97
:0C129400086F010E096F3AEC05F0120023
:1012A0000101BF6BEE6BEF6B939A939893949396B7
:1012B000939093928A9A120E006E000E016E830E26
:1012C0000024E16E0F0E0120E26EE66A8A948A968F
:1012D0008A908A828A8A3F0E836E6FEC00F0C00E7D
:1012E000836E6FEC00F08A808A923F0E836E6FEC03
:0C12F00000F0C00E836E6FEC00F01200E6
:1012FC000C0E0401F725E96E000EF821EA6EEE5093
:10130C00010A61E1030EF725E96E000EF821EA6E81
:10131C00EECF01F5000E0501026F000E026F040EF8
:10132C000401F725E96E000EF821EA6EEECF03F505
:10133C00000E0501046F000E046F050E0401F72565
:10134C00E96E000EF821EA6EEECF05F5000E0501F0
:10135C00066F000E066F060E0401F725E96E000EEF
:10136C00F821EA6EEECF07F5000E0501086F000EAE
:10137C00086F070E0401F725E96E000EF821EA6EDE
:10138C00EECF09F5000E05010A6F000E0A6F080E6C
:10139C000401F725E96E000EF821EA6EEECF0BF58D
:1013AC00000E05010C6F000E0C6F090E0401F725E1
:1013BC00E96E000EF821EA6EEECF0DF5EECF0EF5CC
:0813CC00EECF0FF524DD120045
:1013D4008A908A820401F96BF951070811E3F9C470
:1013E40048F588EC00F00401F86BF8513F0806E377
:1013F400F7C448F5AFEC00F0F82BF7D7F92BECD78E
:101404008A928A80F96BF951070811E3F9C448F507
:1014140088EC00F00401F86BF8513F0806E3F7C4C8
:1014240048F5AFEC00F0F82BF7D7F92BECD7120006
:081434009484F00EBD161200B5
:10143C000D0E0401F725E96E000EF821EA6EEE5050
:10144C00010A3FE1090EF725E96E000EF821EA6E5C
:10145C00EECF3AF5EECF3BF5EECF3CF50C0EF72583
:10146C00E96E000EF821EA6EEECF3DF505013E6BFC
:10147C00DDEC00F0070E0401F725E96E000EF821F3
:10148C00EA6EEECF01F5EECF02F5030EF725E96E0D
:10149C00000EF821EA6EEECF03F5000E0501046F85
:1014AC00000E046F040E0401F725E96E000EF821FE
:1014BC00EA6EEECF05F5000E0501066F000E066F05
:0414CC001BDC120013
:1014D000F7C4E9FFF8C4EAFFEE50000A0CE0F7C4D5
:1014E000E9FFF8C4EAFFEECFFDF433EC05F00401A8
:1014F000F74BF82BEDD7F9C401F5FAC402F5FBC49C
:0A15000003F5FCC404F550DC1200F2
:10150A00010E0401EB6F44D04C0EF76F000EF86F1A
:10151A00DA0EF96F000EFA6F140EFB6F000EFC6FF5
:10152A00D2DF00500401EB173FD0D30EF76F000E45
:10153A00F86FDA0EF96F000EFA6F140EFB6F000ED9
:10154A00FC6FC1DF00500401EB172ED0DB0EF76FE2
:10155A00000EF86FE90EF96F000EFA6F140EFB6FAA
:10156A00000EFC6FB0DF00500401EB171DD0E20E35
:10157A00F76F000EF86FE90EF96F000EFA6F140E8E
:10158A00FB6F000EFC6F9FDF00500401EB170CD0BD
:10159A00EA51000AB9E0EA51010AC7E0EA51020A2F
:0E15AA00D5E0EA51030AE3E0EBC400F01200C2
:0A15B80073DE0401F76B0ADF120076
:1015C200030E0F01386F396B3A6B3B6B030E926E51
:0215D200120005
:1015D4000401C26BEC6BED6BEE6BF16BF46BEAC464
:1015E400C0F4EBC4C1F4F76BF3DE0401C0C4E9FF3B
:1015F400C1C4EAFFEECF01F0800EED19006E800E3B
:10160400005C02E10150EC5DD8B0E7D0010EC025CA
:10161400D96E000EC121DA6EDECF01F0DECF02F00A
:10162400000E006E0250005C02E10150EE5D3AE2F1
:10163400030EC025E96E000EC121EA6EEEC400F06F
:10164400000E016E026E036E003600900136023603
:101654000336EE500024F66EEE500120F76EEE5085
:101664000220F86E0900F5CF00F00900F5CF01F073
:1016740000C0EFF401C0F0F4020E0024D96E000E95
:101684000120DA6EDECF01F0000EED1902E1015007
:10169400EC1908E1EE2BEC4BED2BEFC4F7F4F0C49E
:1016A400F8F4CADE0B0E0401C025D96E000EC12168
:1016B400DA6EDECF01F0DECF02F0000E006E0250D3
:1016C400005C02E10150F45D3AE20D0EC025E96EC2
:1016D400000EC121EA6EF4C400F0000E016E026E29
:1016E400036E00360090013602360336EE500024B5
:1016F400F66EEE500120F76EEE500220F86E0900EF
:10170400F5CF00F00900F5CF01F000C0F5F401C0F9
:10171400F6F4020E0024D96E000E0120DA6EDECF3C
:1017240001F0000EED1902E10150EC1908E1F42B6F
:10173400EC4BED2BF5C4F7F4F6C4F8F469DD060EB2
:101744000401C025D96E000EC121DA6EDECF01F08E
:10175400DECF02F0000E006E0250005C02E1015088
:10176400F15D3AE2080EC025E96E000EC121EA6E71
:10177400F1C400F0000E016E026E036E003600909C
:10178400013602360336EE500024F66EEE50012088
:10179400F76EEE500220F86E0900F5CF00F0090054
:1017A400F5CF01F000C0F2F401C0F3F4020E0024FE
:1017B400D96E000E0120DA6EDECF01F0000EED19B5
:1017C40002E10150EC1908E1F12BEC4BED2BF2C4D2
:0C17D400F7F4F3C4F8F490DD08D712001D
:1017E0000A0E0401D46F000ED56F360ED66F360E7A
:1017F000D76F000ED86FD96BDA6B020EDE6F000E5A
:10180000DF6F640EE06F360EE16F000EE26F0C0EBC
:10181000D36F0A0EC46F000EC56F4A0EC66F360E28
:10182000C76F000EC86F010EC96F000ECA6F060E9B
:10183000CB6F000ECC6F000ECD6F020ECE6F000E80
:10184000CF6F680ED06F360ED16F000ED26F0D0EB7
:10185000C36FD30E0301D76F040ED86FD96B060E7A
:10186000DA6F1A0EDB6F3D0EDC6F0C0EDD6F010EB2
:10187000E46F010EE56F2E0EDE6F010EDF6FEB0ED3
:10188000036E2E0E046E000E056E03C0E0F304C05E
:10189000E1F305C0E2F3010EE36FE66BE76BE86B83
:1018A000E96BEA6BEB6BEC6BED6BEE6BEF6BF06B7C
:1018B000F16BF26BF36BF46BF56BD30EF66F040EFA
:1018C000F76F010EF86F060EF96F260EFA6F3D0ED8
:1018D000FB6F0C0EFC6F010E0401036F010E046F11
:1018E0000E0E0301FD6F010EFE6F03C0FFF304C077
:1018F00000F405C001F4010E0401026F056B066BD4
:10190000076B086B096B0A6B0B6B0C6B0D6B0E6B2B
:101910000F6B106B116B126B136B146BD30E156F77
:10192000040E166F020E176F060E186F0E0E196F4B
:101930003D0E1A6F0C0E1B6F010E226F010E236FEE
:10194000FC0E1C6F000E1D6F03C01EF404C01FF4BC
:1019500005C020F4010E216F246B256B266B276BCD
:10196000286B296B2A6B2B6B2C6B2D6B2E6B2F6BC3
:10197000306B316B326B336BD30E03017A6F040E15
:101980007B6F030E7C6F610E7D6F310E7E6F160EC6
:101990007F6F0C0E806F010E876F010E886F280E0F
:1019A000816F010E826F03C083F304C084F305C00E
:1019B00085F3010E866F896B8A6B8B6B8C6B8D6BDD
:1019C0008E6B8F6B906B916B926B936B946B956B33
:1019D000966B976B986BD30E996F040E9A6F040EEB
:1019E0009B6F610E9C6F1A0E9D6F160E9E6F0C0EF4
:1019F0009F6F010EA66F010EA76F220EA06F010E42
:101A0000A16F03C0A2F304C0A3F305C0A4F3010EA9
:101A1000A56FA86BA96BAA6BAB6BAC6BAD6BAE6B18
:101A2000AF6BB06BB16BB26BB36BB46BB56BB66BCA
:101A3000B76BD30EB86F040EB96F050EBA6F610E97
:101A4000BB6F260EBC6F160EBD6F0C0EBE6F010E67
:101A5000C56F010EC66F950EBF6F010EC06F03C03C
:101A6000C1F304C0C2F305C0C3F3010EC46FC76B5A
:101A7000C86BC96BCA6BCB6BCC6BCD6BCE6BCF6BB2
:101A8000D06BD16BD26BD36BD46BD56BD66BD30EC3
:101A90000401636F040E646F060E656F610E666F5E
:101AA0000E0E676F160E686F0C0E696F010E706F69
:101AB000010E716F8F0E6A6F010E6B6F03C06CF4B5
:101AC00004C06DF405C06EF4010E6F6F726B736B22
:101AD000746B756B766B776B786B796B7A6B7B6BF2
:101AE0007C6B7D6B7E6B7F6B806B816BD30E826FAB
:101AF000040E836F070E846F060E856F310E866F9E
:101B00003E0E876F0C0E886F010E8F6F010E906F67
:101B1000A10E896F010E8A6F03C08BF404C08CF490
:101B200005C08DF4010E8E6F916B926B936B946B6D
:101B3000956B966B976B986B996B9A6B9B6B9C6B89
:101B40009D6B9E6B9F6BA06BD30E536F040E546FF7
:101B5000080E556F030E566F3D0E576F770E586F78
:101B60003D0E596F010E5A6FD30E5B6F040E5C6F02
:101B7000090E5D6F030E5E6F020E5F6F770E606F72
:101B8000020E616F010E626FD30EA16F040EA26F81
:101B90000A0EA36F610EA46F030EA56F160EA66F3B
:101BA0000C0EA76F010EAE6F010EAF6F9B0EA86FEC
:101BB000010EA96F03C0AAF404C0ABF405C0ACF4D5
:101BC000010EAD6FB06BB16BB26BB36BB46BB56B39
:101BD000B66BB76BB86BB96BBA6BBB6BBC6BBD6BE1
:101BE000BE6BBF6BD30E346F040E356F0B0E366FAA
:101BF000060E376F030E386F3F0E396F0C0E3A6FBB
:101C0000010E416F010E426F7E0E3B6F010E3C6F65
:101C100003C03DF404C03EF405C03FF4010E406F24
:101C2000436B446B456B466B476B486B496B4A6B28
:101C30004B6B4C6B4D6B4E6B4F6B506B516B526BD8
:101C4000C30E03015B6F040E5C6F5D6B060E5E6F6F
:101C50001B0E5F6F460E606F0C0E616F010E686F9A
:101C6000010E696F520E626F010E636F03C064F361
:101C700004C065F305C066F3010E676F6A6B6B6B9A
:101C80006C6B6D6B6E6B6F6B706B716B726B736B80
:101C9000746B756B766B776B786B796BC30E020127
:101CA000736F040E746F010E756F060E766F260E3D
:101CB000776F450E786F0C0E796F010E806F010EF5
:101CC000816F420E7A6F010E7B6F03C07CF204C0FD
:101CD0007DF205C07EF2010E7F6F826B836B846B99
:101CE000856B866B876B886B896B8A6B8B6B8C6B58
:101CF0008D6B8E6B8F6B906B916BC30E926F040E1E
:101D0000936F020E946F060E956F320E966F450E0E
:101D1000976F0C0E986F010E9F6F010EA06F6A0EE9
:101D2000996F010E9A6F03C09BF204C09CF205C02C
:101D30009DF2010E9E6FA16BA26BA36BA46BA56BB2
:101D4000A66BA76BA86BA96BAA6BAB6BAC6BAD6BEF
:101D5000AE6BAF6BB06BC30EB16F040EB26F030E00
:101D6000B36F5D0EB46F100EB56F1F0EB66F0C0E15
:101D7000B76F010EBE6F010EBF6F630EB86F010E1D
:101D8000B96F03C0BAF204C0BBF205C0BCF2010EC9
:101D9000BD6FC06BC16BC26BC36BC46BC56BC66BD5
:101DA000C76BC86BC96BCA6BCB6BCC6BCD6BCE6B87
:101DB000CF6BC30E166F040E176F040E186F5D0EF7
:101DC000196F1B0E1A6F1F0E1B6F0C0E1C6F010E6E
:101DD000236F010E246FF50E1D6F000E1E6F03C0E2
:101DE0001FF204C020F205C021F2010E226F256B04
:101DF000266B276B286B296B2A6B2B6B2C6B2D6B3F
:101E00002E6B2F6B306B316B326B336B346BC30EBD
:101E1000356F040E366F050E376F5D0E386F260E68
:101E2000396F120E3A6F0C0E3B6F010E426F010EAE
:101E3000436F710E3C6F000E3D6F03C03EF204C055
:101E40003FF205C040F2010E416F446B456B466B9B
:101E5000476B486B496B4A6B4B6B4C6B4D6B4E6BD6
:101E60004F6B506B516B526B536BC30E546F040E20
:101E7000556F060E566F5D0E576F320E586F0D0E72
:101E8000596F0C0E5A6F010E616F010E626F6D0E6D
:101E90005B6F000E5C6F03C05DF204C05EF205C0B4
:101EA0005FF2010E606F636B646B656B666B676BF3
:101EB000686B696B6A6B6B6B6C6B6D6B6E6B6F6B6E
:101EC000706B716B726BC30EFE6F040EFF6F070EAB
:101ED0000301006F060E016F100E026F450E036FB7
:101EE0000C0E046F010E0B6F010E0C6F750E056F5B
:101EF000000E066F03C007F304C008F305C009F322
:101F0000010E0A6F0D6B0E6B0F6B106B116B126B6A
:101F1000136B146B156B166B176B186B196B1A6BB5
:101F20001B6B1C6BC30E0201EE6F040EEF6F080EED
:101F3000F06F030EF16F3D0EF26F770EF36F3D0EF3
:101F4000F46F010EF56FC30EF66F040EF76F090EF6
:101F5000F86F030EF96F020EFA6F780EFB6F020E28
:101F6000FC6F010EFD6FC30ED06F040ED16F0A0E11
:101F7000D26F750ED36F290ED46F060ED56F060E75
:101F8000D66F060ED76F060ED86F5E0E006E360E39
:101F9000016E000E026E00C0D9F201C0DAF202C07A
:101FA000DBF2DC6B010EDD6FDE6BDF6BE06BE16B98
:101FB000E26BE36BE46BE56BE66BE76BE86BE96B9D
:101FC000EA6BEB6BEC6BED6BC30E03011D6F040E44
:101FD0001E6F0B0E1F6F060E206F040E216F3C0E3E
:101FE000226F0C0E236F010E2A6F010E2B6F8A0ECB
:101FF000246F000E256F03C026F304C027F305C02D
:1020000028F3010E296F2C6B2D6B2E6B2F6B306B11
:10201000316B326B336B346B356B366B376B386BC4
:10202000396B3A6B3B6BC30E3C6F040E3D6F0C0E6D
:102030003E6F5E0E3F6F040E406F0D0E416F0C0E33
:10204000426F010E496F010E4A6F860E436F000EFC
:10205000446F03C045F304C046F305C047F3010EC7
:10206000486F4B6B4C6B4D6B4E6B4F6B506B516BAA
:10207000526B536B546B556B566B576B586B596B5C
:042080005A6B120085
:10208400060E0C6E2B0E0D6E0D2EFED70C2EFCD7ED
:02209400120038
:10209600EAC404F0EBC405F004C002F005C003F086
:1020A600044A052AECC400F0EDC401F00401EC4B2F
:1020B600ED2B00C0E9FF01C0EAFF02C0E1FF03C04B
:1020C600E2FFEECFE6FF02C0E9FF03C0EAFFEE52F1
:0E20D60001E0E2D7EAC400F0EBC401F0120012
:0620E4001AEC0AF01200E4
:0A20EA009494BA840C0EBD1212008B
:1020F400BB50010F006E016A000E0122E3C404F01C
:10210400000E056E46EC01F0060E026E00C004F0EF
:1021140001C005F0025005E005320432059EFF0FB0
:10212400FAD7040E016E04C000F0015004E000363A
:102134000090FF0FFBD7300E0014036E04C000F0B4
:1021440005C001F001320032019E01320032019ECD
:0E21540000C0BEFF0F0EBD160350BD121200DC
:10216200660E0101F76F0A0EF86FFD0EF96F040E8D
:10217200FA6FE40EF36F220EF46F000EF56F000E8D
:10218200F66FFF0ED46FFF0ED56F000ED66F000EE6
:10219200D76FFF0ED06FFF0ED16F000ED26F000E01
:1021A200D36FAC8A900EAB6E948E949C9EAA03D091
:0821B200AECF00F0FBD71200D4
:1021BA000F013B6B929492869288928A928C8094B9
:0C21CA00948094943C6B969284921200D6
:0821D600BE6ABD98BD9A12001B
:1021DE000101D851450A0BE1D951440A08E1DA51FF
:1021EE00300A05E1300EDB5D0001666F73D0010130
:1021FE00D851450A0BE1D951440A08E1DA51310AA6
:10220E0005E1300EDB5D0001BC6F64D00101D851D9
:10221E00450A0AE1D951440A07E1DA51320A04E1CA
:10222E00300EDB5D5F6E56D0D851450A0BE1D951A9
:10223E00440A08E1DA51330A05E1300EDB5D000194
:10224E00A26F48D00101D851450A0AE1D951440A7A
:10225E0007E1DA51340A04E1300EDB5D3E6E3AD00E
:10226E00D851450A0AE1D951440A07E1DA51350A33
:10227E0004E1300EDB5D306E2DD0D851530A0AE1E9
:10228E00D951540A07E1DA51410A04E1300EDB5DFF
:10229E005E6E20D0D851430A0DE1D951310A0AE1C0
:1022AE00DA514F0A07E1DB514B0A04E1010E00013E
:1022BE00E96F10D00101D851430A0CE1D951320A0D
:1022CE0009E1DA514F0A06E1DB514B0A03E1010E37
:0622DE000001DA6F12009E
:1022E400AECF01F0ABA202D0AB98AB8801C000F036
:0222F4001200D6
:1022F6000900F5CFE6FF0006FBE10106F9E1120051
:1023060000D15F50000A0BE181C3EAF482C3EBF40B
:10231600600E0401EC6F000EED6FBADE0AD0040108
:1023260081C3EAF482C3EBF4670EEC6F000EED6F27
:10233600AFDE00016651000A0BE1A0C3EAF4A1C3B7
:10234600EBF4B60E0401EC6F000EED6FA1DE0AD0C1
:102356000401A0C3EAF4A1C3EBF4B00EEC6F000EC7
:10236600ED6F96DE0001BC51000A0BE1BFC3EAF433
:10237600C0C3EBF4C30E0401EC6F000EED6F88DEF4
:102386000AD00401BFC3EAF4C0C3EBF4BD0EEC6F80
:10239600000EED6F7DDE0001A251000A0BE16AC45A
:1023A600EAF46BC4EBF49C0E0401EC6F000EED6FC7
:1023B6006FDE0AD004016AC4EAF46BC4EBF4A30E20
:1023C600EC6F000EED6F64DE0001AF51000A0BE109
:1023D600A8C4EAF4A9C4EBF4A90E0401EC6F000E3C
:1023E600ED6F56DE0AD00401A8C4EAF4A9C4EBF4E2
:1023F600310EEC6F000EED6F4BDED30EEA6F040E5E
:10240600EB6FEAEC0AF086D03050000A0BE1B8C256
:10241600EAF4B9C2EBF4370E0401EC6F000EED6F6F
:1024260037DE0AD00401B8C2EAF4B9C2EBF43F0EB3
:10243600EC6F000EED6F2CDE3E50000A0AE11DC265
:10244600EAF41EC2EBF4210EEC6F000EED6F20DEF7
:1024560009D01DC2EAF41EC2EBF41B0EEC6F000E8F
:10246600ED6F16DE0101B351000A0BE13CC2EAF43E
:102476003DC2EBF42C0E0401EC6F000EED6F08DE8E
:102486000AD004013CC2EAF43DC2EBF4280EEC6F1C
:10249600000EED6FFDDD0101B951000A0BE15BC2D3
:1024A600EAF45CC2EBF4530E0401EC6F000EED6F20
:1024B600EFDD0AD004015BC2EAF45CC2EBF4570E0E
:1024C600EC6F000EED6FE4DD5E50000A0AE143C3D7
:1024D600EAF444C3EBF45A0EEC6F000EED6FD8DD50
:1024E60009D043C3EAF444C3EBF4490EEC6F000E83
:1024F600ED6FCEDDC30EEA6F040EEB6FEAEC0AF069
:1025060009D00401E351000AD8B4FBD6E351010A0D
:06251600D8B47AD71200D0
:10251C000401E96BE5C401F0010E006E015004E00A
:10252C0000360090FF0FFBD700C0E8F4E3C4E9FFCE
:10253C00E4C4EAFF0050EE14016E0152010ED8A45F
:10254C00000E006EE751001A18E0E651000804E294
:10255C0093DD92DDE607F9D7E3C4E9FFE4C4EAFFB3
:10256C00E851EE14016E0152010ED8A4000E006E5B
:10257C00E751001A02E0FF0EE96FE9C400F0120007
:10258C000401E351010A11E1010E0101B319016EBD
:10259C0001C0B3F10150000A03E10401E46B03D064
:1025AC000401010EE46FE4C4FCF1E351020A12E1F0
:1025BC00010E0101B919016E01C0B9F10150000AF7
:1025CC0004E1020E0401E56F03D00401030EE56F74
:1025DC00E5C4FCF10101B351FB1904E1B951FD193A
:1025EC0001E147D0FCC1EAF485EC0AF000520FE19E
:1025FC008074150E0B6E4B0E0C6EBE0E0D6E0D2EEA
:10260C00FED70C2EFCD70B2EFAD70000EBD701010E
:10261C00B351000A0BE13CC2EAF43DC2EBF4CF0E1D
:10262C000401EC6F000EED6F30DD0AD004013CC2EA
:10263C00EAF43DC2EBF4CB0EEC6F000EED6F25DD32
:10264C000101B951000A0BE15BC2EAF45CC2EBF484
:10265C00F10E0401EC6F000EED6F17DD0AD00401D2
:10266C005BC2EAF45CC2EBF4EE0EEC6F000EED6FA5
:0E267C000CDDB3C1FBF1B9C1FDF18094120079
:06268A000101B8831200FB
:10269000880ED56EF294F184F28A630ED76EC00E66
:0626A000D66ED58E12007B
:1026A600E1EC0AF0DCEC0AF0F0EC0BF0D30E0401DE
:0C26B600EA6F040EEB6FEAEC0AF0120071
:1026C2000101B8A329D04850B75D08E14750B65D73
:1026D20005E14650B55D02E14550B45D04E2010EEC
:1026E2000401E36F02D00401E36BE35301E116D06E
:1026F2000101B8A102D0F8DC01D0F3DCB871640E9C
:102702004524B46F000E4620B56F000E4720B66F09
:0E271200000E4820B76F02D01AEC0AF0120039
:1027200036EC1BF0C0DF49DDB886030EB06E400EFC
:10273000AF6EAC8416DD050E0B6E0F0E0C6EF10E37
:102740000D6E0D2EFED70C2EFCD70B2EFAD7BA80AD
:10275000BA82A60EBB6E3FDDCC0E0401E36FCADC6D
:10276000F28EF28CD08E9E9A9F8A9D8A150E0B6EE9
:102770004B0E0C6EBE0E0D6E0D2EFED70C2EFCD722
:102780000B2EFAD7000084DF020E45240201066FEB
:10279000000E4620076F000E4720086F000E4820ED
:1027A000096F140E4524126F000E4620136F000EA1
:1027B0004720146F000E4820156F640E4524010158
:1027C000B46F000E4620B56F000E4720B66F000EA6
:1027D0004820B76F010EFB6F010EB36FFD6BB96B35
:1027E000B883B881680E0C6EE40E0D6E0D2EFED708
:1027F0000C2EFCD700003E5208E1305206E10001E9
:10280000665303E0BC5301E002D05BDF02D06ADC18
:102810003CDF02010A510001661918E102010B5167
:102820000001BC1913E102010C515F180FE10E51B8
:1028300030180CE10D513E1809E10F510001A219A9
:1028400005E1020111515E1801E111D0EAC0E3F483
:102850005ADD66C00AF2BCC00BF25FC00CF230C099
:102860000EF23EC00DF2A2C00FF25EC011F2800E59
:102870000401E36F0F0EE46F040EE56F320EE66F96
:10288000E76B4CDE005210E00101B8B507D0000143
:10289000EA2BEA510108D8A0EA6B03D0EBC0E3F4BD
:1028A00075DEEAC0E3F42FDD800E0401E36F0F0E46
:1028B000E46F030EE56F320EE66FE76B2FDE00521A
:1028C00026E00001EA51010A22E10101B885000178
:1028D000EB2B010E0201DC6F0001EB51010A03E159
:1028E000290E0201D46F0001EB51020A03E1350EFB
:1028F0000201D46F0001EB51030A06E10101B89512
:102900000001EB6B0201DC6BEAC0E3F4FCDC800E3F
:102910000401E36F0F0EE46F030EE56F320EE66FF6
:10292000E76BFCDD005206E00001EA51000A02E11B
:082930000101B87357D7FFD76E
:10366C0010EE1BF0980E006E020E016E9E0EF66EA2
:0E367C00340EF76E000EF86E7BEC11F01200AB
:02000600D00226
:10293800000020007F000B000188010001930100C6
:10294800039E010007A9010005B4010009BF0100A9
:1029580006D5010001E0010003EB010002F60100C9
:1029680005010200060C0200021702000222020002
:10297800022D02000338020004430200044E020044
:102988000459020004640200056F0200047A020080
:102998000485020004900200049B020004A60200C1
:1029A80002B1020002BC020006C7020006D2020001
:1029B80006DD020004E8020007F3020006FE02003A
:1029C8000509030006140300061F0300052A030077
:1029D8000535030006400300064B030003560300B9
:1029E80003610300056C03000477030007820300FA
:1029F800068D03000798030005A3030007AE030034
:102A080005B9030005C4030005CF030006DA030077
:102A180006E5030007F0030004FB030005060400B5
:102A280004110400021C04000327040002320400FD
:102A3800053D04000548040003530400045E040037
:102A48000469040003740400047F0400048A040079
:102A58000395040004A0040004AB040001B60400BC
:102A680002C1040004CC040001D7040007E20400FA
:102A780004ED040004F8040004030500040E050036
:102A88000319050003240500022F0500043A050078
:102A98000545050007500500035B050005660500B0
:102AA80003710500037C05000287050003920500F9
:102AB800069D050002A805000000000000000000B7
:102AC80000000000000101010101000100000005F3
:102AD800050500000000000000000024247E143FCB
:102AE800121200000000041E05060C140F04040056
:102AF800000000460029002900D60028012801C44A
:102B08000000000000000006090916091926000047
:102B180000010101000000000000000004020101A2
:102B28000101010102040000010202020202020185
:102B38000004150E15040000000000000000000845
:102B4800083E080800000000000000000000020223
:102B58000100000000000000030000000000000069
:102B68000000000002020000000404020202020247
:102B78000101000000060909090909060000000012
:102B88000406040404040E000000000708080402F8
:102B9800010F0000000007080806080807000000E9
:102BA80000080C0A091F0808000000000F010107AF
:102BB80008080700000000060101070909060000CF
:102BC80000000F08040402020100000000060909C1
:102BD80006090906000000000609090E0808060093
:102BE80000000000000202000202000000000000D5
:102BF8000202000202010000000000201C021C204A
:102C0800000000000000003F003F0000000000003E
:102C180000021C201C020000000007080804020033
:102C280002000000001C2259555539021C00000002
:102C38000C0C12123F2121000000000709090F1196
:102C4800110F000000001C22010101221C000000DD
:102C5800000F11212121110F000000001F01010F99
:102C680001011F000000001F01010F010101000008
:102C780000001C22013921223C00000000212121F2
:102C88003F21212100000000070202020202070082
:102C980000000006040404040403000000001109F5
:102CA8000503050911000000000101010101010FE0
:102CB80000000000636355554949410000000021A8
:102CC800232529312121000000001C2241414122F5
:102CD8001C000000000F1111110F0101000000007D
:102CE8001C22414141221C106000000F11110F05E8
:102CF8000911000000001E01010E10100F00000055
:102D0800001F040404040404000000002121212100
:102D180021211E0000000021212112120C0C0000AC
:102D280000004949555555222200000000090906AE
:102D38000606090900000000110A0A040404040038
:102D48000000000F08040202010F00000003010147
:102D58000101010101010300010102020202020452
:102D6800040000030202020202020202030000043D
:102D78000A11000000000000000000000000000030
:102D880000001F0002040000000000000000000016
:102D9800000006080E090E000000010101070909DC
:102DA80009070000000000000601010106000000FC
:102DB8000808080E0909090E0000000000000609AD
:102DC8000F010E00000006010107010101010000CA
:102DD800000000000E0909090E080600010101079C
:102DE80009090909000000000100010101010100B1
:102DF80000000002000302020202020100010101B8
:102E08000905030509000000010101010101010193
:102E1800000000000000374949494900000000004F
:102E2800000709090909000000000000060909094E
:102E38000600000000000007090909070101000059
:102E480000000E0909090E0808000000000503012A
:102E58000101000000000000070102040700000053
:102E6800000001030101010200000000000009093F
:102E780009090E000000000000110A0A0A040000F7
:102E880000000000494955362200000000000005F6
:102E980002020205000000000000110A0A0A0404E8
:102EA80002000000000704020107000000040202FB
:102EB80002020102020204000202020202020202EB
:102EC80002020001020202020402020201000000E2
:102ED800000026190000000000000003030303039C
:032EE800000000E7
:102EEB00000020007F000B100288010002930100FC
:102EFB00029E010005A9010004B4010007BF0100F7
:102F0B0006CA010001D5010003E0010003EB01003B
:102F1B0003F6010005010200020C02000317020078
:102F2B0002220200032D02000538020003430200B7
:102F3B00044E02000459020005640200046F0200F3
:102F4B00057A02000485020005900200059B020031
:102F5B0002A6020002B1020005BC020005C7020076
:102F6B0004D2020004DD020008E8020006F30200AE
:102F7B0005FE02000509030006140300051F0300EC
:102F8B00052A03000735030007400300034B03002A
:102F9B000356030006610300056C0300087703006A
:102FAB0007820300078D03000598030007A30300A6
:102FBB0006AE030004B9030005C4030007CF0300EA
:102FCB0006DA030009E5030006FB0300050604000F
:102FDB0005110400031C0400032704000232040043
:102FEB00043D04000548040002530400055E040080
:102FFB000569040004740400057F0400048A0400BE
:10300B000495040005A0040006AB040003B60400FD
:10301B0002C1040005CC040003D7040008E204003D
:10302B0006ED040005F8040005030500040E050079
:10303B000419050004240500032F0500053A0500BB
:10304B000445050007500500045B050004660500F8
:10305B0004710500027C0500028705000392050040
:10306B00059D050002A805000000000000000000FF
:10307B00000000000000020202020002000000003B
:10308B00000300000000000000000000080A1E0AF8
:10309B000F020000000000040F050E0D0E040000CF
:1030AB00062515755B58543200000000000E0A0A05
:1030BB0036193F0000000000010000000000000076
:1030CB0000000404020202020404000000020204D5
:1030DB0004040404020000000000060400000000C9
:1030EB00000000000004041F0404000000000000A6
:1030FB0000000000020200000000000000070000BA
:10310B0000000000000000000000020000000000B2
:10311B00000404020202010000000000000E111165
:10312B000E00000000000000030202070000000078
:10313B000000000604040F000000000000000E0851
:10314B000E0808070000000000080C0A1F08080002
:10315B00000000000E01060808070000001C020F0B
:10316B0011110E000000000000000F0908040402FA
:10317B000000000E0A0609110E00000000000000FE
:10318B000E11111E080400000000000200000200D6
:10319B00000000000000020000020200000000001E
:1031AB00001806061800000000000000001F001F9A
:1031BB0000000000000000030C0C030000000000E6
:1031CB000608040200060000000000007CC2B9954E
:1031DB007D423C000000080C0A1E11330000000069
:1031EB00001F120E12120F00000000001E0301013F
:1031FB00031E00000000001F222222321F000000CD
:10320B0000001F020E02021F00000000001F020E32
:10321B0002020700000000001E030171233C0000A6
:10322B0000000067223E2222670000000000070218
:10323B000202020700000000000702020202020263
:10324B000100000037120E0E1A37000000000007B5
:10325B00020202121F0000000000C366665A5AE603
:10326B00000000000073262A2A322700000000000D
:10327B003E634141633E00000000001F12120E022C
:10328B000700000000003E634141633E08700000F0
:10329B00001F12120E1A3700000000000E01030C63
:1032AB00080700000000001F040404040E000000C7
:1032BB00000077222222221C000000000033221281
:1032CB00140C00000000000000000093011201AA82
:1032DB0000AC004C00440000000000000000331262
:1032EB000C0C123300000000001B110A04040E002A
:1032FB00000000001F080404021F0000000006026B
:10330B000202020202020600000001020202040491
:10331B00040000000302020202020202030000008A
:10332B00040A020000000000000000000000000082
:10333B00001F000002000000000000000000000061
:10334B0000000E080E091F0000000003020E1212EF
:10335B00120E0000000000000E010101060000002B
:10336B00000C080E0909091E0000000000000609E8
:10337B000F0106000000000C02070202020700000A
:10338B00000000001E09090F011F11000003021E9F
:10339B001212123F0000000002000302020207009B
:1033AB0000000002000302020202020200000302FC
:1033BB001A0A060A1F00000000030202020202079B
:1033CB000000000000006F525252FF00000000008E
:1033DB00001F1212123F0000000000000E1111110D
:1033EB000E0000000000000F1212120E020200006D
:1033FB0000000E0909090E0808000000000F020268
:10340B0002070000000000000F090609070000007A
:10341B0000000207020202060000000000000F0A73
:10342B000A0A1E0000000000000B090A0604000037
:10343B00000000006B292A16100000000000000B92
:10344B000604060F0000000000000B090A06040426
:10345B0002000000000F0404020E00000000020234
:10346B000202010202020200000202020202020236
:10347B000202000002020202040202020200000029
:10348B00000000160D0000000000000303030303FF
:03349B000000002E
:06349E00416C61726D003B
:0734A4004E6F726D616C00B8
:0434AB0041757400F3
:0434AF004D616E00FD
:0134B3000018
:0634B40043686569610038
:0734BA004E6F726D616C00A2
:0134C100000A
:0634C200416C61726D0017
:0434C8000000000000
:0334CC004F6E0040
:0734CF005B415554305D0024
:0434D6004F666600D7
:0334DA004F6E0032
:0434DD004F666600D0
:0134E10000EA
:0134E20000E9
:0634E30056617A696100E8
:0134E90000E2
:0634EA0043686569610002
:0434F0004F666600BD
:0434F4004D616E00B8
:1034F80052656C65205465726D69636F2042503A5D
:0135080000C2
:043509004F666600A3
:10350D00537461747573205632562020202020206C
:02351D003A0072
:06351F0056617A696100AB
:0135250000A5
:06352600436865696100C5
:06352C0056617A6961009E
:013532000098
:06353300436865696100B8
:0635390056617A69610091
:01353F00008B
:06354000436865696100AB
:0635460056617A69610084
:01354C00007E
:01354D00007D
:04354E00417574004F
:043552004D616E0059
:073556005B415554315D009B
:01355D00006D
:07355E005B563256305D00A0
:073565005B563256315D0098
:01356C00005E
:01356D00005D
:01356E00005C
:02356F009001C9
:033571004F6E009A
:043574004F66660038
:073578004E6F726D616C00E3
:10357F004E762E2043782052756120202020202067
:02358F003A0000
:103591004E762E2043697374204220202020202063
:0435A10020203A00AC
:0635A50056617A69610025
:0635AB0056617A6961001F
:1035B1004E762E2043697374204120202020202044
:0435C10020203A008C
:1035C5004D6F646F204D616E2D41757420203A005A
:1035D50052656C65205465726D69636F2042433A8C
:0135E50000E5
:0735E6004E6F726D616C0075
:1035ED00434D4420202020563256202020202020DC
:0435FD0020203A0050
:103601004E762E2043782052756120303220203AA8
:0136110000B8
:0636120056617A696100B7
:0636180056617A696100B1
:06361E0056617A696100AB
:103624004E762E2043697374205072696E63202095
:023634003A005A
:10363600D703F60315047A039903B80363048204D7
:04364600A1043404A3
:10364A005B0373029202B102160235025402FE02B1
:04365A001D033C030D
:06365E000C0C1E1E3F3F94
:0436640053045B04AC
:04366800EE02F60276
:020000040030CA
:0D000100331F3CFFBD81FF0FC00FE00F401B
:00000001FF
