:0400000060EF12F0AB
:1000080000C018F001C017F002C016F003C015F0C8
:10001800E1CF19F0E2CF1AF0F2A41DD0F2AA1BD05A
:10002800010E01013625006E000E3721016E000E0B
:100038003821026E000E3921036E00C036F101C06E
:1000480037F102C038F103C039F1630ED76EC00E24
:10005800D66EF2942CD09EAA2AD09DAA28D0D0EC95
:1000680011F000C063F500505B0A08E1B40E01010D
:10007800B26F010EB36F010E356F18D005016351D1
:100088005D0A08E101013551010A04E1356B48ECCC
:1000980011F00CD001013551010A08E1B2C1E1FFAC
:1000A800B3C1E2FF63C5E6FFB24BB32B9E9A18C0FB
:1000B80000F017C001F016C002F015C003F019C017
:0800C800E1FF1AC0E2FF110084
:0C00D0001A0E0D6E0D2EFED7000012005F
:0A00DC00F9DF8A88F7DF8A98120026
:0C00E600020E0D6E0D2EFED70000120061
:1000F200120E006E000E016E830E0024E16E0F0ED2
:100102000120E26EFF0EE66EEDDFECDF8A848A9854
:100112008A868A88DCDF83CF62F58A988A96E2DF54
:10012200E1DF120E006E000E016E830E0024E16EFE
:0E0132000F0E0120E26EE66A62C500F01200B8
:0E0140008A988A848A9662C583FFC8DF1200FF
:10014E007F0E05016215006E00C062F58A948A96D4
:10015E00BF0E001600C062F5008C00C062F500C034
:06016E0083FFB5DF120063
:100174007F0E05016215016E01C062F501AC03D06A
:0C0184008A808A9202D08A908A8212003F
:100190008A948A96B80E05016211836E9FDF120061
:1001A000F250026EF29E0500FF6A0150FE6E005092
:0801B000FD6E02BEF28E12008A
:1001B800000E0501545D0AE354517F0807E3000E61
:1001C800555D04E355513F0801E301D04AD054C5B9
:1001D80062F5CCDF55C562F56233629F6233629F78
:1001E8006233629FD1DF54C562F5ADDF7EDF00C0A8
:1001F80059F57BDF00C059F555C562F56233629F3A
:100208006233629F6233629FBFDF54C562F59BDF32
:10021800070E5515006E00C057F500C001F0010E1D
:10022800006E015004E000360090FF0FFBD700C0BD
:1002380057F5001C586F09D0585159170FD057510E
:1002480059130CD05751591B09D05651000AF4E0E4
:100258005651010AF4E05651020AF4E059C562F514
:040268006BDF120036
:10026C0054C5E7F155C5E8F156C5E9F1020E050193
:10027C005425F66E000E5521F76E000E5621F86EC1
:10028C000900F5CF04F0030E5425F66E000E55212F
:10029C00F76E000E5621F86E0900F5CF03F003C07F
:1002AC0001F0006A045000240101E56F000E0120EA
:1002BC00E66F040E05015425F66E000E5521F76EFF
:1002CC00000E5621F86E0900F5CF04F0050E5425EA
:1002DC00F66E000E5521F76E000E5621F86E0900D1
:1002EC00F5CF03F003C001F0006A045000240101B3
:1002FC00EA6F000E0120EB6F060E05015425F66E19
:10030C00000E5521F76E000E5621F86E0900F5CF40
:10031C00A8F1000E0101A96F57C5ACF1000EAD6F2D
:0E032C0058C5D8F1010E426FA66BA76B1200E8
:10033A009E0E0501606F010E616F000E006E59512D
:10034A00005C02E15851000843E29CC1E1FF9DC1F3
:10035A00E2FF54C5E6FF55C5E6FF56C5E6FF57C599
:10036A00E6FF58C5E6FF59C5E6FF5C0EE66E050EC8
:10037A00E66E9AC100F09BC101F00DDF00C05EF588
:10038A0001C05FF505015A6B5B6B5D515B5D02E174
:10039A005C515A5D11E25EC5E9FF5FC5EAFF60C5BF
:1003AA00E1FF61C5E2FFEECFE6FF604B612B5E4BDA
:1003BA005F2B5A4B5B2BE9D75C51585F5D51595BF8
:1003CA005C5154275D515523000E56235723B5D748
:0203DA0012000F
:1003DC000B6A0A6A096A00500402F4CF09F0F3CFE1
:1003EC0008F001500502F4CF0BF0F3CF0AF00050E7
:1003FC000502F3500926F4500A22E86A0B22015038
:10040C000402F3500926F4500A22E86A0B2208C0B1
:10041C0000F009C001F00AC002F00BC003F012009A
:10042C000501426B436B446B01014251000A0DE123
:10043C00940E0501546F260E556F000E566F010E6B
:10044C00576F586B0DDF010E426F000E006EE651B8
:10045C00005C03E1E55105013A5D01E2FDD0000EBF
:10046C000101EB5D04E105013A510101EA5D01E294
:10047C00F3D0E55105013A5D016EE6C102F0000EC4
:10048C00025601C003F002C004F003360390043698
:10049C00033603900436080E0101E725006E000EAA
:1004AC00E821016E000EE921026E000E056E00506F
:1004BC000326015004220250052203C0F6FF04C09B
:1004CC00F7FF05C0F8FF0900F5CF42F5010E032434
:1004DC00F66E000E0420F76E000E0520F86E090073
:1004EC00F5CF00F000C006F0000E076E086E096E26
:1004FC00020E0324F66E000E0420F76E000E05208B
:10050C00F86E0900F5CF03F003C001F0006A000E8D
:10051C00026E036E0650002607500122085002227C
:10052C0009500322E751002405013F6F0101E851F6
:10053C0001200501406F0101E95102200501416FC5
:10054C000101D851000A45E1AAC13DF505013C6BFA
:10055C00000E006E0101A951005C03E1A8510501D8
:10056C003C5D2EE20501AEC143F53E6B3B6B425147
:10057C003B5D23E23E51000A10E13FC5F6FF40C54A
:10058C00F7FF41C5F8FF0900F5CF44F5010E3F27F1
:10059C00000E40234123010E3E6F3E514415006E68
:1005AC0007E043C554F53DC555F5ACC156F5FEDD28
:1005BC00432B3E373E913B2BDAD73D2B3C2BC8D7F8
:1005CC0005014351010F0101AE6FAF6B000EAF235C
:1005DC0043D0AEC13DF505013C6B000E006E010130
:1005EC00A951005C03E1A85105013C5D2EE2050117
:1005FC00AAC143F53E6B3B6B42513B5D23E23E513E
:10060C00000A10E13FC5F6FF40C5F7FF41C5F8FFF2
:10061C000900F5CF44F5010E3F27000E402341237E
:10062C00010E3E6F3E514415006E07E03DC554F57A
:10063C0043C555F5ACC156F5B9DD43073E373E9180
:10064C003B2BDAD73D2B3C2BC8D7050143050101C9
:0A065C00AA6FAB6B000EAB5B12003F
:100666003AC5AEF13BC5AFF13CC5AAF13DC5ABF10C
:02067600120070
:1006780005014F6B506B516B526B0101E65105013F
:100688003B5D04E10101E55105013A5D01E2E2D17A
:100698003B510101EB5D04E105013A510101EA5DBD
:1006A80001E2D8D1E55105013A5D036E0101E65139
:1006B80005013B59046E03C000F004C001F0003688
:1006C80000900136003600900136080E010195258C
:1006D8000501546F000E010196210501556F000EAA
:1006E800010197210501566F000E010198210501AE
:1006F800576F0050542701505523000E5623572397
:10070800040E586F000E596F14DE9E0E4D6F010EC9
:100718004E6F4DC5E9FF4EC5EAFFEECF53F553C501
:100728004FF5010E4D25E96E000E4E21EA6EEECF13
:1007380004F0000E056E066E076E020E4D25E96E7A
:10074800000E4E21EA6EEECF03F003C001F0006AFE
:10075800000E026E036E045000260550012206505A
:100768000222075003220050010195250501416F1F
:100778000150010196210501426F025001019721A4
:100788000501436F0350010198210501446F53C5CA
:1007980000F00032009E0032009E0032009E000EE3
:1007A800016EA8C104F0A9C105F014DE00C047F528
:1007B80001C048F5070E5315006E08E00101A85165
:1007C800050147270101A9510501482347C54BF5F4
:1007D80048C54CF59CC1E1FF9DC1E2FF41C5E6FF5C
:1007E80042C5E6FF43C5E6FF44C5E6FF47C5E6FF49
:1007F80048C5E6FF450EE66E050EE66E9AC100F0A6
:100808009BC101F0C9DC00C04DF501C04EF50501E2
:100818004551412746514223000E43234423455165
:10082800475F4651485B496B4A6B0101D851000A42
:10083800D8A486D0AAC13EF5ABC13FF505013D6BF2
:10084800000E006E0101A951005C03E1A8510501E9
:100858003D5D6BE20501AEC150F5AFC151F5406B8E
:100868003C6B4F513C5D5DE24051000A49E1494B08
:100878004A2B4C51465D02E14B51455D37E24A51E6
:10088800465D02E14951455D31E2010E496F000EB6
:100898004A6F9CC1E1FF9DC1E2FF41C5E6FF42C529
:1008A800E6FF43C5E6FF44C5E6FF47C5E6FF48C582
:1008B800E6FF450EE66E050EE66E9AC100F09BC196
:1008C80001F06ADC00C04DF501C04EF547C54BF597
:1008D80048C54CF505014551412746514223000EB4
:1008E800432344234551475F4651485B4DC5E9FFC3
:1008F8004EC5EAFFEECF52F54D4B4E2B010E406F21
:1009080040515215006E07E050C554F53EC555F5E7
:10091800ACC156F54DDC504B512B403740913C2B28
:10092800A0D73E4B3F2B3D2B8BD70501010E502501
:100938000101AE6F000E050151210101AF6F8AD090
:10094800AEC13EF5AFC13FF505013D6B000E006E2F
:100958000101A951005C03E1A85105013D5DD8B032
:100968006FD00501AAC150F5ABC151F5406B3C6B86
:100978004F513C5D61E24051000A4AE1494B4A2B24
:100988004C51465D02E14B51455D38E24A51465DA6
:1009980002E14951455D32E2010E496F000E4A6F8E
:1009A8009CC1E1FF9DC1E2FF41C5E6FF42C5E6FFEC
:1009B80043C5E6FF44C5E6FF47C5E6FF48C5E6FF71
:1009C800450EE66E050EE66E9AC100F09BC101F079
:1009D800D0EC00F000C04DF501C04EF547C54BF511
:1009E80048C54CF505014551412746514223000EA3
:1009F800432344234551475F4651485B4DC5E9FFB2
:100A08004EC5EAFFEECF52F54D4B4E2B010E406F0F
:100A180040515215006E08E03EC554F550C555F5D5
:100A2800ACC156F5DCEC00F0010E505F000E515BD6
:100A3800403740913C2B9CD73E4B3F2B3D2B86D7D4
:100A48000501010E505D0101AA6F000E0501515903
:060A58000101AB6F12006A
:100A5E00000E05011A5D02E1800E195D01E33ED024
:100A6E00000E1C5D02E1400E1B5D01E337D01D6BD5
:100A7E001E6B19C53AF51AC53BF51BC53CF51CC5D1
:100A8E003DF5EADD1D511725E96E1E511821EA6E5E
:100A9E00EE5224E00101A651A71112E005011D51ED
:100AAE001725E96E1E511821EA6EEECF3AF5000EAB
:100ABE003B6F000E3B6FD9DD05011D4B1E2B0DD07C
:100ACE0005011D511725E96E1E511821EA6EEECF54
:0E0ADE003AF5A5DC05011D4B1E2BD4D71200E6
:100AEC00800E05011819006E800E005C02E1000EEC
:100AFC00175D02E2176B186B800E006E800E1819D2
:100B0C00005C02E117517F0804E27F0E176F000EA4
:100B1C00186F800E1C19006E800E005C02E1000E36
:100B2C001B5D02E21B6B1C6B800E006E800E1C1991
:100B3C00005C02E11B517F0804E27F0E1B6F000E6C
:100B4C001C6F800E1A19006E800E005C02E1000E04
:100B5C00195D02E2196B1A6B800E006E800E1A1969
:100B6C00005C02E119513F0804E23F0E196F000EC0
:100B7C001A6F800E1E19006E800E005C02E1000ED2
:100B8C001D5D02E21D6B1E6B800E006E800E1E1929
:100B9C00005C02E11D513F0804E23F0E1D6F000E88
:100BAC001E6F17511B5D016E18511C59026E01C04E
:100BBC0020F502C021F519511D5D226F1A511E59E5
:100BCC00236F800E0218006E800E005C02E1000E96
:100BDC00015C0BE220510008206F2151000E2157BF
:100BEC00FF0E246FFF0E256F04D0010E246F000E34
:100BFC00256F800E2319006E800E005C02E1000E42
:100C0C00225D0BE222510008226F2351000E235764
:100C1C00FF0E266FFF0E276F04D0010E266F000EFD
:100C2C00276F20372091213722372291233717C580
:100C3C0054F519C555F51FC556F5DCEC00F0800EC2
:100C4C002319006E800E2119005C02E12051225DF7
:100C5C003EE220C500F021C501F001320032019EB8
:100C6C0001BC018E0050225D286F01502359296F61
:100C7C0018511C1902E11B51171928E0800E291973
:100C8C00006E800E005C02E1000E285D08E3265128
:100C9C00192727511A232051285F2151295B2451F0
:100CAC001725006E25511821016E00C017F501C0E3
:100CBC0018F5225128272351292300C054F519C5B2
:100CCC0055F51FC556F5DCEC00F0D2D73DD022C54A
:100CDC0000F023C501F001320032019E01BC018EEF
:100CEC000050205D286F01502159296F1A511E198F
:100CFC0002E11D51191928E0800E2919006E800E91
:100D0C00005C02E1000E285D08E3245117272551F1
:100D1C0018232251285F2351295B26511925006E77
:100D2C0027511A21016E00C019F501C01AF5205186
:100D3C0028272151292317C554F500C055F51FC587
:0A0D4C0056F5DCEC00F0D2D71200DF
:100D560005012C6B2D6B2E6B2F6B306B316B326B51
:100D6600336B1B511725006E1C511821016E010EA5
:100D7600005C026E000E0158036E000E006E0350FA
:100D8600005C02E102507F0807E2175180081B6FE2
:100D960018C51CF5000E1C571D511925006E1E5155
:100DA6001A21016E010E005C026E000E0158036EE0
:100DB600000E006E0350005C02E102503F0807E29D
:100DC600195140081D6F1AC51EF5000E1E5719C58C
:100DD60000F01AC501F001320032019E01320032E4
:100DE600019E01320032019E00C026F51D511925D3
:100DF600056E1E511A21066E010E055C036E000E6D
:100E06000658046E03C000F004C001F0013200323F
:100E1600019E01320032019E01320032019E00C065
:100E260027F5070E1915006E1AC501F0000E0116FA
:100E360000C029F5070E0514006E06C001F0000E6D
:100E4600011600C02AF522511E5D02E121511D5DE9
:100E560003E227C52BF51BD021511925006E22511F
:100E66001A21016E010E005C036E000E0158046E1D
:100E760003C000F004C001F001320032019E0132CD
:100E86000032019E01320032019E00C02BF5070E92
:100E96002115016E22C502F0000E0216000E021880
:100EA60002E1000E011818E121C500F022C501F08B
:100EB60001320032019E01320032019E01320032BF
:100EC600019E1FC504F020C505F0EEEC01F000C040
:100ED60036F501C037F519D021C500F022C501F05D
:100EE60001320032019E01320032019E013200328F
:100EF600019E004A012A1FC504F020C505F0EEEC4C
:100F060001F000C036F501C037F526C52CF5000EF8
:100F16002D6F000E006E2D51005C02E12C51275DF5
:100F2600D8A003D1346B356B2E6B2F6B1C512F5D04
:100F360002E11B512E5DD8B0E7D02E511725626F06
:100F4600BAEC00F02CC562F5C8EC00F020512F5D1C
:100F560002E11F512E5D3DE2000E006E2D51005C38
:100F660002E12C512B5D35E3000E2D1902E12651CD
:100F76002C1902E1386B12D032513425006E3351F0
:100F86003521016E00502325F66E01502421F76E9F
:100F9600000E2521F86E0900F5CF38F53751315D81
:100FA60002E13651305D02E3396B12D030513425FF
:100FB600006E31513521016E00502325F66E015029
:100FC6002421F76E000E2521F86E0900F5CF39F5BC
:100FD60002D0396B386B39C528F5295100081AE259
:100FE60029510808006E016A000E015A38C528F515
:100FF600005004E02833289FFF0FFBD729C501F0D6
:1010060039C500F0015004E000360090FF0FFBD711
:1010160000502813000E2D1902E126512C192DE13E
:10102600295100082AE22E511725626FA7EC00F01D
:1010360079EC00F079EC00F029510808016E026A9B
:10104600000E025A01C002F0FF0E016E025004E0CB
:101056000132019EFF0FFBD701500014026E29C515
:1010660001F0FF0E006E015004E000360090FF0F05
:10107600FBD70050281702502813000E2D1902E145
:1010860027512C192DE12A5100082AE22E51172545
:10109600626FA7EC00F079EC00F079EC00F02AC55D
:1010A60002F0FF0E016E025004E001360190FF0FC0
:1010B600FBD701500014026E2A510808006E016A1F
:1010C600000E015A00C001F0FF0E006E015004E050
:1010D6000032009EFF0FFBD700502817025028133E
:1010E60020512F5D02E11F512E5D02E2344B352B5C
:1010F6002E511725626FA7EC00F028C562F5A0EC0B
:1011060000F02E4B2F2B12D7000E2D5D02E12B5136
:101116002C5D08E230C532F531C533F51F51302755
:0C112600205131232C4B2D2BF4D612004D
:10113200070E05011325E96E000E1421EA6EEE502A
:10114200010A33E1030E1325E96E000E1421EA6E43
:10115200EECF17F5000E186F000E186F040E132550
:10116200E96E000E1421EA6EEECF19F5000E1A6F29
:10117200000E1A6F050E1325E96E000E1421EA6E99
:10118200EECF1BF5000E1C6F000E1C6F060E132512
:10119200E96E000E1421EA6EEECF1DF5000E1E6FF1
:0C11A200000E1E6F010E1F6FA0DC12007B
:1011AE000D0E05011325E96E000E1421EA6EEE50A8
:1011BE00010A3BE1090E1325E96E000E1421EA6EB9
:1011CE00EECF54F5EECF55F5EECF56F50C0E1325AA
:1011DE00E96E000E1421EA6EEECF57F5586B36EC21
:1011EE0001F0070E05011325E96E000E1421EA6EBB
:1011FE00EECF17F5EECF18F5030E1325E96E000EA0
:10120E001421EA6EEECF19F5000E1A6F000E1A6F4A
:10121E00040E1325E96E000E1421EA6EEECF1BF5B7
:0C122E00000E1C6F000E1C6F13DC120081
:10123A000C0E05011325E96E000E1421EA6EEE501C
:10124A00010A55E1030E1325E96E000E1421EA6E18
:10125A00EECF17F5000E186F000E186F040E132547
:10126A00E96E000E1421EA6EEECF19F5000E1A6F20
:10127A00000E1A6F050E1325E96E000E1421EA6E90
:10128A00EECF1BF5000E1C6F000E1C6F060E132509
:10129A00E96E000E1421EA6EEECF1DF5000E1E6FE8
:1012AA00000E1E6F070E1325E96E000E1421EA6E5A
:1012BA00EECF1FF5000E206F000E206F080E1325CB
:1012CA00E96E000E1421EA6EEECF21F5000E226FB0
:1012DA00000E226F090E1325E96E000E1421EA6E24
:1012EA00EECF23F5EECF24F5EECF25F52FDD120054
:1012FA000101996BA66BA76B939A93989394939613
:10130A00939093928A9A120E006E000E016E830ECB
:10131A000024E16E0F0E0120E26EE66A8A948A9634
:10132A008A908A828A8A3F0E836E6EEC00F0C00E23
:10133A00836E6EEC00F08A808A923F0E836E6EECAA
:0C134A0000F0C00E836E6EEC00F012008C
:101356000501155101013625026E050116510101DF
:101366003721036E000E3821046E000E3921056EFA
:10137600000E411902E1000E401913E03951055CD7
:1013860008E13851045C05E13751035C02E136514E
:10139600025C03E2010E016E01D0016A015201E016
:1013A60010D013C5E9FF14C5EAFFEE50010A08E1A3
:1013B60013C5E1FF14C5E2FFE66A010E006E02D016
:0613C600D7D7006A1200F7
:0E13CC00ACB202D00000FCD713C5ADFF12007A
:1013DA008A908A820501156B1551070810E315C515
:1013EA0062F5C8EC00F0146B14513F0806E313C50C
:1013FA0062F5A0EC00F0142BF7D7152BEDD78A92E3
:10140A008A80156B1551070810E315C562F5C8ECFB
:10141A0000F0146B14513F0806E313C562F5A0EC03
:0C142A0000F0142BF7D7152BEDD71200A3
:101436000101926B0501086B096B0A6B0D6B106B52
:1014460006C593F107C594F1136BC4DF050193C17B
:10145600E9FF94C1EAFFEECF01F0800E0919006E94
:10146600800E005C02E10150085DD8B0F1D0010E9B
:1014760001019325D96E000E9421DA6EDECF01F0BC
:10148600DECF02F0000E006E0250005C03E1015058
:1014960005010A5D3CE2030E01019325E96E000E8B
:1014A6009421EA6E0AC500F0000E016E026E036E0C
:1014B60000360090013602360336EE500024F66EF2
:1014C600EE500120F76EEE500220F86E0900F5CFBF
:1014D60000F00900F5CF01F000C00BF501C00CF5D6
:1014E600020E0024D96E000E0120DA6EDECF01F066
:1014F600000E0501091902E10150081908E10A2B3D
:10150600084B092B0BC513F50CC514F54DDE0B0E58
:1015160001019325D96E000E9421DA6EDECF01F01B
:10152600DECF02F0000E006E0250005C03E10150B7
:101536000501105D3CE20D0E01019325E96E000EDA
:101546009421EA6E10C500F0000E016E026E036E65
:1015560000360090013602360336EE500024F66E51
:10156600EE500120F76EEE500220F86E0900F5CF1E
:1015760000F00900F5CF01F000C011F501C012F529
:10158600020E0024D96E000E0120DA6EDECF01F0C5
:10159600000E0501091902E10150081908E1102B96
:1015A600084B092B11C513F512C514F5BFDD060E40
:1015B60001019325D96E000E9421DA6EDECF01F07B
:1015C600DECF02F0000E006E0250005C03E1015017
:1015D60005010D5D3CE2080E01019325E96E000E42
:1015E6009421EA6E0DC500F0000E016E026E036EC8
:1015F60000360090013602360336EE500024F66EB1
:10160600EE500120F76EEE500220F86E0900F5CF7D
:1016160000F00900F5CF01F000C00EF501C00FF58E
:10162600020E0024D96E000E0120DA6EDECF01F024
:10163600000E0501091902E10150081908E10D2BF8
:10164600084B092B0EC513F50FC514F5F3DDFED6B1
:02165600120080
:10165800090E0401056F000E066F2B0E076F390E79
:10166800086F000E096F0A6B0B6B020E0F6F000EEE
:10167800106F490E116F390E126F000E136F0B0E9B
:10168800046F090E0301E56F000EE66F190EE76F90
:10169800390EE86F000EE96F010EEA6F000EEB6F6E
:1016A800060EEC6F000EED6F000EEE6F020EEF6F80
:1016B800000EF06F4D0EF16F390EF26F000EF36FE2
:1016C8000C0EE46F030EF56F000EF66F430EF76F06
:1016D800390EF86F000EF96FFA6BFB6B020EFF6F95
:1016E800000E0401006F510E016F390E026F000EDB
:1016F800036F050E0301F46F040E02011B6F040E45
:101708001C6F1D6B060E1E6F190E1F6F3D0E206F8E
:101718000C0E216F010E286F010E296F460E226FE5
:10172800010E236F470E066E2C0E076E000E086E14
:1017380006C024F207C025F208C026F2010E276F62
:101748002A6B2B6B2C6B2D6B2E6B2F6B306B316BCD
:10175800326B336B346B356B366B376B386B396B7D
:10176800040E0401336F040E346F010E356F060E3C
:10177800366F260E376F3D0E386F0C0E396F010E1F
:10178800406F010E416F6C0E3A6F010E3B6F06C041
:101798003CF407C03DF408C03EF4010E3F6F426BB5
:1017A800436B446B456B466B476B486B496B4A6BA5
:1017B8004B6B4C6B4D6B4E6B4F6B506B516B040E00
:1017C800146F040E156F020E166F060E176F320E89
:1017D800186F3D0E196F0C0E1A6F010E216F010E56
:1017E800226F800E1B6F010E1C6F06C01DF407C010
:1017F8001EF408C01FF4010E206F236B246B256BA9
:10180800266B276B286B296B2A6B2B6B2C6B2D6B2C
:101818002E6B2F6B306B316B326B040EBF6F040E67
:10182800C06F030EC16F5D0EC26F0D0EC36F160E33
:10183800C46F0C0EC56F010ECC6F010ECD6F660E16
:10184800C66F010EC76F06C0C8F407C0C9F408C048
:10185800CAF4010ECB6FCE6BCF6BD06BD16BD26B52
:10186800D36BD46BD56BD66BD76BD86BD96BDA6B64
:10187800DB6BDC6BDD6B040E906F040E916F040E56
:10188800926F5D0E936F190E946F160E956F0C0E76
:10189800966F010E9D6F010E9E6F5A0E976F010E87
:1018A800986F06C099F407C09AF408C09BF4010E1B
:1018B8009C6F9F6BA06BA16BA26BA36BA46BA56BBA
:1018C800A66BA76BA86BA96BAA6BAB6BAC6BAD6B6C
:1018D800AE6B040E716F040E726F050E736F5D0EA2
:1018E800746F260E756F160E766F0C0E776F010EDD
:1018F8007E6F010E7F6F600E786F010E796F06C0E4
:101908007AF407C07BF408C07CF4010E7D6F806B0D
:10191800816B826B836B846B856B866B876B886B43
:10192800896B8A6B8B6B8C6B8D6B8E6B8F6B040EDC
:10193800526F040E536F060E546F5D0E556F320EC4
:10194800566F160E576F0C0E586F010E5F6F010E13
:10195800606FB60E596F000E5A6F06C05BF407C071
:101968005CF408C05DF4010E5E6F616B626B636BC3
:10197800646B656B666B676B686B696B6A6B6B6BCB
:101988006C6B6D6B6E6B6F6B706B040EDE6F040EA1
:10199800DF6F070EE06F060EE16F0D0EE26F3C0E73
:1019A800E36F0C0EE46F010EEB6F010EEC6FA50EEA
:1019B800E56F000EE66F06C0E7F407C0E8F408C05C
:1019C800E9F4010EEA6FED6BEE6BEF6BF06BF16B08
:1019D800F26BF36BF46BF56BF66BF76BF86BF96BFB
:1019E800FA6BFB6BFC6B040E0201906F040E916F97
:1019F800080E926F060E936F010E946F510E956F3D
:101A08000A0E966F010E9D6F010E9E6FCD0E976F99
:101A1800000E986FFA0E036E310E046E000E056EFE
:101A280003C099F204C09AF205C09BF2010E9C6FA4
:101A38009F6BA06BA16BA26BA36BA46BA56BA66B32
:101A4800A76BA86BA96BAA6BAB6BAC6BAD6BAE6BE2
:101A5800040E886F040E896F090E8A6F030E8B6F50
:101A68003D0E8C6F770E8D6F3D0E8E6F010E8F6F52
:101A7800040E426F040E436F0A0E446F030E456F47
:101A88000C0E466F770E476F0C0E486F010E496FAC
:101A9800E40E0101FC6F030EFD6FFE6B060EFF6F77
:101AA800190E0201006F460E016F0C0E026F010E37
:101AB800096F010E0A6FBC0E036F000E046F06C09B
:101AC80005F207C006F208C007F2010E086F0B6B9B
:101AD8000C6B0D6B0E6B0F6B106B116B126B136B2A
:101AE800146B156B166B176B186B196B1A6BE40E6E
:101AF80003014A6F030E4B6F010E4C6F060E4D6FBC
:101B0800260E4E6F450E4F6F0C0E506F010E576F1D
:101B1800010E586F950E516F000E526F06C053F3A9
:101B280007C054F308C055F3010E566F596B5A6B32
:101B38005B6B5C6B5D6B5E6B5F6B606B616B626B51
:101B4800636B646B656B666B676B686BE40E876FC2
:101B5800030E886F020E896F060E8A6F320E8B6F26
:101B6800460E8C6F0C0E8D6F010E946F010E956FE3
:101B7800740E8E6F000E8F6F06C090F307C091F33E
:101B880008C092F3010E936F966B976B986B996BE5
:101B98009A6B9B6B9C6B9D6B9E6B9F6BA06BA16BF9
:101BA800A26BA36BA46BA56BE40E0201CE6F030EB0
:101BB800CF6F030ED06F5D0ED16F0D0ED26F1F0E5B
:101BC800D36F0C0ED46F010EDB6F010EDC6F6D0E40
:101BD800D56F000ED66F06C0D7F207C0D8F208C07E
:101BE800D9F2010EDA6FDD6BDE6BDF6BE06BE16B58
:101BF800E26BE36BE46BE56BE66BE76BE86BE96B59
:101C0800EA6BEB6BEC6BE40EAF6F030EB06F040E78
:101C1800B16F5D0EB26F190EB36F1F0EB46F0C0E5D
:101C2800B56F010EBC6F010EBD6F8E0EB66F000E44
:101C3800B76F06C0B8F207C0B9F208C0BAF2010E11
:101C4800BB6FBE6BBF6BC06BC16BC26BC36BC46B2E
:101C5800C56BC66BC76BC86BC96BCA6BCB6BCC6BE0
:101C6800CD6BE40E03010C6F030E0D6F050E0E6FA6
:101C78005D0E0F6F260E106F120E116F0C0E126F85
:101C8800010E196F010E1A6F8A0E136F000E146F72
:101C980006C015F307C016F308C017F3010E186F36
:101CA8001B6B1C6B1D6B1E6B1F6B206B216B226BE0
:101CB800236B246B256B266B276B286B296B2A6B90
:101CC800E40E0201ED6F030EEE6F060EEF6F5D0E70
:101CD800F06F320EF16F0D0EF26F0C0EF36F010EF6
:101CE800FA6F010EFB6F1D0EF46F010EF56F06C043
:101CF800F6F207C0F7F208C0F8F2010EF96FFC6BB4
:101D0800FD6BFE6BFF6B0301006B016B026B036BDA
:101D1800046B056B066B076B086B096B0A6B0B6B27
:101D2800E40E2B6F030E2C6F070E2D6F060E2E6F11
:101D38000D0E2F6F450E306F0C0E316F010E386F80
:101D4800010E396F0C0E326F010E336F06C034F37B
:101D580007C035F308C036F3010E376F3A6B3B6B9B
:101D68003C6B3D6B3E6B3F6B406B416B426B436B17
:101D7800446B456B466B476B486B496BE40EA66F2B
:101D8800030EA76F080EA86F200EA96F010EAA6F89
:101D98003B0EAB6F0A0EAC6F010EB36F010EB46F42
:101DA800270EAD6F010EAE6F03C0AFF304C0B0F3E2
:101DB80005C0B1F3010EB26FB56BB66BB76BB86BFC
:101DC800B96BBA6BBB6BBC6BBD6BBE6BBF6BC06BCF
:101DD800C16BC26BC36BC46BE40E0401AF6F030E1F
:101DE800B06F090EB16F030EB26F3D0EB36F770E71
:101DF800B46F3D0EB56F010EB66FE40EB76F030EEC
:101E0800B86F0A0EB96F030EBA6F0C0EBB6F770E60
:101E1800BC6F0C0EBD6F010EBE6FE40E0301696F3F
:101E2800030E6A6F0B0E6B6F750E6C6F290E6D6F5C
:101E3800060E6E6F060E6F6F060E706F060E716FD0
:101E48003D0E006E390E016E000E026E00C072F378
:101E580001C073F302C074F3010E756F010E766F43
:101E6800776B786B796B7A6B7B6B7C6B7D6B7E6B3E
:101E78007F6B806B816B826B836B846B856B866BEE
:101E8800F40EC56F030EC66FC76B5D0EC86F0D0EDF
:101E9800C96F160ECA6F0C0ECB6F010ED26F010EF2
:101EA800D36F210ECC6F010ECD6F06C0CEF307C0E5
:101EB800CFF308C0D0F3010ED16FD46BD56BD66BBE
:101EC800D76BD86BD96BDA6BDB6BDC6BDD6BDE6BDE
:101ED800DF6BE06BE16BE26BE36BF40E0201696FA1
:101EE800030E6A6F010E6B6F060E6C6F0D0E6D6F31
:101EF8003D0E6E6F0C0E6F6F010E766F010E776FD1
:101F0800FC0E706F000E716F06C072F207C073F29C
:101F180008C074F2010E756F786B796B7A6B7B6B06
:101F28007C6B7D6B7E6B7F6B806B816B826B836B55
:101F3800846B856B866B876BF40E4A6F030E4B6F51
:101F4800020E4C6F060E4D6F010E4E6F510E4F6F05
:101F58000A0E506F010E576F010E586FE10E516F48
:101F6800000E526F03C053F204C054F205C055F27C
:101F7800010E566F596B5A6B5B6B5C6B5D6B5E6BDE
:101F88005F6B606B616B626B636B646B656B666BDD
:101F9800676B686BF40E0101F46F030EF56F030EA7
:101FA800F66F030EF76F3D0EF86F770EF96F3D0E63
:101FB800FA6F010EFB6FF40E02013A6F030E3B6FCE
:101FC800040E3C6F030E3D6F0C0E3E6F770E3F6F95
:0A1FD8000C0E406F010E416F120065
:101FE20006C5E9FF07C5EAFFEE50000A0CE006C588
:101FF200E9FF07C5EAFFEECF13F5E6EC09F00501AC
:10200200064B072BEDD708C513F509C514F50AC50C
:0C20120015F50BC516F5ABEC09F012003B
:10201E00060E0C6E2B0E0D6E0D2EFED70C2EFCD753
:02202E0012009E
:10203000030E0F01386F396B3A6B3B6B030E926ED8
:0220400012008C
:0E2042007DEC09F00501136BEDEC09F01200C6
:1020500006C504F007C505F004C002F005C003F092
:10206000044A052A08C500F009C501F00501084B1E
:10207000092B00C0E9FF01C0EAFF02C0E1FF03C075
:10208000E2FFEECFE6FF02C0E9FF03C0EAFFEE5237
:0E20900001E0E2D706C500F007C501F012001E
:10209E00010E0501006F48D00501F50E066F000E0A
:1020AE00076F6C0E086F000E096F140E0A6F000E8C
:1020BE000B6F90DF00500501001743D00501360E5F
:1020CE00066F000E076F6C0E086F000E096F140E70
:1020DE000A6F000E0B6F7EDF00500501001731D026
:1020EE0005012F0E066F000E076F440E086F000ECF
:1020FE00096F140E0A6F000E0B6F6CDF0050050196
:10210E0000171FD005013D0E066F000E076F440E1F
:10211E00086F000E096F140E0A6F000E0B6F5ADF58
:10212E000050050100170DD00401FF51000AB4E064
:10213E00FF51010AC3E0FF51020AD2E0FF51030A28
:08214E00E1E000C500F0120001
:102156000900F5CFE6FF0006FBE10106F9E11200F2
:1021660088D02E50000A0BE1C6C406F5C7C407F591
:10217600210E0501086F000E096F67DF0AD0050101
:10218600C6C406F5C7C407F51B0E086F000E096F17
:102196005CDF2D50000A0AE197C406F598C407F5DE
:1021A600270E086F000E096F50DF09D097C406F599
:1021B60098C407F55A0E086F000E096F46DF59508E
:1021C600000A0AE178C406F579C407F5660E086FB9
:1021D600000E096F3ADF09D078C406F579C407F511
:1021E600600E086F000E096F30DF5850000A0AE1D2
:1021F60059C406F55AC407F54B0E086F000E096F51
:1022060024DF09D059C406F55AC407F5450E086FF0
:10221600000E096F1ADF040E066F040E076F1BEC23
:102226000AF032D05750000A0BE1CCC306F5CDC3F5
:1022360007F5510E0501086F000E096F06DF0AD07B
:102246000501CCC306F5CDC307F53A0E086F010E9E
:10225600096FFBDEF40E066F030E076F1BEC0AF028
:1022660013D0E40E0501066F030E076F1BEC0AF090
:102276000BD00401FF51000AD8B473D7FF51010AED
:0A228600D1E0FF51020AEDE0120062
:102290000101B451450A0AE1B551440A07E1B651BA
:1022A000300A04E1300EB75D2D6E79D0B451450A85
:1022B0000AE1B551440A07E1B651310A04E1300E92
:1022C000B75D596E6CD0B451450A0AE1B551440A64
:1022D00007E1B651320A04E1300EB75D2E6E5FD0D1
:1022E000B451450A0AE1B551440A07E1B651330A2F
:1022F00004E1300EB75D586E52D0B451450A0AE180
:10230000B551440A07E1B651340A04E1300EB75D15
:10231000446F45D0B451450A0AE1B551440A07E17A
:10232000B651350A04E1300EB75D456F38D0B4516F
:10233000560A0AE1B551320A07E1B651560A04E1DC
:10234000300EB75DB16F2BD0B451410A0AE1B551DF
:10235000550A07E1B651540A04E1300EB75DB06F7B
:102360001ED0B451430A0CE1B551310A09E1B6510E
:102370004F0A06E1B7514B0A03E1010E446E0FD03C
:10238000B451430A0CE1B551320A09E1B6514F0A82
:1023900006E1B7514B0A03E1010E00016C6F120018
:1023A000AECF01F0ABA202D0AB98AB8801C000F079
:0223B000120019
:1023B2000F013B6B929492869288928A928C8094BF
:0423C20094801200F1
:1023C600880ED56EF294F184F28A630ED76EC00E33
:0623D600D66ED58E120048
:1023DC00CC0E0101CC6F130ECD6F130ECE6F050E0C
:1023EC00CF6FA00EC86F230EC96F000ECA6F000E00
:1023FC00CB6FFF0ED46FFF0ED56F000ED66F000E95
:10240C00D76FFF0ED06FFF0ED16F000ED26F000E84
:10241C00D36FAC8A900EAB6E948E949C9EAA03D014
:08242C00AECF00F0FBD7120057
:10243400FDDD05DE2CEC0BF0040E0501066F040E29
:08244400076F1BEC0AF0120007
:10244C000501006B03C501F0010E006E015004E0A4
:10245C0000360090FF0FFBD700C0FFF401C5E9FF69
:10246C0002C5EAFF0050EE14016E0152010ED8A411
:10247C00000E006E0551001A1AE00451000804E227
:10248C00C8DDC7DD0407F9D701C5E9FF02C5EAFFBE
:10249C000401FF51EE14016E0152010ED8A4000E7E
:1024AC00006E05010551001A02E0FF0E006F00C519
:0424BC0000F012001A
:1024C000ABEC1CF0B7DF75DFB886030EB06E400EC4
:1024D000AF6EAC8483DF050E0B6E0F0E0C6EF10E2B
:1024E0000D6E0D2EFED70C2EFCD70B2EFAD7F28ECA
:1024F000F28CD08E9E9A9F8A9D8A150E0B6E4B0E83
:102500000C6EBE0E0D6E0D2EFED70C2EFCD70B2EB4
:10251000FAD7000058DF020E3625E16F000E372192
:10252000E26F000E3821E36F000E3921E46F140EC4
:102530003625DD6F000E3721DE6F000E3821DF6F8C
:10254000000E3921E06F010EDA6F010ED96FDC6BDE
:10255000DB6B680E0C6EE40E0D6E0D2EFED70C2E8E
:10256000FCD70000800E0501016F0F0E026F050EF3
:10257000036F320E046F056B69DF005211E0010E2C
:102580000101D919016E01C0D9F10150000A03E11E
:102590000401FD6B03D00401010EFD6FFDC4F3F1D6
:1025A000820E0501016F0F0E026F036B320E046F76
:1025B000056B4CDF005212E0010E0101DB19016EC8
:1025C00001C0DBF10150000A04E1020E0401FE6FBC
:1025D00003D00401030EFE6FFEC4F3F10101D951D3
:1025E000DA1904E1DB51DC1901E114D0F3C1FFF485
:1025F00056DD00520FE18074150E0B6E4B0E0C6E03
:10260000BE0E0D6E0D2EFED70C2EFCD70B2EFAD75C
:102610000000ECD7D9C1DAF1DBC1DCF18094010113
:10262000EC512D1810E1ED5159180DE1EE512E1815
:102630000AE1F051451907E1EF51441904E1F15164
:10264000581801E10FD043C1FFF48DDD2DC0ECF12E
:1026500059C0EDF12EC0EEF145C1F0F144C1EFF1EA
:1026600058C0F1F1800E0501016F0F0E026F040ECC
:10267000036F320E046F056BE9DE005209E00101C1
:10268000432B43510208D8A0436B43C1FFF46BDDD9
:0426900060D7FFD739
:1039560010EE1BF0770E006E020E016EA20EF66ED2
:0E396600370EF76E000EF86EABEC10F012008C
:0200060069038C
:10269400000020007F000B0001880100019301006D
:1026A400039E010007A9010005B4010009BF010050
:1026B40006D5010001E0010003EB010002F6010070
:1026C40005010200060C02000217020002220200A9
:1026D400022D02000338020004430200044E0200EB
:1026E4000459020004640200056F0200047A020027
:1026F4000485020004900200049B020004A6020068
:1027040002B1020002BC020006C7020006D20200A7
:1027140006DD020004E8020007F3020006FE0200E0
:102724000509030006140300061F0300052A03001D
:102734000535030006400300064B0300035603005F
:1027440003610300056C03000477030007820300A0
:10275400068D03000798030005A3030007AE0300DA
:1027640005B9030005C4030005CF030006DA03001E
:1027740006E5030007F0030004FB0300050604005C
:1027840004110400021C04000327040002320400A4
:10279400053D04000548040003530400045E0400DE
:1027A4000469040003740400047F0400048A040020
:1027B4000395040004A0040004AB040001B6040063
:1027C40002C1040004CC040001D7040007E20400A1
:1027D40004ED040004F8040004030500040E0500DD
:1027E4000319050003240500022F0500043A05001F
:1027F4000545050007500500035B05000566050057
:1028040003710500037C050002870500039205009F
:10281400069D050002A8050000000000000000005D
:102824000000000000010101010100010000000599
:10283400050500000000000000000024247E143F71
:10284400121200000000041E05060C140F040400FC
:10285400000000460029002900D60028012801C4F0
:1028640000000000000000060909160919260000EE
:102874000001010100000000000000000402010149
:10288400010101010204000001020202020202012C
:102894000004150E150400000000000000000008EC
:1028A400083E0808000000000000000000000202CA
:1028B4000100000000000000030000000000000010
:1028C40000000000020200000004040202020202EE
:1028D40001010000000609090909090600000000B9
:1028E4000406040404040E0000000007080804029F
:1028F400010F000000000708080608080700000090
:1029040000080C0A091F0808000000000F01010755
:102914000808070000000006010107090906000075
:1029240000000F0804040202010000000006090967
:1029340006090906000000000609090E0808060039
:10294400000000000002020002020000000000007B
:102954000202000202010000000000201C021C20F0
:10296400000000000000003F003F000000000000E5
:1029740000021C201C0200000000070808040200DA
:1029840002000000001C2259555539021C000000A9
:102994000C0C12123F2121000000000709090F113D
:1029A400110F000000001C22010101221C00000084
:1029B400000F11212121110F000000001F01010F40
:1029C40001011F000000001F01010F0101010000AF
:1029D40000001C22013921223C0000000021212199
:1029E4003F21212100000000070202020202070029
:1029F400000000060404040404030000000011099C
:102A04000503050911000000000101010101010F86
:102A1400000000006363555549494100000000214E
:102A2400232529312121000000001C22414141229B
:102A34001C000000000F1111110F01010000000023
:102A44001C22414141221C106000000F11110F058E
:102A54000911000000001E01010E10100F000000FB
:102A6400001F0404040404040000000021212121A7
:102A740021211E0000000021212112120C0C000053
:102A84000000494955555522220000000009090655
:102A94000606090900000000110A0A0404040400DF
:102AA4000000000F08040202010F000000030101EE
:102AB40001010101010103000101020202020204F9
:102AC40004000003020202020202020203000004E4
:102AD4000A110000000000000000000000000000D7
:102AE40000001F00020400000000000000000000BD
:102AF400000006080E090E00000001010107090983
:102B040009070000000000000601010106000000A2
:102B14000808080E0909090E000000000000060953
:102B24000F010E0000000601010701010101000070
:102B3400000000000E0909090E0806000101010742
:102B44000909090900000000010001010101010057
:102B5400000000020003020202020201000101015E
:102B6400090503050900000001010101010101013A
:102B740000000000000037494949490000000000F6
:102B840000070909090900000000000006090909F5
:102B94000600000000000007090909070101000000
:102BA40000000E0909090E080800000000050301D1
:102BB40001010000000000000701020407000000FA
:102BC40000000103010101020000000000000909E6
:102BD40009090E000000000000110A0A0A0400009E
:102BE400000000004949553622000000000000059D
:102BF40002020205000000000000110A0A0A04048F
:102C040002000000000704020107000000040202A1
:102C14000202010202020400020202020202020291
:102C24000202000102020202040202020100000088
:102C34000000261900000000000000030303030342
:032C44000000008D
:102C4700000020007F000B100288010002930100A2
:102C5700029E010005A9010004B4010007BF01009D
:102C670006CA010001D5010003E0010003EB0100E2
:102C770003F6010005010200020C0200031702001F
:102C870002220200032D020005380200034302005E
:102C9700044E02000459020005640200046F02009A
:102CA700057A02000485020005900200059B0200D8
:102CB70002A6020002B1020005BC020005C702001D
:102CC70004D2020004DD020008E8020006F3020055
:102CD70005FE02000509030006140300051F030093
:102CE700052A03000735030007400300034B0300D1
:102CF7000356030006610300056C03000877030011
:102D070007820300078D03000598030007A303004C
:102D170006AE030004B9030005C4030007CF030090
:102D270006DA030009E5030006FB030005060400B5
:102D370005110400031C04000327040002320400E9
:102D4700043D04000548040002530400055E040026
:102D57000569040004740400057F0400048A040064
:102D67000495040005A0040006AB040003B60400A4
:102D770002C1040005CC040003D7040008E20400E4
:102D870006ED040005F8040005030500040E050020
:102D97000419050004240500032F0500053A050062
:102DA7000445050007500500045B0500046605009F
:102DB70004710500027C05000287050003920500E7
:102DC700059D050002A805000000000000000000A6
:102DD70000000000000002020202000200000000E2
:102DE700000300000000000000000000080A1E0A9F
:102DF7000F020000000000040F050E0D0E04000076
:102E0700062515755B58543200000000000E0A0AAB
:102E170036193F000000000001000000000000001C
:102E2700000004040202020204040000000202047B
:102E3700040404040200000000000604000000006F
:102E4700000000000004041F04040000000000004C
:102E57000000000002020000000000000007000060
:102E67000000000000000000000002000000000059
:102E7700000404020202010000000000000E11110C
:102E87000E0000000000000003020207000000001F
:102E97000000000604040F000000000000000E08F8
:102EA7000E0808070000000000080C0A1F080800A9
:102EB700000000000E01060808070000001C020FB2
:102EC70011110E000000000000000F0908040402A1
:102ED7000000000E0A0609110E00000000000000A5
:102EE7000E11111E0804000000000002000002007D
:102EF70000000000000002000002020000000000C5
:102F0700001806061800000000000000001F001F40
:102F170000000000000000030C0C0300000000008C
:102F27000608040200060000000000007CC2B995F4
:102F37007D423C000000080C0A1E1133000000000F
:102F4700001F120E12120F00000000001E030101E5
:102F5700031E00000000001F222222321F00000073
:102F670000001F020E02021F00000000001F020ED9
:102F770002020700000000001E030171233C00004D
:102F870000000067223E22226700000000000702BF
:102F9700020202070000000000070202020202020A
:102FA7000100000037120E0E1A370000000000075C
:102FB700020202121F0000000000C366665A5AE6AA
:102FC700000000000073262A2A32270000000000B4
:102FD7003E634141633E00000000001F12120E02D3
:102FE7000700000000003E634141633E0870000097
:102FF700001F12120E1A3700000000000E01030C0A
:10300700080700000000001F040404040E0000006D
:10301700000077222222221C000000000033221227
:10302700140C00000000000000000093011201AA28
:1030370000AC004C00440000000000000000331208
:103047000C0C123300000000001B110A04040E00D0
:10305700000000001F080404021F00000000060211
:103067000202020202020600000001020202040438
:103077000400000003020202020202020300000031
:10308700040A020000000000000000000000000029
:10309700001F000002000000000000000000000008
:1030A70000000E080E091F0000000003020E121296
:1030B700120E0000000000000E01010106000000D2
:1030C700000C080E0909091E00000000000006098F
:1030D7000F0106000000000C0207020202070000B1
:1030E700000000001E09090F011F11000003021E46
:1030F7001212123F00000000020003020202070042
:1031070000000002000302020202020200000302A2
:103117001A0A060A1F000000000302020202020741
:103127000000000000006F525252FF000000000034
:10313700001F1212123F0000000000000E111111B3
:103147000E0000000000000F1212120E0202000013
:1031570000000E0909090E0808000000000F02020E
:1031670002070000000000000F0906090700000021
:1031770000000207020202060000000000000F0A1A
:103187000A0A1E0000000000000B090A06040000DE
:10319700000000006B292A16100000000000000B39
:1031A7000604060F0000000000000B090A060404CD
:1031B70002000000000F0404020E000000000202DB
:1031C70002020102020202000002020202020202DD
:1031D70002020000020202020402020202000000D0
:1031E700000000160D0000000000000303030303A6
:0331F700000000D5
:1031FA00000020007F000B080288010002930100F2
:10320A00039E010005A9010005B4010006BF0100E3
:10321A0005CA010001D5010003E0010002EB01002B
:10322A0003F6010004010200020C02000417020066
:10323A0002220200042D02000438020002430200A6
:10324A00044E02000459020005640200046F0200E1
:10325A00047A02000485020004900200049B020022
:10326A0002A6020002B1020003BC020004C7020067
:10327A0003D2020004DD020007E8020006F302009E
:10328A0005FE02000509030005140300051F0300DB
:10329A00052A03000535030005400300024B03001D
:1032AA000456030005610300056C0300067703005A
:1032BA0006820300058D03000598030006A3030098
:1032CA0005AE030005B9030004C4030005CF0300DB
:1032DA0005DA030007E5030005F0030004FB030019
:1032EA000506040003110400031C0400022704005D
:1032FA0004320400033D040002480400045304009D
:10330A00045E04000469040004740400047F0400D9
:10331A00038A04000495040004A0040002AB04001C
:10332A0002B6040005C1040002CC040007D7040059
:10333A0004E2040004ED040004F804000403050098
:10334A00040E05000419050002240500042F0500D7
:10335A00043A05000745050004500500045B050012
:10336A000466050003710500027C05000387050059
:10337A0004920500029D0500000000000000000004
:10338A000000000000000202020200020000000029
:10339A00000505000000000000000000141E0A0AD3
:1033AA001F0A00000000040E06061C140E0400008A
:1033BA000000120D0A342C3200000000000C120228
:1033CA00161A1E00000000000101000000000000A3
:1033DA0000000402020202020204000000010202CA
:1033EA0002020202010000000001060000000000C3
:1033FA00000000000000040E0400000000000000AD
:10340A00000000030301000000000000000E00009D
:10341A000000000000000000000003000000000897
:10342A0004040402020101000000000E0A0A0A0A4A
:10343A000E00000000000302020202020000000067
:10344A00000E0A0804020E00000000000E0A04081A
:10345A000B0E000000000004040A0A1E0800000007
:10346A0000000E020E0A0A0E000000000004060EFA
:10347A000A0A0E00000000000F09040404060000F6
:10348A000000000E0A0E0A0A0E00000000000E0AD2
:10349A000A0E0404000000000000000300000300FC
:1034AA000000000000000300030301000000000008
:1034BA0000060600000000000000000E000E0000DA
:1034CA0000000000000000060600000000000000E6
:1034DA00060D0402000200000000003C425A666623
:1034EA007A021C000000040C0C121E3100000000BD
:1034FA00001E120E12121E00000000000E1202021E
:10350A00120E00000000001E121212121E0000000D
:10351A0000001E020E02021E00000000001E02022F
:10352A000E020200000000000E12021A121E000013
:10353A0000000012121E1212120000000000020205
:10354A00020202020000000000080808080807003A
:10355A0000000000120A0E0E121200000000000203
:10356A00020202021E0000000000223636362A221B
:10357A0000000000002226262A3A3200000000003D
:10358A000E121212120E00000000001E12121E026B
:10359A000200000000000E1212121A3E0000000083
:1035AA00001E12121E0A1200000000001E12061847
:1035BA00101E00000000000F0404040404000000B0
:1035CA00000012121212121E000000000011120A4C
:1035DA000A0C040000000000495B5A562626000027
:1035EA00000000130A04040A110000000000090A7E
:1035FA000604040400000000000E080404021F0070
:10360A000000000602020202020206000000010196
:10361A000102020404040000000302020202020280
:10362A000300000000040A0000000000000000007F
:10363A000000000000000700000001020000000076
:10364A00000000000000000E080E090E0000000035
:10365A0002020E0A0A0A0E0000000000000E020210
:10366A00020E0000000008080E0A0A0A0E000000F6
:10367A000000000E0A0E020E0000000006020702F9
:10368A000202020000000000000E0A0A0A0E0806E2
:10369A00000002020E0A0A0A0A00000000020002E2
:1036AA0002020202000000000200020202020202FA
:1036BA0003000002020A06060A1A000000000202BB
:1036CA0002020202020000000000007E4A4A4A4A40
:1036DA000000000000000E0A0A0A0A0000000000AA
:1036EA00000E0A0A0A0E0000000000000E0A0A0A6A
:1036FA000E0202000000000E0A0A0A0E0808000064
:10370A0000000E020202020000000000000E020E7B
:10371A00080F00000000000203020202020000007B
:10372A000000000A0A0A0A0E000000000000090A46
:10373A000A0604000000000000492A363614000078
:10374A00000000000A0604060A0000000000000942
:10375A000A0606040402000000000E0C04020E0011
:10376A000000000402020202020202040000020235
:10377A000202020202020000000102020206020222
:10378A00020100000000000A0E0000000000000014
:08379A00030303030300000018
:0637A20043686569610047
:0637A80056617A69610020
:0637AE0056617A6961001A
:0137B4000014
:0137B5000013
:0737B6005B563256305D0046
:0737BD005B415554315D0032
:0737C4005B563256315D0037
:0137CB0000FD
:0637CC004368656961001D
:0637D20056617A696100F6
:0637D80056617A696100F0
:0137DE0000EA
:0137DF0000E9
:0137E00000E8
:0637E10043686569610008
:0637E70043686569610002
:0637ED0056617A696100DB
:0137F30000D5
:0737F4004E6F726D616C0065
:1037FB00537461747573205632562020202020207C
:06380B00202020203A00FD
:043811004D616E0097
:073815004E6F726D616C0043
:10381C004D6F646F204D616E2D41757420203A0000
:10382C004E762E2043697374205072696E63203A71
:01383C00008B
:06383D0056617A6961008A
:1038430052656C65205465726D69636F2042433A1B
:013853000074
:103854004E6976656C204361697861732044276101
:043864006775610023
:103868004E6976656C2043616978617320442761ED
:04387800677561000F
:07387C005B415554305D0073
:103883004E762E20437820527561203032203A0044
:1038930052656C65205465726D69636F2042503ABE
:0138A3000024
:0438A4004F66660005
:0638A80056617A6961001F
:0E38AE004D697363656C6C616E656F757300B8
:0138BC00000B
:0438BD000000000007
:0638C10043686569610027
:0238C70090016E
:0138C90000FE
:0138CA0000FD
:0138CB0000FC
:0138CC0000FB
:1038CD004E762E2043697374204120202020202025
:0438DD0020203A006D
:0638E10056617A696100E6
:0638E70056617A696100E0
:0638ED0056617A696100DA
:1038F3004E762E20436973742042202020202020FE
:0439030020203A0046
:103907004E762E20437820527561202020202020DB
:023917003A0074
:10391900FC014A038703CE02AF020C03ED022B031D
:02392900A603F3
:10392B001B0233041404BF04900471045204DE041C
:02393B009002F8
:06393D000C0C1E1E3F3FB2
:06394300C50369024A02FF
:0439490088024202AC
:04394D00AF04B70408
:04395100F4013A0241
:020000040030CA
:0D000100331F3CFFBD81FF0FC00FE00F401B
:00000001FF
