:04000000A7EF13F063
:1000080000C018F001C017F002C016F003C015F0C8
:10001800E1CF19F0E2CF1AF0F2A41DD0F2AA1BD05A
:10002800010E01011125006E000E1221016E000E55
:100038001321026E000E1421036E00C011F101C0DD
:1000480012F102C013F103C014F1630ED76EC00E93
:10005800D66EF2942ED09EAA2CD09DAA2AD015EC4A
:1000680012F000C0F6F500505B0A09E10B0E020120
:100078001F6F020E206F010E0101056F19D00501D7
:10008800F6515D0A08E101010551010A04E1056B19
:1000980090EC11F00DD001010551010A09E11FC2D0
:1000A800E1FF20C2E2FFF6C5E6FF02011F4B202B4D
:1000B8009E9A18C000F017C001F016C002F015C0D3
:0C00C80003F019C0E1FF1AC0E2FF1100B4
:0C00D4001A0E0D6E0D2EFED7000012005B
:0A00E000F9DF8A88F7DF8A98120022
:0C00EA00020E0D6E0D2EFED7000012005D
:1000F600120E006E000E016E830E0024E16E0F0ECE
:100106000120E26EFF0EE66EEDDFECDF8A848A9850
:100116008A868A88DCDF83CFF5F58A988A96E2DFBD
:10012600E1DF120E006E000E016E830E0024E16EFA
:0E0136000F0E0120E26EE66AF5C500F0120021
:0E0144008A988A848A96F5C583FFC8DF120068
:100152007F0E0501F515006E00C0F5F58A948A96AA
:10016200BF0E001600C0F5F5008C00C0F5F500C00A
:0601720083FFB5DF12005F
:100178007F0E0501F515016E01C0F5F501AC03D040
:0C0188008A808A9202D08A908A8212003B
:100194008A948A96B80E0501F511836E9FDF1200CA
:1001A400F250026EF29E0500FF6A0150FE6E00508E
:0801B400FD6E02BEF28E120086
:1001BC000B6A0A6A096A00500402F4CF09F0F3CF03
:1001CC0008F001500502F4CF0BF0F3CF0AF0005009
:1001DC000502F3500926F4500A22E86A0B2201505A
:1001EC000402F3500926F4500A22E86A0B2208C0D4
:1001FC0000F009C001F00AC002F00BC003F01200BD
:10020C00000E0501E75D0AE3E7517F0807E3000EE6
:10021C00E85D04E3E8513F0801E301D04AD0E7C5AB
:10022C00F5F5A4DFE8C5F5F5F533F59FF533F59F46
:10023C00F533F59FA9DFE7C5F5F585DF56DF00C07F
:10024C00ECF553DF00C0ECF5E8C5F5F5F533F59F9B
:10025C00F533F59FF533F59F97DFE7C5F5F573DFBC
:10026C00070EE815006E00C0EAF500C001F0010EA3
:10027C00006E015004E000360090FF0FFBD700C069
:10028C00EAF5001CEB6F09D0EB51EC170FD0EA51DB
:10029C00EC130CD0EA51EC1B09D0E951000AF4E044
:1002AC00E951010AF4E0E951020AF4E0ECC5F5F574
:0402BC0043DF12000A
:1002C000E7C535F2E8C536F2E9C537F2020E050199
:1002D000E725F66E000EE821F76E000EE921F86EB4
:1002E0000900F5CF04F0030EE725F66E000EE821B5
:1002F000F76E000EE921F86E0900F5CF03F003C098
:1003000001F0006A045000240101FA6F000E012080
:10031000FB6F040E0501E725F66E000EE821F76E6F
:10032000000EE921F86E0900F5CF04F0050EE7256F
:10033000F66E000EE821F76E000EE921F86E090056
:10034000F5CF03F003C001F0006A0450002401015E
:10035000F86F000E0120F96F060E0501E725F66E15
:10036000000EE821F76E000EE921F86E0900F5CFC6
:10037000FCF1000E0101FD6FEAC501F2000E020161
:10038000026FEBC5FEF1010E0101046FEE6BEF6B26
:02039000120059
:10039200250E0501F36F020EF46F000E006EEC5194
:1003A200005C02E1EB51000843E223C2E1FF24C2F8
:1003B200E2FFE7C5E6FFE8C5E6FFE9C5E6FFEAC5F5
:1003C200E6FFEBC5E6FFECC5E6FFEF0EE66E050EB7
:1003D200E66E21C200F022C201F0E3DE00C0F1F5B8
:1003E20001C0F2F50501ED6BEE6BF051EE5D02E13D
:1003F200EF51ED5D11E2F1C5E9FFF2C5EAFFF3C588
:10040200E1FFF4C5E2FFEECFE6FFF34BF42BF14B35
:10041200F22BED4BEE2BE9D7EF51EB5FF051EC5B9A
:10042200EF51E727F051E823000EE923EA23B5D77D
:020432001200B6
:100434000501D56BD66BD76B01010451000A0DE1A0
:10044400040E0501E76F290EE86F000EE96F010E37
:10045400EA6FEB6B33DF010E046F000E006EFB518D
:10046400005C03E1FA510501CD5D01E2FDD0000E0F
:100474000101F95D04E10501CD510101F85D01E2DD
:10048400F3D0FA510501CD5D016EFBC102F0000EFF
:10049400025601C003F002C004F003360390043690
:1004A400033603900436080E02013525006E000E53
:1004B4003621016E000E3721026E000E056E0050CB
:1004C4000326015004220250052203C0F6FF04C093
:1004D400F7FF05C0F8FF0900F5CFD5F5010E032499
:1004E400F66E000E0420F76E000E0520F86E09006B
:1004F400F5CF00F000C006F0000E076E086E096E1E
:10050400020E0324F66E000E0420F76E000E052082
:10051400F86E0900F5CF03F003C001F0006A000E85
:10052400026E036E06500026075001220850022274
:1005340009500322355100240501D26F02013651BE
:1005440001200501D36F0201375102200501D46F48
:100554000101FE51000A45E1F0C1D0F50501CF6B60
:10056400000E006E0101FD51005C03E1FC51050128
:10057400CF5D2EE20501F6C1D6F5D16BCE6BD55118
:10058400CE5D23E2D151000A10E1D2C5F6FFD3C5F6
:10059400F7FFD4C5F8FF0900F5CFD7F5010ED22730
:1005A400000ED323D423010ED16FD151D715006E81
:1005B40007E0D6C5E7F5D0C5E8F501C2E9F524DEC4
:1005C400D62BD137D191CE2BDAD7D02BCF2BC8D77E
:1005D4000501D651010F0101F66FF76B000EF723E9
:1005E40043D0F6C1D0F50501CF6B000E006E0101BA
:1005F400FD51005C03E1FC510501CF5D2EE20501D4
:10060400F0C1D6F5D16BCE6BD551CE5D23E2D1517D
:10061400000A10E1D2C5F6FFD3C5F7FFD4C5F8FF31
:100624000900F5CFD7F5010ED227000ED323D4232A
:10063400010ED16FD151D715006E07E0D0C5E7F593
:10064400D6C5E8F501C2E9F5DFDDD607D137D1918A
:10065400CE2BDAD7D02BCF2BC8D70501D605010175
:0A066400F06FF16B000EF15B120065
:10066E00CDC5F6F1CEC5F7F1CFC5F0F1D0C5F1F19C
:02067E00120068
:100680000501E26BE36BE46BE56B0101FB510501D6
:10069000CE5D04E10101FA510501CD5D01E2E2D137
:1006A000CE510101F95D04E10501CD510101F85D73
:1006B00001E2D8D1FA510501CD5D036E0101FB5174
:1006C0000501CE59046E03C000F004C001F00036ED
:1006D00000900136003600900136080E0101F22527
:1006E0000501E76F000E0101F3210501E86F000E1F
:1006F0000101F4210501E96F000E0101F521050159
:10070000EA6F0050E7270150E823000EE923EA23AF
:10071000040EEB6F000EEC6F3CDE250EE06F020E58
:10072000E16FE0C5E9FFE1C5EAFFEECFE6F5E6C51A
:10073000E2F5010EE025E96E000EE121EA6EEECF52
:1007400004F0000E056E066E076E020EE025E96EDF
:10075000000EE121EA6EEECF03F003C001F0006A63
:10076000000E026E036E0450002605500122065052
:1007700002220750032200500101F2250501D46F27
:1007800001500101F3210501D56F02500101F4214F
:100790000501D66F03500101F5210501D76FE6C5AC
:1007A00000F00032009E0032009E0032009E000EDB
:1007B000016EFCC104F0FDC105F000DD00C0DAF5FA
:1007C00001C0DBF5070EE615006E08E00101FC51E3
:1007D0000501DA270101FD510501DB23DAC5DEF54C
:1007E000DBC5DFF523C2E1FF24C2E2FFD4C5E6FF8B
:1007F000D5C5E6FFD6C5E6FFD7C5E6FFDAC5E6FFF5
:10080000DBC5E6FFD80EE66E050EE66E21C200F0EF
:1008100022C201F0C7DC00C0E0F501C0E1F505012E
:10082000D851D427D951D523000ED623D723D85158
:10083000DA5FD951DB5BDC6BDD6B0101FE51000A35
:10084000D8A486D0F0C1D1F5F1C1D2F50501D06BA5
:10085000000E006E0101FD51005C03E1FC51050139
:10086000D05D6BE20501F6C1E3F5F7C1E4F5D36BAA
:10087000CF6BE251CF5D5DE2D351000A49E1DC4B21
:10088000DD2BDF51D95D02E1DE51D85D37E2DD516C
:10089000D95D02E1DC51D85D31E2010EDC6F000E62
:1008A000DD6F23C2E1FF24C2E2FFD4C5E6FFD5C558
:1008B000E6FFD6C5E6FFD7C5E6FFDAC5E6FFDBC52E
:1008C000E6FFD80EE66E050EE66E21C200F022C2EB
:1008D00001F068DC00C0E0F501C0E1F5DAC5DEF545
:1008E000DBC5DFF50501D851D427D951D523000E3A
:1008F000D623D723D851DA5FD951DB5BE0C5E9FFB6
:10090000E1C5EAFFEECFE5F5E04BE12B010ED36F39
:10091000D351E515006E07E0E3C5E7F5D1C5E8F56D
:1009200001C2E9F573DCE34BE42BD337D391CF2B32
:10093000A0D7D14BD22BD02B8BD70501010EE325AD
:100940000101F66F000E0501E4210101F76F8AD065
:10095000F6C1D1F5F7C1D2F50501D06B000E006EDE
:100960000101FD51005C03E1FC510501D05DD8B0EF
:100970006FD00501F0C1E3F5F1C1E4F5D36BCF6BA6
:10098000E251CF5D61E2D351000A4AE1DC4BDD2B3D
:10099000DF51D95D02E1DE51D85D38E2DD51D95D2C
:1009A00002E1DC51D85D32E2010EDC6F000EDD6F3A
:1009B00023C2E1FF24C2E2FFD4C5E6FFD5C5E6FFAE
:1009C000D6C5E6FFD7C5E6FFDAC5E6FFDBC5E6FF1D
:1009D000D80EE66E050EE66E21C200F022C201F0CE
:1009E000D2EC00F000C0E0F501C0E1F5DAC5DEF5BB
:1009F000DBC5DFF50501D851D427D951D523000E29
:100A0000D623D723D851DA5FD951DB5BE0C5E9FFA4
:100A1000E1C5EAFFEECFE5F5E04BE12B010ED36F28
:100A2000D351E515006E08E0D1C5E7F5E3C5E8F55B
:100A300001C2E9F506EC01F0010EE35F000EE45B94
:100A4000D337D391CF2B9CD7D14BD22BD02B86D75A
:100A50000501010EE35D0101F06F000E0501E4598F
:060A60000101F16F12001C
:100A6600000E0501AD5D02E1800EAC5D01E33ED0F6
:100A7600000EAF5D02E1400EAE5D01E337D0B06B14
:100A8600B16BACC5CDF5ADC5CEF5AEC5CFF5AFC531
:100A9600D0F5EADDB051AA25E96EB151AB21EA6E77
:100AA600EE5224E00101EE51EF1112E00501B051C2
:100AB600AA25E96EB151AB21EA6EEECFCDF5000E57
:100AC600CE6F000ECE6FD9DD0501B04BB12B0DD028
:100AD6000501B051AA25E96EB151AB21EA6EEECF00
:0E0AE600CDF5A5DC0501B04BB12BD4D7120025
:100AF4000501AC5101011125026E0501AD51010141
:100B04001221036E000E1321046E000E1421056ED3
:100B1400000E341902E1000E331913E01451055C80
:100B240008E11351045C05E11251035C02E1115127
:100B3400025C03E2010E016E01D0016A015201E080
:100B440010D0AAC5E9FFABC5EAFFEE50010A08E1DF
:100B5400AAC5E1FFABC5E2FFE66A010E006E02D052
:060B6400D7D7006A120061
:0E0B6A00ACB202D00000FCD7AAC5ADFF12004D
:100B78000501BF6BC06BC16BC26BC36BC46BC56B2C
:100B8800C66BAE51AA25006EAF51AB21016E010EA6
:100B9800005C026E000E0158036E000E006E0350DA
:100BA800005C02E102507F0807E2AA518008AE6F9C
:100BB800ABC5AFF5000EAF57B051AC25006EB151C3
:100BC800AD21016E010E005C026E000E0158036E2D
:100BD800000E006E0350005C02E102503F0807E27D
:100BE800AC514008B06FADC5B1F5000EB157ACC5FA
:100BF80000F0ADC501F001320032019E0132003231
:100C0800019E01320032019E00C0B9F5B051AC25F9
:100C1800056EB151AD21066E010E055C036E000E26
:100C28000658046E03C000F004C001F0013200321F
:100C3800019E01320032019E01320032019E00C045
:100C4800BAF5070EAC15006EADC501F0000E011621
:100C580000C0BCF5070E0514006E06C001F0000EBA
:100C6800011600C0BDF5B551B15D02E1B451B05DEA
:100C780003E2BAC5BEF51BD0B451AC25006EB55120
:100C8800AD21016E010E005C036E000E0158046E6A
:100C980003C000F004C001F001320032019E0132AD
:100CA8000032019E01320032019E00C0BEF5070EDF
:100CB800B415016EB5C502F0000E0216000E02183A
:100CC80002E1000E011818E1B4C500F0B5C501F045
:100CD80001320032019E01320032019E013200329F
:100CE800019EB2C504F0B3C505F0DEEC00F000C00B
:100CF800C9F501C0CAF519D0B4C500F0B5C501F0F1
:100D080001320032019E01320032019E013200326E
:100D1800019E004A012AB2C504F0B3C505F0DEEC15
:100D280000F000C0C9F501C0CAF5B9C5BFF5000E8D
:100D3800C06F000E006EC051005C02E1BF51BA5D89
:100D4800D8A003D1C76BC86BC16BC26BAF51C25D72
:100D580002E1AE51C15DD8B0E7D0C151AA25F56F07
:100D6800BCEC00F0BFC5F5F5CAEC00F0B351C25DAC
:100D780002E1B251C15D3DE2000E006EC051005C5F
:100D880002E1BF51BE5D35E3000EC01902E1B95161
:100D9800BF1902E1CB6B12D0C551C725006EC651F1
:100DA800C821016E0050B625F66E0150B721F76EC6
:100DB800000EB821F86E0900F5CFCBF5CA51C45D15
:100DC80002E1C951C35D02E3CC6B12D0C351C72500
:100DD800006EC451C821016E0050B625F66E015050
:100DE800B721F76E000EB821F86E0900F5CFCCF5E3
:100DF80002D0CC6BCB6BCCC5BBF5BC5100081AE25A
:100E0800BC510808006E016A000E015ACBC5BBF53B
:100E1800005004E0BB33BB9FFF0FFBD7BCC501F0FC
:100E2800CCC500F0015004E000360090FF0FFBD75E
:100E38000050BB13000EC01902E1B951BF192DE1D2
:100E4800BC5100082AE2C151AA25F56FA9EC00F0AF
:100E58007BEC00F07BEC00F0BC510808016E026AE4
:100E6800000E025A01C002F0FF0E016E025004E0AB
:100E78000132019EFF0FFBD701500014026EBCC562
:100E880001F0FF0E006E015004E000360090FF0FE5
:100E9800FBD70050BB170250BB13000EC01902E16C
:100EA800BA51BF192DE1BD5100082AE2C151AA2546
:100EB800F56FA9EC00F07BEC00F07BEC00F0BDC511
:100EC80002F0FF0E016E025004E001360190FF0FA0
:100ED800FBD701500014026EBD510808006E016A6C
:100EE800000E015A00C001F0FF0E006E015004E030
:100EF8000032009EFF0FFBD70050BB170250BB13F8
:100F0800B351C25D02E1B251C15D02E2C74BC82BC9
:100F1800C151AA25F56FA9EC00F0BBC5F5F5A2EC07
:100F280000F0C14BC22B12D7000EC05D02E1BE51CA
:100F3800BF5D08E2C3C5C5F5C4C5C6F5B251C32730
:0C0F4800B351C423BF4BC02BF4D61200E1
:100F5400800E0501AB19006E800E005C02E1000EEC
:100F6400AA5D02E2AA6BAB6B800E006E800EAB1919
:100F7400005C02E1AA517F0804E27F0EAA6F000E12
:100F8400AB6F800EAF19006E800E005C02E1000EA4
:100F9400AE5D02E2AE6BAF6B800E006E800EAF19D9
:100FA400005C02E1AE517F0804E27F0EAE6F000EDA
:100FB400AF6F800EAD19006E800E005C02E1000E72
:100FC400AC5D02E2AC6BAD6B800E006E800EAD19B1
:100FD400005C02E1AC513F0804E23F0EAC6F000E2E
:100FE400AD6F800EB119006E800E005C02E1000E40
:100FF400B05D02E2B06BB16B800E006E800EB11971
:10100400005C02E1B0513F0804E23F0EB06F000EF5
:10101400B16FAA51AE5D016EAB51AF59026E01C002
:10102400B3F502C0B4F5AC51B05DB56FAD51B15973
:10103400B66F800E0218006E800E005C02E1000E96
:10104400015C0BE2B3510008B36FB451000EB45706
:10105400FF0EB76FFF0EB86F04D0010EB76F000E0E
:10106400B86F800EB619006E800E005C02E1000EAF
:10107400B55D0BE2B5510008B56FB651000EB65719
:10108400FF0EB96FFF0EBA6F04D0010EB96F000ED8
:10109400BA6FB337B391B437B537B591B637AAC57C
:1010A400E7F5ACC5E8F5B2C5E9F506EC01F0800E4C
:1010B400B619006E800EB419005C02E1B351B55D3F
:1010C4003EE2B3C500F0B4C501F001320032019E26
:1010D40001BC018E0050B55DBB6F0150B659BC6FA9
:1010E400AB51AF1902E1AE51AA1928E0800EBC1928
:1010F400006E800E005C02E1000EBB5D08E3B95196
:10110400AC27BA51AD23B351BB5FB451BC5BB751EB
:10111400AA25006EB851AB21016E00C0AAF501C02A
:10112400ABF5B551BB27B651BC2300C0E7F5ACC540
:10113400E8F5B2C5E9F506EC01F0D2D73DD0B5C566
:1011440000F0B6C501F001320032019E01BC018EEF
:101154000050B35DBB6F0150B459BC6FAD51B119B0
:1011640002E1B051AC1928E0800EBC19006E800E6B
:10117400005C02E1000EBB5D08E3B751AA27B85139
:10118400AB23B551BB5FB651BC5BB951AC25006E06
:10119400BA51AD21016E00C0ACF501C0ADF5B3513B
:1011A400BB27B451BC23AAC5E7F500C0E8F5B2C516
:0A11B400E9F506EC01F0D2D71200B5
:1011BE000C0E0501A425E96E000EA521EA6EEE5077
:1011CE00010A55E1030EA425E96E000EA521EA6E73
:1011DE00EECFAAF5000EAB6F000EAB6F040EA4257A
:1011EE00E96E000EA521EA6EEECFACF5000EAD6FE6
:1011FE00000EAD6F050EA425E96E000EA521EA6E58
:10120E00EECFAEF5000EAF6F000EAF6F060EA4253B
:10121E00E96E000EA521EA6EEECFB0F5000EB16FAD
:10122E00000EB16F070EA425E96E000EA521EA6E21
:10123E00EECFB2F5000EB36F000EB36F080EA425FD
:10124E00E96E000EA521EA6EEECFB4F5000EB56F75
:10125E00000EB56F090EA425E96E000EA521EA6EEB
:10126E00EECFB6F5EECFB7F5EECFB8F57EDC1200C9
:10127E000D0E0501A425E96E000EA521EA6EEE50B5
:10128E00010A3CE1090EA425E96E000EA521EA6EC5
:10129E00EECFE7F5EECFE8F5EECFE9F50C0EA4258F
:1012AE00E96E000EA521EA6EEECFEAF5EB6B60EC6F
:1012BE0001F0070E0501A425E96E000EA521EA6EC8
:1012CE00EECFAAF5EECFABF5030EA425E96E000E18
:1012DE00A521EA6EEECFACF5000EAD6F000EAD6F30
:1012EE00040EA425E96E000EA521EA6EEECFAEF532
:0E12FE00000EAF6F000EAF6F33EC05F0120064
:10130C000101FF6BEE6BEF6B939A9398939493960A
:10131C00939093928A9A120E006E000E016E830EB9
:10132C000024E16E0F0E0120E26EE66A8A948A9622
:10133C008A908A828A8A3F0E836E70EC00F0C00E0F
:10134C00836E70EC00F08A808A923F0E836E70EC94
:0C135C0000F0C00E836E70EC00F0120078
:101368008A908A820501A66BA651070810E3A6C5D4
:10137800F5F5CAEC00F0A56BA5513F0806E3A4C536
:10138800F5F5A2EC00F0A52BF7D7A62BEDD78A929E
:101398008A80A66BA651070810E3A6C5F5F5CAEC26
:1013A80000F0A56BA5513F0806E3A4C5F5F5A2EC2E
:0C13B80000F0A52BF7D7A62BEDD71200F4
:1013C400070E0501A425E96E000EA521EA6EEE5074
:1013D400010A33E1030EA425E96E000EA521EA6E8D
:1013E400EECFAAF5000EAB6F000EAB6F040EA42572
:1013F400E96E000EA521EA6EEECFACF5000EAD6FDE
:10140400000EAD6F050EA425E96E000EA521EA6E4F
:10141400EECFAEF5000EAF6F000EAF6F060EA42533
:10142400E96E000EA521EA6EEECFB0F5000EB16FA5
:0C143400000EB16F010EB26F8BDD1200D4
:10144000A4C5E9FFA5C5EAFFEE50000A0CE0A4C55B
:10145000E9FFA5C5EAFFEECFAAF5B5EC05F0050159
:10146000A44BA52BEDD7A6C5AAF5A7C5ABF5A8C576
:0C147000ACF5A9C5ADF57AEC05F0120052
:10147C00090E05015E6F000E5F6FDF0E606F3B0E95
:10148C00616F000E626F636B646B020E686F000E0F
:10149C00696F130E6A6F3C0E6B6F000E6C6F0B0E48
:1014AC005D6F090E816F000E826FF10E836F3B0E24
:1014BC00846F000E856F010E866F000E876F060E0F
:1014CC00886F000E896F000E8A6F020E8B6F000EF4
:1014DC008C6F1B0E8D6F3C0E8E6F000E8F6F0C0E73
:1014EC00806F050E716F000E726F030E736F3C0EE2
:1014FC00746F000E756F766B776B020E7B6F000E40
:10150C007C6F170E7D6F3C0E7E6F000E7F6F070E8B
:10151C00706F5D0E0401366F050E376F386B060E5B
:10152C00396F190E3A6F3D0E3B6F0C0E3C6F010E6E
:10153C00436F010E446F8E0E3D6F010E3E6FB70E62
:10154C00066E2E0E076E000E086E06C03FF407C026
:10155C0040F408C041F4010E426F456B466B476B7B
:10156C00486B496B4A6B4B6B4C6B4D6B4E6B4F6BBB
:10157C00506B516B526B536B546B5D0E556F050E6C
:10158C00566F010E576F060E586F260E596F3D0E93
:10159C005A6F0C0E5B6F010E626F010E636F680E5B
:1015AC005C6F010E5D6F06C05EF407C05FF408C08F
:1015BC0060F4010E616F646B656B666B676B686BD7
:1015CC00696B6A6B6B6B6C6B6D6B6E6B6F6B706B53
:1015DC00716B726B736B5D0E746F050E756F020E13
:1015EC00766F060E776F320E786F3D0E796F0C0E9C
:1015FC007A6F010E816F010E826F560E7B6F010E9A
:10160C007C6F06C07DF407C07EF408C07FF4010E29
:10161C00806F836B846B856B866B876B886B896B38
:10162C008A6B8B6B8C6B8D6B8E6B8F6B906B916BEA
:10163C00926B5D0E176F050E186F030E196F5D0E12
:10164C001A6F0D0E1B6F160E1C6F0C0E1D6F010EFC
:10165C00246F010E256F500E1E6F010E1F6F06C0FA
:10166C0020F407C021F408C022F4010E236F266B6E
:10167C00276B286B296B2A6B2B6B2C6B2D6B2E6BB2
:10168C002F6B306B316B326B336B346B356B5D0E98
:10169C000301BA6F050EBB6F040EBC6F5D0EBD6F00
:1016AC00190EBE6F160EBF6F0C0EC06F010EC76FFA
:1016BC00010EC86F880EC16F010EC26F06C0C3F356
:1016CC0007C0C4F308C0C5F3010EC66FC96BCA6B63
:1016DC00CB6BCC6BCD6BCE6BCF6BD06BD16BD26B32
:1016EC00D36BD46BD56BD66BD76BD86B5D0ED96FB8
:1016FC00050EDA6F050EDB6F5D0EDC6F260EDD6FEF
:10170C00160EDE6F0C0EDF6F010EE66F010EE76F2B
:10171C00820EE06F010EE16F06C0E2F307C0E3F347
:10172C0008C0E4F3010EE56FE86BE96BEA6BEB6B59
:10173C00EC6BED6BEE6BEF6BF06BF16BF26BF36BC9
:10174C00F46BF56BF66BF76B5D0EF86F050EF96FBE
:10175C00060EFA6F5D0EFB6F320EFC6F160EFD6FF0
:10176C000C0EFE6F010E0401056F010E066F7C0E50
:10177C000301FF6F010E0401006F06C001F407C0E6
:10178C0002F408C003F4010E046F076B086B096BBD
:10179C000A6B0B6B0C6B0D6B0E6B0F6B106B116B79
:1017AC00126B136B146B156B166B5D0E936F050E32
:1017BC00946F070E956F060E966F0D0E976F3C0E7D
:1017CC00986F0C0E996F010EA06F010EA16FA20EF7
:1017DC009A6F010E9B6F06C09CF407C09DF408C065
:1017EC009EF4010E9F6FA26BA36BA46BA56BA66BF3
:1017FC00A76BA86BA96BAA6BAB6BAC6BAD6BAE6B31
:10180C00AF6BB06BB16B5D0E05012E6F050E2F6FBC
:10181C00080E306F060E316F010E326F510E336FA2
:10182C000A0E346F010E3B6F010E3C6FD40E356FF8
:10183C00010E366F6A0E036E340E046E000E056ECA
:10184C0003C037F504C038F505C039F5010E3A6F01
:10185C003D6B3E6B3F6B406B416B426B436B446B20
:10186C00456B466B476B486B496B4A6B4B6B4C6BD0
:10187C005D0E4D6F050E4E6F090E4F6F030E506FC0
:10188C003D0E516F770E526F3D0E536F010E546F1C
:10189C005D0E556F050E566F0A0E576F030E586F7F
:1018AC000C0E596F770E5A6F0C0E5B6F010E5C6F3E
:1018BC00800E0F6F050E106F116B060E126F190E46
:1018CC00136F460E146F0C0E156F010E1C6F010E6C
:1018DC001D6FC30E166F010E176F06C018F507C0EB
:1018EC0019F508C01AF5010E1B6F1E6B1F6B206BD0
:1018FC00216B226B236B246B256B266B276B286B60
:10190C00296B2A6B2B6B2C6B2D6B800E0401B26F29
:10191C00050EB36F010EB46F060EB56F260EB66FC3
:10192C00450EB76F0C0EB86F010EBF6F010EC06F76
:10193C00B30EB96F010EBA6F06C0BBF407C0BCF48E
:10194C0008C0BDF4010EBE6FC16BC26BC36BC46B20
:10195C00C56BC66BC76BC86BC96BCA6BCB6BCC6BDF
:10196C00CD6BCE6BCF6BD06B800ED16F050ED26F63
:10197C00020ED36F060ED46F320ED56F450ED66F96
:10198C000C0ED76F010EDE6F010EDF6F3C0ED86FA1
:10199C00010ED96F06C0DAF407C0DBF408C0DCF422
:1019AC00010EDD6FE06BE16BE26BE36BE46BE56BFF
:1019BC00E66BE76BE86BE96BEA6BEB6BEC6BED6B77
:1019CC00EE6BEF6B800EF06F050EF16F030EF26F86
:1019DC005D0EF36F0D0EF46F1F0EF56F0C0EF66FA0
:1019EC00010EFD6F010EFE6FB90EF76F000EF86F52
:1019FC0006C0F9F407C0FAF408C0FBF4010EFC6F42
:101A0C00FF6B0501006B016B026B036B046B056BC9
:101A1C00066B076B086B096B0A6B0B6B0C6B0D6B16
:101A2C000E6B800E0201AA6F050EAB6F040EAC6F2D
:101A3C005D0EAD6F190EAE6F1F0EAF6F0C0EB06F4B
:101A4C00010EB76F010EB86FB20EB16F000EB26F10
:101A5C0006C0B3F207C0B4F208C0B5F2010EB66FFF
:101A6C00B96BBA6BBB6BBC6BBD6BBE6BBF6BC06B2E
:101A7C00C16BC26BC36BC46BC56BC66BC76BC86BDE
:101A8C00800EC96F050ECA6F050ECB6F5D0ECC6F45
:101A9C00260ECD6F120ECE6F0C0ECF6F010ED66FC1
:101AAC00010ED76FC00ED06F000ED16F06C0D2F2F0
:101ABC0007C0D3F208C0D4F2010ED56FD86BD96B26
:101ACC00DA6BDB6BDC6BDD6BDE6BDF6BE06BE16BC6
:101ADC00E26BE36BE46BE56BE66BE76B800EE86F38
:101AEC00050EE96F060EEA6F5D0EEB6F320EEC6FB2
:101AFC000D0EED6F0C0EEE6F010EF56F010EF66F05
:101B0C00D50EEF6F000EF06F06C0F1F207C0F2F2C7
:101B1C0008C0F3F2010EF46FF76BF86BF96BFA6B0C
:101B2C00FB6BFC6BFD6BFE6BFF6B0301006B016BC6
:101B3C00026B036B046B056B066B800E02018B6FE3
:101B4C00050E8C6F070E8D6F060E8E6F0D0E8F6F40
:101B5C00450E906F0C0E916F010E986F010E996FE0
:101B6C00C40E926F000E936F06C094F207C095F2EC
:101B7C0008C096F2010E976F9A6B9B6B9C6B9D6BDA
:101B8C009E6B9F6BA06BA16BA26BA36BA46BA56BE5
:101B9C00A66BA76BA86BA96B800E466F050E476FE3
:101BAC00080E486F200E496F010E4A6F3B0E4B6FAB
:101BBC000A0E4C6F010E536F010E546F6E0E4D6F6B
:101BCC00000E4E6F03C04FF204C050F205C051F22C
:101BDC00010E526F556B566B576B586B596B5A6B9A
:101BEC005B6B5C6B5D6B5E6B5F6B606B616B626B9D
:101BFC00636B646B800E836F050E846F090E856FAB
:101C0C00030E866F3D0E876F770E886F3D0E896FC2
:101C1C00010E8A6F800E0301076F050E086F0A0E06
:101C2C00096F030E0A6F0C0E0B6F770E0C6F0C0EF8
:101C3C000D6F010E0E6F800E0201656F050E666F43
:101C4C000B0E676F750E686F290E696F060E6A6F43
:101C5C00060E6B6F060E6C6F060E6D6F0D0E006E22
:101C6C003C0E016E000E026E00C06EF201C06FF2EF
:101C7C0002C070F2716B010E726F736B746B756BCB
:101C8C00766B776B786B796B7A6B7B6B7C6B7D6B24
:101C9C007E6B7F6B806B816B826B700E03015D6F53
:101CAC00050E5E6F5F6B5D0E606F0D0E616F160E35
:101CBC00626F0C0E636F010E6A6F010E6B6F680E14
:101CCC00646F000E656F06C066F307C067F308C04B
:101CDC0068F3010E696F6C6B6D6B6E6B6F6B706B79
:101CEC00716B726B736B746B756B766B776B786BEC
:101CFC00796B7A6B7B6B700E7C6F050E7D6F010EB2
:101D0C007E6F060E7F6F0D0E806F3D0E816F0C0E79
:101D1C00826F010E896F010E8A6F7C0E836F000E2D
:101D2C00846F06C085F307C086F308C087F3010EE5
:101D3C00886F8B6B8C6B8D6B8E6B8F6B906B916BD1
:101D4C00926B936B946B956B966B976B986B996B83
:101D5C009A6B700E9B6F050E9C6F020E9D6F060E9C
:101D6C009E6F010E9F6F510EA06F0A0EA16F010E98
:101D7C00A86F010EA96F9E0EA26F000EA36F03C079
:101D8C00A4F304C0A5F305C0A6F3010EA76FAA6BBC
:101D9C00AB6BAC6BAD6BAE6BAF6BB06BB16BB26B6B
:101DAC00B36BB46BB56BB66BB76BB86BB96B700EC2
:101DBC002E6F050E2F6F030E306F030E316F3D0E1D
:101DCC00326F770E336F3D0E346F010E356F700E20
:101DDC00366F050E376F040E386F030E396F0C0E0D
:101DEC003A6F770E3B6F0C0E3C6F010E3D6F700E11
:101DFC003E6F050E3F6F050E406F060E416F190EBC
:101E0C00426F3C0E436F0C0E446F010E4B6F010E74
:101E1C004C6F8C0E456F000E466F06C047F307C023
:101E2C0048F308C049F3010E4A6F4D6B4E6B4F6B74
:101E3C00506B516B526B536B546B556B566B576BA2
:101E4C00586B596B5A6B5B6B5C6B700E0F6F050E9E
:101E5C00106F060E116F5E0E126F190E136F0D0EB2
:101E6C00146F0C0E156F010E1C6F010E1D6FF30E0F
:101E7C00166F000E176F06C018F307C019F308C0D1
:101E8C001AF3010E1B6F1E6B1F6B206B216B226BE9
:101E9C00236B246B256B266B276B286B296B2A6BAA
:081EAC002B6B2C6B2D6B120057
:101EB400060E0C6E2B0E0D6E0D2EFED70C2EFCD7BF
:021EC40012000A
:101EC60005016F6B996B9A6B9B6B9E6BA16B97C5AC
:101ED6006DF598C56EF5A46BB4EC09F06DC5E9FF18
:101EE6006EC5EAFFEECF01F0800E9A19006E800EE5
:101EF600005C02E10150995DD8B0E8D0010E6D2575
:101F0600D96E000E6E21DA6EDECF01F0DECF02F062
:101F1600000E006E0250005C02E101509B5D3BE248
:101F2600030E6D25E96E000E6E21EA6E9BC500F06C
:101F3600000E016E026E036E003600900136023608
:101F46000336EE500024F66EEE500120F76EEE508A
:101F56000220F86E0900F5CF00F00900F5CF01F078
:101F660000C09CF501C09DF5020E0024D96E000E3E
:101F76000120DA6EDECF01F0000E9A1902E101505F
:101F8600991909E19B2B994B9A2B9CC5A4F59DC5E4
:101F9600A5F53FEC09F00B0E6D25D96E000E6E21EE
:101FA600DA6EDECF01F0DECF02F0000E006E0250D8
:101FB600005C02E10150A15D3BE20D0E6D25E96E6C
:101FC600000E6E21EA6EA1C500F0000E016E026ED3
:101FD600036E00360090013602360336EE500024BA
:101FE600F66EEE500120F76EEE500220F86E0900F4
:101FF600F5CF00F00900F5CF01F000C0A2F501C051
:10200600A3F5020E0024D96E000E0120DA6EDECF93
:1020160001F0000E9A1902E10150991909E1A12B6C
:10202600994B9A2BA2C5A4F5A3C5A5F5E2EC09F038
:10203600060E6D25D96E000E6E21DA6EDECF01F02A
:10204600DECF02F0000E006E0250005C02E101508D
:102056009E5D3BE2080E6D25E96E000E6E21EA6E6E
:102066009EC500F0000E016E026E036E00360090F3
:10207600013602360336EE500024F66EEE5001208D
:10208600F76EEE500220F86E0900F5CF00F0090059
:10209600F5CF01F000C09FF501C0A0F5020E0024A7
:1020A600D96E000E0120DA6EDECF01F0000E9A190D
:1020B60002E10150991909E19E2B994B9A2B9FC574
:0E20C600A4F5A0C5A5F5DFEC08F008D71200C0
:1020D40097C504F098C505F004C002F005C003F0EC
:1020E400044A052A99C500F09AC501F00501994BE7
:1020F4009A2B00C0E9FF01C0EAFF02C0E1FF03C060
:10210400E2FFEECFE6FF02C0E9FF03C0EAFFEE52B2
:0E21140001E0E2D797C500F098C501F0120077
:10212200030E0F01386F396B3A6B3B6B030E926EE5
:02213200120099
:10213400010E0501986F48D00A0EA46F010EA56F19
:10214400090EA66F010EA76F140EA86F000EA96FDB
:1021540020EC0AF000500501981742D02B0EA46F12
:10216400010EA56F090EA66F010EA76F140EA86FBE
:10217400000EA96F20EC0AF000500501981730D02A
:10218400240EA46F010EA56F320EA66F010EA76F69
:10219400140EA86F000EA96F20EC0AF00050050180
:1021A40098171ED0350EA46F010EA56F320EA66FC0
:1021B400010EA76F140EA86F000EA96F20EC0AF091
:1021C4000050050198170CD09751000AB5E09751BB
:1021D400010AC4E09751020AD3E09751030AE2E0EE
:0621E40098C500F0120096
:0E21EA0086EC09F00501A46BB4EC09F01200BC
:1021F80094DFF7DF3EEC0AF05D0E0501976F050EE0
:06220800986F5DDE12007C
:10220E000900F5CFE6FF0006FBE10106F9E1120039
:10221E0005019051010A11E1010E0101E919016E4A
:10222E0001C0E9F10150000A03E10501916B03D0F1
:10223E000501010E916F91C545F29051020A12E10E
:10224E00010E0101E819016E01C0E8F10150000A0A
:10225E0004E1020E0501926F03D00501030E926F89
:10226E0092C545F20101E9510201001906E1010191
:10227E00E8510201441901E146D045C297F553DFFA
:10228E0000520FE18074150E0B6E4B0E0C6EBE0ECF
:10229E000D6E0D2EFED70C2EFCD70B2EFAD700008E
:1022AE00ECD70101E951000A0BE1D0C297F5D1C27A
:1022BE0098F5150E0501996F010E9A6F04DF0AD07D
:1022CE000501D0C297F5D1C298F5190E996F010E7E
:1022DE009A6FF9DE0101E851000A0BE1EFC297F5A2
:1022EE00F0C298F5200E0501996F010E9A6FEBDE84
:1022FE000AD00501EFC297F5F0C298F51D0E996F41
:10230E00010E9A6FE0DEE9C100F2E8C144F280945A
:02231E001200AB
:1023200002010B51450A0BE10C51440A08E10D5121
:10233000300A05E1300E0E5D0001FD6F75D002011F
:102340000B51450A0BE10C51440A08E10D51310AC9
:1023500005E1300E0E5D0001E56F66D002010B5104
:10236000450A0BE10C51440A08E10D51320A05E11E
:10237000300E0E5D0001F26F57D002010B51450A7D
:102380000BE10C51440A08E10D51330A05E1300E0E
:102390000E5D0001676F48D002010B51450A0AE14A
:1023A0000C51440A07E10D51340A04E1300E0E5D70
:1023B000536E3AD00B51450A0AE10C51440A07E129
:1023C0000D51350A04E1300E0E5D2A6E2DD00B51F1
:1023D000530A0AE10C51540A07E10D51410A04E184
:1023E000300E0E5D1F6E20D00B51430A0DE10C51D3
:1023F000310A0AE10D514F0A07E10E514B0A04E17F
:10240000010E0101326F10D002010B51430A0CE1A1
:102410000C51320A09E10D514F0A06E10E514B0AE7
:0A24200003E1010E0101096F120033
:10242A00AECF01F0ABA202D0AB98AB8801C000F0EE
:02243A0012008E
:10243C000F013B6B929492869288928A928C809434
:04244C009480120066
:1024500000D10001F251000A0BE11EC497F51FC420
:1024600098F5F70E0501996F000E9A6F33DE0AD0CA
:1024700005011EC497F51FC498F5FE0E996F000E56
:102480009A6F28DE0001FD51000A0BE1C1C397F5E8
:10249000C2C398F5DF0E0501996F000E9A6F1ADE20
:1024A0000AD00501C1C397F5C2C398F5D90E996F3B
:1024B000000E9A6F0FDE0001E551000A0BE1E0C348
:1024C00097F5E1C398F5EC0E0501996F000E9A6F30
:1024D00001DE0AD00501E0C397F5E1C398F5E60EE9
:1024E000996F000E9A6FF6DD00016751000A0BE14B
:1024F000FFC397F500C498F5310E0501996F000EE2
:102500009A6FE8DD0AD00501FFC397F500C498F57E
:102510002B0E996F000E9A6FDDDD5D0E976F050E25
:10252000986FD1DCA2D03750000A0AE164C397F556
:1025300065C398F53E0E996F000E9A6FCBDD09D0FA
:1025400064C397F565C398F5380E996F000E9A6FBE
:10255000C1DD1F50000A0AE116C397F517C398F5AD
:102560001B0E996F000E9A6FB5DD09D016C397F553
:1025700017C398F5200E996F000E9A6FABDD700EA1
:10258000976F050E986F9FDC70D02A50000A0AE101
:10259000F7C497F5F8C498F5230E996F000E9A6F5B
:1025A00099DD09D0F7C497F5F8C498F5540E996FE2
:1025B000000E9A6F8FDD5350000A0AE1B1C297F501
:1025C000B2C298F55A0E996F000E9A6F83DD09D04A
:1025D000B1C297F5B2C298F5610E996F000E9A6F6D
:1025E00079DD0101E951000A0BE1D0C297F5D1C2B2
:1025F00098F5480E0501996F000E9A6F6BDD0AD0B1
:102600000501D0C297F5D1C298F5440E996F000E1E
:102610009A6F60DD0101E851000A0BE1EFC297F506
:10262000F0C298F54F0E0501996F000E9A6F52DDBA
:102630000AD00501EFC297F5F0C298F54C0E996FDC
:10264000000E9A6F47DD800E976F050E986F3BDC8A
:102650000CD005019051000AD8B4FBD69051010A64
:0C266000D8B461D79051020A90E012003B
:10266C006A0E0201316F0B0E326FAA0E336F050E1C
:10267C00346F2A0E2D6F240E2E6F000E2F6F000E4E
:10268C00306FFF0E076FFF0E086F000E096F000E04
:10269C000A6FFF0E036FFF0E046F000E056F000E26
:1026AC00066FAC8A900EAB6E948E949C9EAA03D04F
:0826BC00AECF00F0FBD71200C5
:1026C4000501966B92C501F0010E006E015004E005
:1026D40000360090FF0FFBD700C095F590C5E9FFC9
:1026E40091C5EAFF0050EE14016E0152010ED8A408
:1026F400000E006E9451001A1AE09351000806E28D
:102704005AEC0FF05AEC0FF09307F7D790C5E9FF96
:1027140091C5EAFF9551EE14016E0152010ED8A441
:10272400000E006E9451001A02E0FF0E966F96C5DB
:0427340000F012009F
:10273800880ED56EF294F184F28A630ED76EC00EBD
:06274800D66ED58E1200D2
:10274E0010EC1EF052DD73DEB886030EB06E400E36
:10275E00AF6EAC8484DF050E0B6E0F0E0C6EF10E99
:10276E000D6E0D2EFED70C2EFCD70B2EFAD7F28E39
:10277E00F28CD08E9E9A9F8A9D8A150E0B6E4B0EF2
:10278E000C6EBE0E0D6E0D2EFED70C2EFCD70B2E24
:10279E00FAD70000CADF020E01011125EA6F000E02
:1027AE001221EB6F000E1321EC6F000E1421ED6F52
:1027BE00140E11250201386F000E010112210201C3
:1027CE00396F000E0101132102013A6F000E010153
:1027DE00142102013B6F010E006F010E0101E96F22
:1027EE000201446B0101E86B680E0C6EE40E0D6E77
:1027FE000D2EFED70C2EFCD7000002013C5100011D
:10280E00FD191AE102013D510001E51915E1020120
:10281E003E510001F21910E1020140512A180CE15B
:10282E003F51531809E141510001671905E10201B9
:10283E0043511F1801E111D007C190F502DEFDC012
:10284E003CF2E5C03DF2F2C03EF22AC040F253C067
:10285E003FF267C041F21FC043F20501800E906F38
:10286E000F0E916F040E926F320E936F946B23DFE7
:10287E00005210E001010651000A06E1072B075134
:10288E000208D8A0076B03D008C190F5C1DC07C1C0
:10289E0090F5D7DD800E906F0F0E916F030E926F35
:1028AE00320E936F946B07DF005223E00101075144
:1028BE00020A1FE1010E066F082B010E0201716F55
:1028CE0001010851010A03E1290E0201696F01019C
:1028DE000851020A03E1350E0201696F0101085128
:1028EE00030A04E1066B086B0201716B07C190F5D8
:0628FE00A8DD7AD7FFD728
:103C200010EE1BF0CD0E006E020E016E120EF66E3F
:0E3C30003A0EF76E000EF86E07EC11F012005F
:02000600650291
:10290400000020007F000B000188010001930100FA
:10291400039E010007A9010005B4010009BF0100DD
:1029240006D5010001E0010003EB010002F60100FD
:1029340005010200060C0200021702000222020036
:10294400022D02000338020004430200044E020078
:102954000459020004640200056F0200047A0200B4
:102964000485020004900200049B020004A60200F5
:1029740002B1020002BC020006C7020006D2020035
:1029840006DD020004E8020007F3020006FE02006E
:102994000509030006140300061F0300052A0300AB
:1029A4000535030006400300064B030003560300ED
:1029B40003610300056C030004770300078203002E
:1029C400068D03000798030005A3030007AE030068
:1029D40005B9030005C4030005CF030006DA0300AC
:1029E40006E5030007F0030004FB030005060400EA
:1029F40004110400021C0400032704000232040032
:102A0400053D04000548040003530400045E04006B
:102A14000469040003740400047F0400048A0400AD
:102A24000395040004A0040004AB040001B60400F0
:102A340002C1040004CC040001D7040007E204002E
:102A440004ED040004F8040004030500040E05006A
:102A54000319050003240500022F0500043A0500AC
:102A64000545050007500500035B050005660500E4
:102A740003710500037C050002870500039205002D
:102A8400069D050002A805000000000000000000EB
:102A94000000000000010101010100010000000527
:102AA400050500000000000000000024247E143FFF
:102AB400121200000000041E05060C140F0404008A
:102AC400000000460029002900D60028012801C47E
:102AD400000000000000000609091609192600007C
:102AE40000010101000000000000000004020101D7
:102AF40001010101020400000102020202020201BA
:102B04000004150E15040000000000000000000879
:102B1400083E080800000000000000000000020257
:102B2400010000000000000003000000000000009D
:102B3400000000000202000000040402020202027B
:102B44000101000000060909090909060000000046
:102B54000406040404040E0000000007080804022C
:102B6400010F00000000070808060808070000001D
:102B740000080C0A091F0808000000000F010107E3
:102B84000808070000000006010107090906000003
:102B940000000F08040402020100000000060909F5
:102BA40006090906000000000609090E08080600C7
:102BB4000000000000020200020200000000000009
:102BC4000202000202010000000000201C021C207E
:102BD400000000000000003F003F00000000000073
:102BE40000021C201C020000000007080804020068
:102BF40002000000001C2259555539021C00000037
:102C04000C0C12123F2121000000000709090F11CA
:102C1400110F000000001C22010101221C00000011
:102C2400000F11212121110F000000001F01010FCD
:102C340001011F000000001F01010F01010100003C
:102C440000001C22013921223C0000000021212126
:102C54003F212121000000000702020202020700B6
:102C64000000000604040404040300000000110929
:102C74000503050911000000000101010101010F14
:102C840000000000636355554949410000000021DC
:102C9400232529312121000000001C224141412229
:102CA4001C000000000F1111110F010100000000B1
:102CB4001C22414141221C106000000F11110F051C
:102CC4000911000000001E01010E10100F00000089
:102CD400001F040404040404000000002121212135
:102CE40021211E0000000021212112120C0C0000E1
:102CF40000004949555555222200000000090906E3
:102D04000606090900000000110A0A04040404006C
:102D14000000000F08040202010F0000000301017B
:102D24000101010101010300010102020202020486
:102D34000400000302020202020202020300000471
:102D44000A11000000000000000000000000000064
:102D540000001F000204000000000000000000004A
:102D6400000006080E090E00000001010107090910
:102D74000907000000000000060101010600000030
:102D84000808080E0909090E0000000000000609E1
:102D94000F010E00000006010107010101010000FE
:102DA400000000000E0909090E08060001010107D0
:102DB40009090909000000000100010101010100E5
:102DC40000000002000302020202020100010101EC
:102DD40009050305090000000101010101010101C8
:102DE4000000000000003749494949000000000084
:102DF4000007090909090000000000000609090983
:102E0400060000000000000709090907010100008D
:102E140000000E0909090E0808000000000503015E
:102E24000101000000000000070102040700000087
:102E34000000010301010102000000000000090973
:102E440009090E000000000000110A0A0A0400002B
:102E5400000000004949553622000000000000052A
:102E640002020205000000000000110A0A0A04041C
:102E7400020000000007040201070000000402022F
:102E8400020201020202040002020202020202021F
:102E94000202000102020202040202020100000016
:102EA40000002619000000000000000303030303D0
:032EB4000000001B
:102EB700000020007F000B10028801000293010030
:102EC700029E010005A9010004B4010007BF01002B
:102ED70006CA010001D5010003E0010003EB010070
:102EE70003F6010005010200020C020003170200AD
:102EF70002220200032D02000538020003430200EC
:102F0700044E02000459020005640200046F020027
:102F1700057A02000485020005900200059B020065
:102F270002A6020002B1020005BC020005C70200AA
:102F370004D2020004DD020008E8020006F30200E2
:102F470005FE02000509030006140300051F030020
:102F5700052A03000735030007400300034B03005E
:102F67000356030006610300056C0300087703009E
:102F770007820300078D03000598030007A30300DA
:102F870006AE030004B9030005C4030007CF03001E
:102F970006DA030009E5030006FB03000506040043
:102FA70005110400031C0400032704000232040077
:102FB700043D04000548040002530400055E0400B4
:102FC7000569040004740400057F0400048A0400F2
:102FD7000495040005A0040006AB040003B6040032
:102FE70002C1040005CC040003D7040008E2040072
:102FF70006ED040005F8040005030500040E0500AE
:103007000419050004240500032F0500053A0500EF
:103017000445050007500500045B0500046605002C
:1030270004710500027C0500028705000392050074
:10303700059D050002A80500000000000000000033
:10304700000000000000020202020002000000006F
:10305700000300000000000000000000080A1E0A2C
:103067000F020000000000040F050E0D0E04000003
:10307700062515755B58543200000000000E0A0A39
:1030870036193F00000000000100000000000000AA
:103097000000040402020202040400000002020409
:1030A70004040404020000000000060400000000FD
:1030B700000000000004041F0404000000000000DA
:1030C70000000000020200000000000000070000EE
:1030D70000000000000000000000020000000000E7
:1030E700000404020202010000000000000E11119A
:1030F7000E000000000000000302020700000000AD
:103107000000000604040F000000000000000E0885
:103117000E0808070000000000080C0A1F08080036
:10312700000000000E01060808070000001C020F3F
:1031370011110E000000000000000F09080404022E
:103147000000000E0A0609110E0000000000000032
:103157000E11111E0804000000000002000002000A
:103167000000000000000200000202000000000052
:10317700001806061800000000000000001F001FCE
:1031870000000000000000030C0C0300000000001A
:103197000608040200060000000000007CC2B99582
:1031A7007D423C000000080C0A1E1133000000009D
:1031B700001F120E12120F00000000001E03010173
:1031C700031E00000000001F222222321F00000001
:1031D70000001F020E02021F00000000001F020E67
:1031E70002020700000000001E030171233C0000DB
:1031F70000000067223E222267000000000007024D
:103207000202020700000000000702020202020297
:103217000100000037120E0E1A37000000000007E9
:10322700020202121F0000000000C366665A5AE637
:10323700000000000073262A2A3227000000000041
:103247003E634141633E00000000001F12120E0260
:103257000700000000003E634141633E0870000024
:10326700001F12120E1A3700000000000E01030C97
:10327700080700000000001F040404040E000000FB
:10328700000077222222221C0000000000332212B5
:10329700140C00000000000000000093011201AAB6
:1032A70000AC004C00440000000000000000331296
:1032B7000C0C123300000000001B110A04040E005E
:1032C700000000001F080404021F0000000006029F
:1032D70002020202020206000000010202020404C6
:1032E70004000000030202020202020203000000BF
:1032F700040A0200000000000000000000000000B7
:10330700001F000002000000000000000000000095
:1033170000000E080E091F0000000003020E121223
:10332700120E0000000000000E010101060000005F
:10333700000C080E0909091E00000000000006091C
:103347000F0106000000000C02070202020700003E
:10335700000000001E09090F011F11000003021ED3
:103367001212123F000000000200030202020700CF
:103377000000000200030202020202020000030230
:103387001A0A060A1F0000000003020202020207CF
:103397000000000000006F525252FF0000000000C2
:1033A700001F1212123F0000000000000E11111141
:1033B7000E0000000000000F1212120E02020000A1
:1033C70000000E0909090E0808000000000F02029C
:1033D70002070000000000000F09060907000000AF
:1033E70000000207020202060000000000000F0AA8
:1033F7000A0A1E0000000000000B090A060400006C
:10340700000000006B292A16100000000000000BC6
:103417000604060F0000000000000B090A0604045A
:1034270002000000000F0404020E00000000020268
:10343700020201020202020000020202020202026A
:10344700020200000202020204020202020000005D
:10345700000000160D000000000000030303030333
:0334670000000062
:10346A00000020007F000B0802880100029301007F
:10347A00039E010005A9010005B4010006BF010071
:10348A0005CA010001D5010003E0010002EB0100B9
:10349A0003F6010004010200020C020004170200F4
:1034AA0002220200042D0200043802000243020034
:1034BA00044E02000459020005640200046F02006F
:1034CA00047A02000485020004900200049B0200B0
:1034DA0002A6020002B1020003BC020004C70200F5
:1034EA0003D2020004DD020007E8020006F302002C
:1034FA0005FE02000509030005140300051F030069
:10350A00052A03000535030005400300024B0300AA
:10351A000456030005610300056C030006770300E7
:10352A0006820300058D03000598030006A3030025
:10353A0005AE030005B9030004C4030005CF030068
:10354A0005DA030007E5030005F0030004FB0300A6
:10355A000506040003110400031C040002270400EA
:10356A0004320400033D040002480400045304002A
:10357A00045E04000469040004740400047F040067
:10358A00038A04000495040004A0040002AB0400AA
:10359A0002B6040005C1040002CC040007D70400E7
:1035AA0004E2040004ED040004F804000403050026
:1035BA00040E05000419050002240500042F050065
:1035CA00043A05000745050004500500045B0500A0
:1035DA000466050003710500027C050003870500E7
:1035EA0004920500029D0500000000000000000092
:1035FA0000000000000002020202000200000000B7
:10360A00000505000000000000000000141E0A0A60
:10361A001F0A00000000040E06061C140E04000017
:10362A000000120D0A342C3200000000000C1202B5
:10363A00161A1E0000000000010100000000000030
:10364A000000040202020202020400000001020257
:10365A000202020201000000000106000000000050
:10366A00000000000000040E04000000000000003A
:10367A00000000030301000000000000000E00002B
:10368A000000000000000000000003000000000825
:10369A0004040402020101000000000E0A0A0A0AD8
:1036AA000E000000000003020202020200000000F5
:1036BA00000E0A0804020E00000000000E0A0408A8
:1036CA000B0E000000000004040A0A1E0800000095
:1036DA0000000E020E0A0A0E000000000004060E88
:1036EA000A0A0E00000000000F0904040406000084
:1036FA000000000E0A0E0A0A0E00000000000E0A60
:10370A000A0E040400000000000000030000030089
:10371A000000000000000300030301000000000095
:10372A0000060600000000000000000E000E000067
:10373A000000000000000006060000000000000073
:10374A00060D0402000200000000003C425A6666B0
:10375A007A021C000000040C0C121E31000000004A
:10376A00001E120E12121E00000000000E120202AB
:10377A00120E00000000001E121212121E0000009B
:10378A0000001E020E02021E00000000001E0202BD
:10379A000E020200000000000E12021A121E0000A1
:1037AA0000000012121E1212120000000000020293
:1037BA0002020202000000000008080808080700C8
:1037CA0000000000120A0E0E121200000000000291
:1037DA00020202021E0000000000223636362A22A9
:1037EA0000000000002226262A3A320000000000CB
:1037FA000E121212120E00000000001E12121E02F9
:10380A000200000000000E1212121A3E0000000010
:10381A00001E12121E0A1200000000001E120618D4
:10382A00101E00000000000F04040404040000003D
:10383A00000012121212121E000000000011120AD9
:10384A000A0C040000000000495B5A5626260000B4
:10385A00000000130A04040A110000000000090A0B
:10386A000604040400000000000E080404021F00FD
:10387A000000000602020202020206000000010124
:10388A00010202040404000000030202020202020E
:10389A000300000000040A0000000000000000000D
:1038AA000000000000000700000001020000000004
:1038BA00000000000000000E080E090E00000000C3
:1038CA0002020E0A0A0A0E0000000000000E02029E
:1038DA00020E0000000008080E0A0A0A0E00000084
:1038EA000000000E0A0E020E000000000602070287
:1038FA000202020000000000000E0A0A0A0E080670
:10390A00000002020E0A0A0A0A000000000200026F
:10391A000202020200000000020002020202020287
:10392A0003000002020A06060A1A00000000020248
:10393A0002020202020000000000007E4A4A4A4ACD
:10394A000000000000000E0A0A0A0A000000000037
:10395A00000E0A0A0A0E0000000000000E0A0A0AF7
:10396A000E0202000000000E0A0A0A0E08080000F1
:10397A0000000E020202020000000000000E020E09
:10398A00080F000000000002030202020200000009
:10399A000000000A0A0A0A0E000000000000090AD4
:1039AA000A0604000000000000492A363614000006
:1039BA00000000000A0604060A00000000000009D0
:1039CA000A0606040402000000000E0C04020E009F
:1039DA0000000004020202020202020400000202C3
:1039EA0002020202020200000001020202060202B0
:1039FA00020100000000000A0E00000000000000A2
:083A0A000303030303000000A5
:043A12004F66660095
:013A160000AF
:033A17004F6E00EF
:073A1A004E6F726D616C003C
:013A210000A4
:063A2200436865696100C4
:063A280056617A6961009D
:013A2E000097
:063A2F00436865696100B7
:063A350056617A69610090
:043A3B00417574005D
:043A3F004D616E0067
:033A43004F6E00C3
:043A46004F66660061
:013A4A00007B
:063A4B00416C61726D0088
:073A51004E6F726D616C0005
:063A5800416C61726D007B
:013A5E000067
:063A5F0056617A69610066
:0E3A65004D697363656C6C616E656F757300FF
:103A73004E762E20437820527561203032203A0052
:103A830053746174757320563256202020202020F1
:023A93003A00F7
:103A95004E6976656C2043616978617320442761BE
:043AA50067756100E0
:073AA9004E6F726D616C00AD
:073AB0004E6F726D616C00A6
:043AB7004D616E00EF
:103ABB0052656C65205465726D69636F2042503A94
:013ACB0000FA
:043ACC004F666600DB
:063AD00043686569610016
:063AD60056617A696100EF
:013ADC0000E9
:063ADD0043686569610009
:063AE30056617A696100E2
:013AE90000DC
:043AEA004F666600BD
:063AEE0056617A696100D7
:013AF40000D1
:063AF500436865696100F1
:013AFB0000CA
:013AFC0000C9
:013AFD0000C8
:013AFE0000C7
:013AFF0000C6
:013B000000C4
:073B01005B415554305D00EB
:043B080000000000B9
:043B0C004D616E0099
:043B10004175740087
:033B14004F6E00F1
:043B17004F6666008F
:073B1B005B563256305D00DD
:073B22005B415554315D00C9
:013B2900009B
:023B2A00900108
:073B2C005B563256315D00CB
:103B3300434D442020202056325620202020202090
:043B430020203A0004
:063B470056617A6961007D
:103B4D004E762E2043782052756120202020202093
:023B5D003A002C
:103B5F004E762E204369737420422020202020208F
:043B6F0020203A00D8
:063B730056617A69610051
:063B790056617A6961004B
:063B7F0056617A69610045
:103B85004E762E204369737420412020202020206A
:043B950020203A00B2
:103B99004E762E2043697374205072696E63203A01
:013BA900001B
:103BAA004D6F646F204D616E2D41757420203A006F
:103BBA0052656C65205465726D69636F2042433AA1
:013BCA0000FA
:103BCB004E6976656C204361697861732044276187
:043BDB0067756100A9
:103BDF003604550474041704BA03D903F803930485
:023BEF002E05A1
:103BF1000F05B204D104F004AA02C902E8028B0243
:023C0100460279
:0A3C03005D037C039B033E030F03E7
:063C0D000C0C1E1E3F3FDF
:043C13004D05550501
:043C17002E0336033F
:043C1B008302070316
:020000040030CA
:0D000100331F3CFFBD81FF0FC00FE00F401B
:00000001FF
