:040000005BEF12F0B0
:1000080000C018F001C017F002C016F003C015F0C8
:10001800E1CF19F0E2CF1AF0F2A41DD0F2AA1BD05A
:10002800010E0001C225006E000EC321016E000EF4
:10003800C421026E000EC521036E00C0C2F001C0CB
:10004800C3F002C0C4F003C0C5F0630ED76EC00E83
:10005800D66EF2942ED09EAA2CD09DAA2AD0AFECB0
:1000680011F000C087F500505B0A09E1A60E0301F4
:100078005D6F030E5E6F010E01014D6F19D0050112
:1000880087515D0A08E101014D51010A04E14D6BF8
:1000980019EC11F00DD001014D51010A09E15DC3C0
:1000A800E1FF5EC3E2FF87C5E6FF03015D4B5E2B00
:1000B8009E9A18C000F017C001F016C002F015C0D3
:0C00C80003F019C0E1FF1AC0E2FF1100B4
:0C00D4001A0E0D6E0D2EFED7000012005B
:0C00E000020E0D6E0D2EFED70000120067
:0A00EC00F3DF8A88F1DF8A98120022
:1000F6007F0E05018615006E00C086F58A948A96E5
:10010600BF0E001600C086F5008C00C086F500C044
:0601160083FFE9DF120087
:10011C00120E006E000E016E830E0024E16E0F0EA7
:10012C000120E26EFF0EE66ED5DFD4DF8A848A985A
:10013C008A868A88C9DF83CF86F58A988A96CADF31
:10014C00C9DF120E006E000E016E830E0024E16EEC
:0E015C000F0E0120E26EE66A86C500F012006A
:0E016A008A988A848A9686C583FFBBDF1200BE
:10017800F250026EF29E0500FF6A0150FE6E0050BA
:08018800FD6E02BEF28E1200B2
:100190007F0E05018615016E01C086F501AC03D006
:0C01A0008A808A9202D08A908A82120023
:1001AC008A948A96B80E05018611836E99DF120027
:1001BC00000E0501785D0AE378517F0807E3000E15
:1001CC00795D04E379513F0801E301D04AD078C549
:1001DC0086F5D8DF79C586F58633869F8633869F6C
:1001EC008633869FDDDF78C586F57FDF91DF00C023
:1001FC007DF58EDF00C07DF579C586F58633869F4B
:10020C008633869F8633869FCBDF78C586F56DDF78
:10021C00070E7915006E00C07BF500C001F0010ED1
:10022C00006E015004E000360090FF0FFBD700C0B9
:10023C007BF5001C7C6F09D07C517D170FD07B5156
:10024C007D130CD07B517D1B09D07A51000AF4E050
:10025C007A51010AF4E07A51020AF4E07DC586F580
:04026C007EDF12001F
:1002700078C515F479C516F47AC517F4020E050190
:100280007825F66E000E7921F76E000E7A21F86E51
:100290000900F5CF04F0030E7825F66E000E7921E3
:1002A000F76E000E7A21F86E0900F5CF03F003C057
:1002B00001F0006A045000240101756F000E012056
:1002C000766F040E05017825F66E000E7921F76E23
:1002D000000E7A21F86E0900F5CF04F0050E78259E
:1002E000F66E000E7921F76E000E7A21F86E090085
:1002F000F5CF03F003C001F0006A045000240101AF
:10030000736F000E0120746F060E05017825F66EDE
:10031000000E7921F76E000E7A21F86E0900F5CFF4
:100320007BF1000E01017C6F7BC50FF4000E040110
:10033000106F7CC518F4010E01014E6F856B866B42
:020340001200A9
:100342007D0E0501846F010E856F000E006E7D51DA
:10035200005C02E17C51000843E279C1E1FF7AC10D
:10036200E2FF78C5E6FF79C5E6FF7AC5E6FF7BC501
:10037200E6FF7CC5E6FF7DC5E6FF800EE66E050E54
:10038200E66E77C100F078C101F0F5DE00C082F5BB
:1003920001C083F505017E6B7F6B81517F5D02E1B8
:1003A20080517E5D11E282C5E9FF83C5EAFF84C503
:1003B200E1FF85C5E2FFEECFE6FF844B852B824B42
:1003C200832B7E4B7F2BE9D780517C5F81517D5BF4
:1003D2008051782781517923000E7A237B23B5D768
:0203E200120007
:1003E4000B6A0A6A096A00500402F4CF09F0F3CFD9
:1003F40008F001500502F4CF0BF0F3CF0AF00050DF
:100404000502F3500926F4500A22E86A0B2201502F
:100414000402F3500926F4500A22E86A0B2208C0A9
:1004240000F009C001F00AC002F00BC003F0120092
:100434005EC513F45FC514F460C511F461C512F40C
:020444001200A4
:100446000501736B746B756B766B01017651050153
:100456005F5D04E10101755105015E5D01E2E0D1D8
:100466005F510101745D04E105015E510101735D97
:1004760001E2D6D1755105015E5D036E010176512B
:1004860005015F59046E03C000F004C001F0003698
:1004960000900136003600900136080E01016F25E6
:1004A6000501786F000E010170210501796F000EBC
:1004B6000101712105017A6F000E0101722105010A
:1004C6007B6F0050782701507923000E7A237B2317
:1004D600040E7C6F000E7D6F31DF7D0E716F010E95
:1004E600726F71C5E9FF72C5EAFFEECF77F577C582
:1004F60073F5010E7125E96E000E7221EA6EEECFDC
:1005060004F0000E056E066E076E020E7125E96E8A
:10051600000E7221EA6EEECF03F003C001F0006A0E
:10052600000E026E036E045000260550012206508E
:10053600022207500322005001016F250501656F55
:100546000150010170210501666F02500101712100
:100556000501676F0350010172210501686F77C5B8
:1005660000F00032009E0032009E0032009E000E17
:10057600016E7BC104F07CC105F031DF00C06BF574
:1005860001C06CF5070E7715006E08E001017B517E
:1005960005016B2701017C5105016C236BC56FF5C5
:1005A6006CC570F579C1E1FF7AC1E2FF65C5E6FF6A
:1005B60066C5E6FF67C5E6FF68C5E6FF6BC5E6FFED
:1005C6006CC5E6FF690EE66E050EE66E77C100F0B5
:1005D60078C101F0CEDD00C071F501C072F50501EC
:1005E600695165276A516623000E6723682369519E
:1005F6006B5F6A516C5B6D6B6E6B04011851000A80
:10060600D8A486D011C462F512C463F50501616BE6
:10061600000E006E01017C51005C03E17B51050177
:10062600615D6BE2050113C474F514C475F5646B62
:10063600606B7351605D5DE26451000A49E16D4B88
:100646006E2B70516A5D02E16F51695D37E26E5142
:100656006A5D02E16D51695D31E2010E6D6F000E5A
:100666006E6F79C1E1FF7AC1E2FF65C5E6FF66C537
:10067600E6FF67C5E6FF68C5E6FF6BC5E6FF6CC526
:10068600E6FF690EE66E050EE66E77C100F078C1EC
:1006960001F06FDD00C071F501C072F56BC56FF535
:1006A6006CC570F50501695165276A516623000E10
:1006B6006723682369516B5F6A516C5B71C5E9FFFB
:1006C60072C5EAFFEECF76F5714B722B010E646FA1
:1006D60064517615006E07E074C578F562C579F544
:1006E6000FC47AF568DD744B752B64376491602B03
:1006F600A0D7624B632B612B8BD70501010E7425A6
:100706000401136F000E050175210401146F88D0D2
:1007160013C462F514C463F50501616B000E006E27
:1007260001017C51005C03E17B510501615DD8B09C
:100736006DD0050111C474F512C475F5646B606B58
:100746007351605D5FE26451000A49E16D4B6E2BA7
:1007560070516A5D02E16F51695D37E26E516A5D03
:1007660002E16D51695D31E2010E6D6F000E6E6F33
:1007760079C1E1FF7AC1E2FF65C5E6FF66C5E6FF1E
:1007860067C5E6FF68C5E6FF6BC5E6FF6CC5E6FF15
:10079600690EE66E050EE66E77C100F078C101F0CF
:1007A600E8DC00C071F501C072F56BC56FF56CC56C
:1007B60070F50501695165276A516623000E6723A6
:1007C600682369516B5F6A516C5B71C5E9FF72C53D
:1007D600EAFFEECF76F5714B722B010E646F645112
:1007E6007615006E07E062C578F574C579F50FC415
:1007F6007AF5E1DC010E745F000E755B6437649177
:10080600602B9ED7624B632B612B88D70501010EA7
:10081600745D0401116F000E050175590401126F14
:020826001200BE
:100828000501666B676B686B01014E51000A0DE1AB
:100838007D0E0501786F320E796F000E7A6F010E0A
:100848007B6F7C6B11DD010E4E6F000E006E7651D2
:10085800005C03E1755105015E5D01E2FED0000E0A
:100868000101745D04E105015E510101735D01E25E
:10087800F4D0755105015E5D016E76C102F0000E7F
:10088800025601C003F002C004F003360390043698
:10089800033603900436080E04011525006E000E79
:1008A8001621016E000E1721026E000E056E005013
:1008B8000326015004220250052203C0F6FF04C09B
:1008C800F7FF05C0F8FF0900F5CF66F5010E032410
:1008D800F66E000E0420F76E000E0520F86E090073
:1008E800F5CF00F000C006F0000E076E086E096E26
:1008F800020E0324F66E000E0420F76E000E05208B
:10090800F86E0900F5CF03F003C001F0006A000E8D
:10091800026E036E0650002607500122085002227C
:1009280009500322155100240501636F0401165173
:1009380001200501646F0401175102200501656F4C
:1009480004011851000A45E111C461F50501606B05
:10095800000E006E01017C51005C03E17B51050132
:10096800605D2EE2050113C467F5626B5F6B66512B
:100978005F5D23E26251000A10E163C5F6FF64C5BA
:10098800F7FF65C5F8FF0900F5CF68F5010E632785
:10099800000E64236523010E626F62516815006EB4
:1009A80007E067C578F561C579F50FC47AF502DC0B
:1009B800672B623762915F2BDAD7612B602BC8D720
:1009C80005016751010F0401136F146B000E142306
:1009D80044D013C461F50501606B000E006E01017F
:1009E8007C51005C03E17B510501605D2FE205014C
:1009F80011C467F5626B5F6B66515F5D24E26251FB
:100A0800000A10E163C5F6FF64C5F7FF65C5F8FF86
:100A18000900F5CF68F5010E6327000E64236523EE
:100A2800010E626F62516815006E08E061C578F5C5
:100A380067C579F50FC47AF5DEEC00F06707623711
:100A480062915F2BD9D7612B602BC7D7050167054A
:0C0A58000401116F126B000E125B120003
:100A64000501506B516B526B536B546B556B566B4A
:100A7400576B3F513B25006E40513C21016E010EE6
:100A8400005C026E000E0158036E000E006E0350EF
:100A9400005C02E102507F0807E23B5180083F6F8F
:100AA4003CC540F5000E405741513D25006E425172
:100AB4003E21016E010E005C026E000E0158036EB1
:100AC400000E006E0350005C02E102503F0807E292
:100AD4003D514008416F3EC542F5000E42573DC5A9
:100AE40000F03EC501F001320032019E01320032B5
:100AF400019E01320032019E00C04AF541513D255C
:100B0400056E42513E21066E010E055C036E000E19
:100B14000658046E03C000F004C001F00132003234
:100B2400019E01320032019E01320032019E00C05A
:100B34004BF5070E3D15006E3EC501F0000E011683
:100B440000C04DF5070E0514006E06C001F0000E3E
:100B5400011600C04EF54651425D02E14551415D2A
:100B640003E24BC54FF51BD045513D25006E465160
:100B74003E21016E010E005C036E000E0158046EEE
:100B840003C000F004C001F001320032019E0132C2
:100B94000032019E01320032019E00C04FF5070E63
:100BA4004515016E46C502F0000E0216000E02182D
:100BB40002E1000E011817E145C500F046C501F039
:100BC40001320032019E01320032019E01320032B4
:100BD400019E43C504F044C505F002DC00C05AF58B
:100BE40001C05BF519D045C500F046C501F00132DE
:100BF4000032019E01320032019E01320032019E18
:100C0400004A012A43C504F044C505F0F2EC01F0A2
:100C140000C05AF501C05BF54AC550F5000E516F8E
:100C2400000E006E5151005C02E150514B5DD8A0A2
:100C340003D1586B596B526B536B4051535D02E1B6
:100C44003F51525DD8B0E7D052513B25866FC8EC76
:100C540000F050C586F5D6EC00F04451535D02E136
:100C64004351525D3DE2000E006E5151005C02E1C1
:100C740050514F5D35E3000E511902E14A515019AC
:100C840002E15C6B12D056515825006E5751592120
:100C9400016E00504725F66E01504821F76E000E94
:100CA4004921F86E0900F5CF5CF55B51555D02E111
:100CB4005A51545D02E35D6B12D054515825006EB5
:100CC40055515921016E00504725F66E01504821B7
:100CD400F76E000E4921F86E0900F5CF5DF502D0DC
:100CE4005D6B5C6B5DC54CF54D5100081AE24D51CE
:100CF4000808006E016A000E015A5CC54CF50050EC
:100D040004E04C334C9FFF0FFBD74DC501F05DC58C
:100D140000F0015004E000360090FF0FFBD70050B4
:100D24004C13000E511902E14A5150192DE14D5155
:100D340000082AE252513B25866F7BEC00F08EECD2
:100D440000F08EEC00F04D510808016E026A000EAE
:100D5400025A01C002F0FF0E016E025004E001329B
:100D6400019EFF0FFBD701500014026E4DC501F028
:100D7400FF0E006E015004E000360090FF0FFBD719
:100D840000504C1702504C13000E511902E14B5104
:100D940050192DE14E5100082AE252513B25866F2D
:100DA4007BEC00F08EEC00F08EEC00F04EC502F00F
:100DB400FF0E016E025004E001360190FF0FFBD7D5
:100DC40001500014026E4E510808006E016A000EB4
:100DD400015A00C001F0FF0E006E015004E0003221
:100DE400009EFF0FFBD700504C1702504C13445188
:100DF400535D02E14351525D02E2584B592B52516B
:100E04003B25866F7BEC00F04CC586F5B5EC00F015
:100E1400524B532B12D7000E515D02E14F51505DDE
:100E240008E254C556F555C557F543515427445166
:0A0E34005523504B512BF4D6120049
:100E3E00800E05013C19006E800E005C02E1000E72
:100E4E003B5D02E23B6B3C6B800E006E800E3C19EC
:100E5E00005C02E13B517F0804E27F0E3B6F000E07
:100E6E003C6F800E4019006E800E005C02E1000E99
:100E7E003F5D02E23F6B406B800E006E800E4019AC
:100E8E00005C02E13F517F0804E27F0E3F6F000ECF
:100E9E00406F800E3E19006E800E005C02E1000E67
:100EAE003D5D02E23D6B3E6B800E006E800E3E1984
:100EBE00005C02E13D513F0804E23F0E3D6F000E23
:100ECE003E6F800E4219006E800E005C02E1000E35
:100EDE00415D02E2416B426B800E006E800E421944
:100EEE00005C02E141513F0804E23F0E416F000EEB
:100EFE00426F3B513F5D016E3C514059026E01C045
:100F0E0044F502C045F53D51415D466F3E51425993
:100F1E00476F800E0218006E800E005C02E1000E1C
:100F2E00015C0BE244510008446F4551000E4557D9
:100F3E00FF0E486FFF0E496F04D0010E486F000E72
:100F4E00496F800E4719006E800E005C02E1000EA4
:100F5E00465D0BE246510008466F4751000E47575B
:100F6E00FF0E4A6FFF0E4B6F04D0010E4A6F000E3C
:100F7E004B6F4437449145374637469147373BC50B
:100F8E0078F53DC579F543C57AF5DEEC00F0800EB7
:100F9E004719006E800E4519005C02E14451465D12
:100FAE003EE244C500F045C501F001320032019E1B
:100FBE0001BC018E0050465D4C6F015047594D6F7C
:100FCE003C51401902E13F513B1928E0800E4D196A
:100FDE00006E800E005C02E1000E4C5D08E34A518B
:100FEE003D274B513E2344514C5F45514D5B48517B
:100FFE003B25006E49513C21016E00C03BF501C0FE
:10100E003CF546514C2747514D2300C078F53DC560
:10101E0079F543C57AF5DEEC00F0D2D73DD046C562
:10102E0000F047C501F001320032019E01BC018E75
:10103E000050445D4C6F015045594D6F3E51421961
:10104E0002E141513D1928E0800E4D19006E800ECF
:10105E00005C02E1000E4C5D08E348513B2749510C
:10106E003C2346514C5F47514D5B4A513D25006E26
:10107E004B513E21016E00C03DF501C03EF544517D
:10108E004C2745514D233BC578F500C079F543C536
:0A109E007AF5DEEC00F0D2D7120064
:1010A800000E05013E5D02E1800E3D5D01E341D089
:1010B800000E405D02E1400E3F5D01E33AD0416B16
:1010C800426B3DC55EF53EC55FF53FC560F540C561
:1010D80061F51AEC02F041513B25E96E42513C2181
:1010E800EA6EEE5226E001018551861113E00501F2
:1010F80041513B25E96E42513C21EA6EEECF5EF547
:10110800000E5F6F000E5F6F23EC02F00501414B8C
:10111800422B0ED0050141513B25E96E42513C213D
:10112800EA6EEECF5EF514EC04F00501414B422B5C
:04113800D2D71200F8
:0E113C00ACB202D00000FCD737C5ADFF1200E8
:10114A000C0E05013725E96E000E3821EA6EEE50C5
:10115A00010A55E1030E3725E96E000E3821EA6EC1
:10116A00EECF3BF5000E3C6F000E3C6F040E3725A8
:10117A00E96E000E3821EA6EEECF3DF5000E3E6FA5
:10118A00000E3E6F050E3725E96E000E3821EA6E15
:10119A00EECF3FF5000E406F000E406F060E37256A
:1011AA00E96E000E3821EA6EEECF41F5000E426F6D
:1011BA00000E426F070E3725E96E000E3821EA6EDF
:1011CA00EECF43F5000E446F000E446F080E37252C
:1011DA00E96E000E3821EA6EEECF45F5000E466F35
:1011EA00000E466F090E3725E96E000E3821EA6EA9
:1011FA00EECF47F5EECF48F5EECF49F52EDC1200DB
:10120A0001019A6B856B866B939A93989394939644
:10121A00939093928A9A120E006E000E016E830EBC
:10122A000024E16E0F0E0120E26EE66A8A948A9625
:10123A008A908A828A8A3F0E836E76EC00F0C00E0C
:10124A00836E76EC00F08A808A923F0E836E76EC8B
:0C125A0000F0C00E836E76EC00F0120075
:101266000D0E05013725E96E000E3821EA6EEE50A7
:10127600010A3BE1090E3725E96E000E3821EA6EB8
:10128600EECF78F5EECF79F5EECF7AF50C0E372561
:10129600E96E000E3821EA6EEECF7BF57C6B38ECFA
:1012A60001F0070E05013725E96E000E3821EA6EBA
:1012B600EECF3BF5EECF3CF5030E3725E96E000E7B
:1012C6003821EA6EEECF3DF5000E3E6F000E3E6F02
:1012D600040E3725E96E000E3821EA6EEECF3FF593
:0C12E600000E406F000E406FDCDE1200B6
:1012F200050139510001C225026E05013A51000172
:10130200C321036E000EC421046E000EC521056EBA
:10131200000EC71902E1000EC61913E0C551055CA3
:1013220008E1C451045C05E1C351035C02E1C2510E
:10133200025C03E2010E016E01D0016A015201E07A
:1013420010D037C5E9FF38C5EAFFEE50010A08E1BF
:1013520037C5E1FF38C5E2FFE66A010E006E02D032
:06136200D7D7006A12005B
:10136800070E05013725E96E000E3821EA6EEE50AA
:10137800010A33E1030E3725E96E000E3821EA6EC3
:10138800EECF3BF5000E3C6F000E3C6F040E372588
:10139800E96E000E3821EA6EEECF3DF5000E3E6F85
:1013A800000E3E6F050E3725E96E000E3821EA6EF5
:1013B800EECF3FF5000E406F000E406F060E37254A
:1013C800E96E000E3821EA6EEECF41F5000E426F4D
:0C13D800000E426F010E436F2EDD12006C
:1013E4008A908A820501396B3951070810E339C59F
:1013F40086F5D6EC00F0386B38513F0806E337C564
:1014040086F5B5EC00F0382BF7D7392BEDD78A9257
:101414008A80396B3951070810E339C586F5D6EC53
:1014240000F0386B38513F0806E337C586F5B5EC54
:0C14340000F0382BF7D7392BEDD7120051
:10144000040E01018B6F000E8C6F500E8D6F450ED8
:101450008E6F000E8F6F030E906F000E916F5E0EF9
:10146000926F450E936F000E946F956B966B070EFF
:101470008A6F090E606F000E616F3E0E626F450E3F
:10148000636F000E646F656B666B020E6A6F000E11
:101490006B6F680E6C6F450E6D6F000E6E6F0B0EEE
:1014A0005F6F090E506F000E516F2C0E526F450E7C
:1014B000536F000E546F010E556F000E566F060EDF
:1014C000576F000E586F000E596F020E5A6F000EC4
:1014D0005B6F640E5C6F450E5D6F000E5E6F0C0EF1
:1014E0004F6F8A0E0201656F010E666F676B5A0EB1
:1014F000686F0E0E696F1E0E6A6F1E0E6B6F1E0EEA
:101500006C6F1E0E6D6FB40E066E440E076E000EED
:10151000086E06C06EF207C06FF208C070F2010ECE
:10152000716F010E726F736B746B756B766B776B8B
:10153000786B796B7A6B7B6B7C6B7D6B7E6B7F6B77
:10154000806B816B826B8A0E0301646F010E656F85
:10155000010E666F5F0E676F310E686F150E696F53
:101560000C0E6A6F010E716F010E726F470E6B6F7A
:10157000000E6C6F300E036E380E046E000E056E9A
:1015800003C06DF304C06EF305C06FF3010E706FFE
:10159000736B746B756B766B776B786B796B7A6B3F
:1015A0007B6B7C6B7D6B7E6B7F6B806B816B826BEF
:1015B0008A0E0201096F010E0A6F020E0B6F300EC8
:1015C0000C6F0E0E0D6F1E0E0E6F1E0E0F6F1E0E89
:1015D000106F1E0E116F06C012F207C013F208C082
:1015E00014F2010E156F010E166F176B186B196B45
:1015F0001A6B1B6B1C6B1D6B1E6B1F6B206B216BA7
:10160000226B236B246B256B266B8A0E0301836F81
:10161000010E846F030E856F350E866F310E876F56
:10162000150E886F0C0E896F010E906F010E916F71
:101630004D0E8A6F000E8B6F03C08CF304C08DF3C8
:1016400005C08EF3010E8F6F926B936B946B956B4D
:10165000966B976B986B996B9A6B9B6B9C6B9D6B66
:101660009E6B9F6BA06BA16B8A0E0201276F010E10
:10167000286F040E296F170E2A6F010E2B6F540E60
:101680002C6F0B0E2D6F010E346F010E356F1B0E7C
:101690002E6F000E2F6FC20E006E260E016E000E12
:1016A000026E00C030F201C031F202C032F2010E0F
:1016B000336F366B376B386B396B3A6B3B6B3C6B0C
:1016C0003D6B3E6B3F6B406B416B426B436B446BBE
:1016D000456B8A0E0101AD6F010EAE6F050EAF6F47
:1016E000070EB06F0E0EB16F1E0EB26F1E0EB36FEF
:1016F0001E0EB46F1E0EB56F06C0B6F107C0B7F16F
:1017000008C0B8F1010EB96F010EBA6FBB6BBC6BAC
:10171000BD6BBE6BBF6BC06BC16BC26BC36BC46B6D
:10172000C56BC66BC76BC86BC96BCA6B8A0E0201EF
:10173000466F010E476F060E486F090E496F310E56
:101740004A6F1A0E4B6F0C0E4C6F010E536F010E49
:10175000546F2C0E4D6F000E4E6F03C04FF204C03D
:1017600050F205C051F2010E526F556B566B576B1C
:10177000586B596B5A6B5B6B5C6B5D6B5E6B5F6B35
:10178000606B616B626B636B646B5F0E0101CB6FAF
:10179000010ECC6FCD6B060ECE6F190ECF6F3D0EC6
:1017A000D06F0C0ED16F010ED86F010ED96F330EB2
:1017B000D26F000ED36FCA0E036E2C0E046E000E95
:1017C000056E03C0D4F104C0D5F105C0D6F1010EF9
:1017D000D76FDA6BDB6BDC6BDD6BDE6BDF6BE06BCB
:1017E000E16BE26BE36BE46BE56BE66BE76BE86B7D
:1017F000E96B5F0EEA6F010EEB6F010EEC6F060EE8
:10180000ED6F260EEE6F3D0EEF6F0C0EF06F010EBA
:10181000F76F010EF86F530EF16F000EF26F03C0F9
:10182000F3F104C0F4F105C0F5F1010EF66FF96BA8
:10183000FA6BFB6BFC6BFD6BFE6BFF6B0201006BCD
:10184000016B026B036B046B056B066B076B086B1C
:101850005F0EFF6F010E0301006F020E016F060E97
:10186000026F320E036F3D0E046F0C0E056F010EFA
:101870000C6F010E0D6F840E066F000E076F03C014
:1018800008F304C009F305C00AF3010E0B6F0E6BD9
:101890000F6B106B116B126B136B146B156B166B5C
:1018A000176B186B196B1A6B1B6B1C6B1D6B5F0E28
:1018B0001E6F010E1F6F030E206F5D0E216F0D0E48
:1018C000226F160E236F0C0E246F010E2B6F010E6C
:1018D0002C6F960E256F000E266F03C027F304C0F1
:1018E00028F305C029F3010E2A6F2D6B2E6B2F6B89
:1018F000306B316B326B336B346B356B366B376BF4
:10190000386B396B3A6B3B6B3C6B5F0E3D6F010E76
:101910003E6F040E3F6F5D0E406F190E416F160E45
:10192000426F0C0E436F010E4A6F010E4B6F9C0EFF
:10193000446F000E456F03C046F304C047F305C073
:1019400048F3010E496F4C6B4D6B4E6B4F6B506BF8
:10195000516B526B536B546B556B566B576B586B8B
:10196000596B5A6B5B6B5F0E0201E06F010EE16F0A
:10197000050EE26F5D0EE36F260EE46F160EE56F47
:101980000C0EE66F010EED6F010EEE6F670EE76F46
:10199000000EE86F03C0E9F204C0EAF205C0EBF202
:1019A000010EEC6FEF6BF06BF16BF26BF36BF46BA2
:1019B000F56BF66BF76BF86BF96BFA6BFB6BFC6B0B
:1019C000FD6BFE6B5F0E836F010E846F060E856FDD
:1019D0005D0E866F320E876F160E886F0C0E896F44
:1019E000010E906F010E916F6D0E8A6F000E8B6F5E
:1019F00003C08CF204C08DF205C08EF2010E8F6F11
:101A0000926B936B946B956B966B976B986B996BD2
:101A10009A6B9B6B9C6B9D6B9E6B9F6BA06BA16B82
:101A20005F0EA26F010EA36F070EA46F060EA56FC7
:101A30000D0EA66F3C0EA76F0C0EA86F010EAF6FB8
:101A4000010EB06F730EA96F000EAA6F03C0ABF248
:101A500004C0ACF205C0ADF2010EAE6FB16BB26B5B
:101A6000B36BB46BB56BB66BB76BB86BB96BBA6B6A
:101A7000BB6BBC6BBD6BBE6BBF6BC06B5F0EC16FD6
:101A8000010EC26F080EC36F060EC46F010EC56F44
:101A9000510EC66F0A0EC76F010ECE6F010ECF6FCB
:101AA000AA0EC86F000EC96FD80E006E3D0E016EF3
:101AB000000E026E00C0CAF201C0CBF202C0CCF22E
:101AC000010ECD6FD06BD16BD26BD36BD46BD56B5A
:101AD000D66BD76BD86BD96BDA6BDB6BDC6BDD6BE2
:101AE000DE6BDF6B5F0E0401766F010E776F090E00
:101AF000786F030E796F3D0E7A6F770E7B6F3D0E18
:101B00007C6F010E7D6F5F0E7E6F010E7F6F0A0E80
:101B1000806F030E816F0C0E826F770E836F0C0E39
:101B2000846F010E856F4F0E576F010E586F596B02
:101B3000060E5A6F190E5B6F460E5C6F0C0E5D6FD2
:101B4000010E646F010E656FDA0E5E6F000E5F6F3F
:101B500003C060F404C061F405C062F4010E636F59
:101B6000666B676B686B696B6A6B6B6B6C6B6D6BD1
:101B70006E6B6F6B706B716B726B736B746B756B81
:101B80004F0E196F010E1A6F010E1B6F060E1C6FA0
:101B9000260E1D6F450E1E6F0C0E1F6F010E266F59
:101BA000010E276FEB0E206F000E216F03C022F491
:101BB00004C023F405C024F4010E256F286B296BA3
:101BC0002A6B2B6B2C6B2D6B2E6B2F6B306B316B51
:101BD000326B336B346B356B366B376B4F0E386F44
:101BE000010E396F020E3A6F060E3B6F320E3C6FDC
:101BF000460E3D6F0C0E3E6F010E456F010E466F97
:101C0000FB0E3F6F000E406F03C041F404C042F46E
:101C100005C043F4010E446F476B486B496B4A6B38
:101C20004B6B4C6B4D6B4E6B4F6B506B516B526BE8
:101C3000536B546B556B566B4F0E866F010E876F4F
:101C4000030E886F5D0E896F0D0E8A6F1F0E8B6FEE
:101C50000C0E8C6F010E936F010E946FC80E8D6F7A
:101C6000000E8E6F03C08FF404C090F405C091F491
:101C7000010E926F956B966B976B986B996B9A6B45
:101C80009B6B9C6B9D6B9E6B9F6BA06BA16BA26B08
:101C9000A36BA46B4F0E0501026F010E036F040EC0
:101CA000046F5D0E056F190E066F1F0E076F0C0E89
:101CB000086F010E0F6F010E106FCF0E096F000E2F
:101CC0000A6F03C00BF504C00CF505C00DF5010E3D
:101CD0000E6F116B126B136B146B156B166B176B0E
:101CE000186B196B1A6B1B6B1C6B1D6B1E6B1F6BC0
:101CF000206B4F0E0401E36F010EE46F050EE56FDC
:101D00005D0EE66F260EE76F120EE86F0C0EE96FA0
:101D1000010EF06F010EF16FD60EEA6F000EEB6F41
:101D200003C0ECF404C0EDF405C0EEF4010EEF6F57
:101D3000F26BF36BF46BF56BF66BF76BF86BF96B9F
:101D4000FA6BFB6BFC6BFD6BFE6BFF6B0501006BB5
:101D5000016B4F0E0401A56F010EA66F060EA76F53
:101D60005D0EA86F320EA96F0D0EAA6F0C0EAB6F31
:101D7000010EB26F010EB36F110EAC6F010EAD6F9D
:101D800003C0AEF404C0AFF405C0B0F4010EB16FEF
:101D9000B46BB56BB66BB76BB86BB96BBA6BBB6B2F
:101DA000BC6BBD6BBE6BBF6BC06BC16BC26BC36BDF
:101DB0004F0EC46F010EC56F070EC66F060EC76FBC
:101DC0000D0EC86F450EC96F0C0ECA6F010ED16F94
:101DD000010ED26F240ECB6F010ECC6F03C0CDF479
:101DE00004C0CEF405C0CFF4010ED06FD36BD46B1A
:101DF000D56BD66BD76BD86BD96BDA6BDB6BDC6BC7
:101E0000DD6BDE6BDF6BE06BE16BE26B4F0E0301B2
:101E1000F06F010EF16F080EF26F200EF36F010EDE
:101E2000F46F3B0EF56F0A0EF66F010EFD6F010E9B
:101E3000FE6F350EF76F010EF86F00C0F9F301C0A9
:101E4000FAF302C0FBF3010EFC6FFF6B0401006BA1
:101E5000016B026B036B046B056B066B076B086B06
:101E6000096B0A6B0B6B0C6B0D6B0E6B4F0E03014A
:101E7000C26F010EC36F090EC46F030EC56F3D0E16
:101E8000C66F770EC76F3D0EC86F010EC96F4F0E3C
:101E9000CA6F010ECB6F0A0ECC6F030ECD6F0C0E06
:101EA000CE6F770ECF6F0C0ED06F010ED16F4F0E2D
:101EB000D26F010ED36F0B0ED46F750ED56F290E36
:101EC000D66F060ED76F060ED86F060ED96F060EA8
:101ED000DA6F580E006E450E016E000E026E00C0E5
:101EE000DBF301C0DCF302C0DDF3010EDE6F010E97
:101EF000DF6FE06BE16BE26BE36BE46BE56BE66B72
:101F0000E76BE86BE96BEA6BEB6BEC6BED6BEE6B25
:041F1000EF6B120061
:101F14000101876B05012C6B2D6B2E6B316B346BC0
:101F24002AC588F12BC589F1376BF2EC09F005015C
:101F340088C1E9FF89C1EAFFEECF01F0800E2D19B7
:101F4400006E800E005C02E101502C5DD8B0F4D02C
:101F5400010E01018825D96E000E8921DA6EDECFCB
:101F640001F0DECF02F0000E006E0250005C03E1CF
:101F7400015005012E5D3DE2030E01018825E96E45
:101F8400000E8921EA6E2EC500F0000E016E026E6D
:101F9400036E00360090013602360336EE500024FC
:101FA400F66EEE500120F76EEE500220F86E090036
:101FB400F5CF00F00900F5CF01F000C02FF501C006
:101FC40030F5020E0024D96E000E0120DA6EDECF49
:101FD40001F0000E05012D1902E101502C1909E14F
:101FE4002E2B2C4B2D2B2FC537F530C538F533EC64
:101FF40009F00B0E01018825D96E000E8921DA6ED5
:10200400DECF01F0DECF02F0000E006E0250005C65
:1020140003E101500501345D3DE20D0E0101882507
:10202400E96E000E8921EA6E34C500F0000E016EDF
:10203400026E036E00360090013602360336EE500F
:102044000024F66EEE500120F76EEE500220F86E7A
:102054000900F5CF00F00900F5CF01F000C035F517
:1020640001C036F5020E0024D96E000E0120DA6E8E
:10207400DECF01F0000E05012D1902E101502C19EB
:1020840009E1342B2C4B2D2B35C537F536C538F5E6
:10209400B4EC09F0060E01018825D96E000E8921E1
:1020A400DA6EDECF01F0DECF02F0000E006E0250D9
:1020B400005C03E101500501315D3DE2080E0101C0
:1020C4008825E96E000E8921EA6E31C500F0000E04
:1020D400016E026E036E003600900136023603363E
:1020E400EE500024F66EEE500120F76EEE50022002
:1020F400F86E0900F5CF00F00900F5CF01F000C03B
:1021040032F501C033F5020E0024D96E000E012011
:10211400DA6EDECF01F0000E05012D1902E1015047
:102124002C1909E1312B2C4B2D2B32C537F533C536
:0A21340038F5A5EC08F0FBD6120008
:0E213E0005EC09F00501376BF2EC09F0120018
:10214C00060E0C6E2B0E0D6E0D2EFED70C2EFCD724
:02215C0012006F
:10215E00030E0F01386F396B3A6B3B6B030E926EA9
:02216E0012005D
:102170002AC5E9FF2BC5EAFFEE50000A0CE02AC58C
:10218000E9FF2BC5EAFFEECF37F59EEC08F005011D
:102190002A4B2B2BEDD72CC537F52DC538F52EC581
:0C21A00039F52FC53AF579EC09F0120072
:1021AC000501296B25C501F0010E006E015004E0FC
:1021BC0000360090FF0FFBD700C028F523C5E9FFC0
:1021CC0024C5EAFF0050EE14016E0152010ED8A492
:1021DC00000E006E2751001A18E02651000804E288
:1021EC00AFDFAEDF2607F9D723C5E9FF24C5EAFF29
:1021FC002851EE14016E0152010ED8A4000E006E8F
:10220C002751001A02E0FF0E296F29C500F01200B9
:10221C00880ED56EF294F184F28A630ED76EC00EDE
:06222C00D66ED58E1200F3
:102232000301A651450A0BE1A751440A08E1A8513E
:10224200300A05E1300EA95D0001BE6F86D00301A0
:10225200A651450A0BE1A751440A08E1A851310AE7
:1022620005E1300EA95D0001C16F77D00301A651CF
:10227200450A0BE1A751440A08E1A851320A05E1D7
:10228200300EA95D0001C06F68D00301A651450A56
:102292000BE1A751440A08E1A851330A05E1300EC7
:1022A200A95D01014C6F59D00301A651450A0BE10A
:1022B200A751440A08E1A851340A05E1300EA95D8C
:1022C20001014B6F4AD00301A651450A0BE1A75108
:1022D200440A08E1A851350A05E1300EA95D010161
:1022E2004A6F3BD00301A651560A0AE1A751320AAE
:1022F20007E1A851560A04E1300EA95D5C6F2DD0AA
:10230200A651410A0AE1A751550A07E1A851540A08
:1023120004E1300EA95D5F6F20D0A651430A0DE1A2
:10232200A751310A0AE1A8514F0A07E1A9514B0A04
:1023320004E1010E0001A96F10D00301A651430A66
:102342000CE1A751320A09E1A8514F0A06E1A9514D
:0C2352004B0A03E1010E01011C6F120098
:10235E00AECF01F0ABA202D0AB98AB8801C000F0BB
:02236E0012005B
:10237000F6DEE5DE20EC0AF05F0E05012A6F010EA5
:062380002B6FC8DD120006
:102386000F013B6B929492869288928A928C8094EB
:0A23960080868088808A808C120007
:1023A0003C0E0301606F110E616F370E626F050EF8
:1023B000636F5E0EA26F230EA36F000EA46F000E5C
:1023C000A56FFF0EBE6FFF0EBF6F000EC06F000E39
:1023D000C16FFF0EBA6FFF0EBB6F000EBC6F000E19
:1023E000BD6FAC8A900EAB6E948E949C9EAA03D067
:0823F000AECF00F0FBD7120094
:1023F8000900F5CFE6FF0006FBE10106F9E112004E
:10240800010E0501246F44D01D0E2A6F010E2B6F9B
:102418001C0E2C6F010E2D6F140E2E6F000E2F6FD9
:10242800A3DE0050050124173FD0150E2A6F010EB8
:102438002B6F1C0E2C6F010E2D6F140E2E6F000EBD
:102448002F6F92DE0050050124172ED0430E2A6FFD
:10245800010E2B6FA90E2C6F000E2D6F140E2E6F10
:10246800000E2F6F81DE0050050124171DD0A20E2B
:102478002A6F000E2B6FA90E2C6F000E2D6F140EF5
:102488002E6F000E2F6F70DE0050050124170CD040
:102498002351000AB9E02351010AC7E02351020A77
:0E24A800D5E02351030AE3E024C500F0120042
:1024B600B6EC22F05ADF64DFB886030EB06E400E2B
:1024C600AF6EAC846ADF050E0B6E0F0E0C6EF10E4E
:1024D6000D6E0D2EFED70C2EFCD70B2EFAD7F28ED4
:1024E600F28CD08E9E9A9F8A9D8A150E0B6E4B0E8D
:1024F6000C6EBE0E0D6E0D2EFED70C2EFCD70B2EBF
:10250600FAD7000088DE020E0001C2250101A66F7F
:10251600000E0001C3210101A76F000E0001C421B6
:102526000101A86F000E0001C5210101A96F140E5B
:102536000001C2250101A26F000E0001C3210101A5
:10254600A36F000E0001C4210101A46F000E00015B
:10255600C5210101A56FAC6BAB6B010EAA6FA16B18
:10256600680E0C6EE40E0D6E0D2EFED70C2EFCD7EB
:102576000000800E0501236F0F0E246F050E256FD8
:10258600320E266F276B0FDE005211E0010E01019D
:10259600AA19016E01C0AAF10150000A03E1050162
:1025A600216B03D00501010E216F21C5A0F1800E1C
:1025B600236F0F0E246F060E256F320E266F276BC4
:1025C600F2DD005212E0010E0101A119016E01C0F7
:1025D600A1F10150000A04E1020E0501226F03D0A9
:1025E6000501030E226F22C5A0F10101AA51AC1903
:1025F60004E1A151AB1901E119D0A0C123F501DF16
:1026060000520FE18074150E0B6E4B0E0C6EBE0E53
:102616000D6E0D2EFED70C2EFCD70B2EFAD7000012
:10262600ECD7AAC1ACF1A1C1ABF1809401019B51D9
:102636000001BE190EE101019C510001C11909E119
:1026460001019D510001C01904E101019F5301E1FF
:1026560000D0800E0501236F0F0E246F040E256F28
:10266600320E266F276B9FDD005226E00001BF2B3E
:10267600BF510208D8A0BF6B15D05F0E05012A6FA7
:10268600010E2B6F44DC18D04F0E05012A6F010E88
:102696002B6F3DDC11D08A0E05012A6F010E2B6FC0
:1026A60036DC0AD00001BF51000AE7E0BF51010A3B
:0C26B600EBE0BF51020AEFE053D7FFD762
:10456C0010EE1BF0340E006E020E016E800EF66E15
:0E457C00430EF76E000EF86EFCEC11F012000C
:02000600D20323
:1026C200000020007F000C08028801000294010033
:1026D20003A0010004AC010004B8010006C401001B
:1026E20005D0010001DC010002E8010002F4010052
:1026F20005000200050C020001180200022402007B
:1027020001300200053C02000448020004540200A9
:1027120004600200046C02000578020004840200D6
:1027220004900200049C020004A8020004B4020007
:1027320001C0020001CC020005D8020005E402003B
:1027420005F0020004FC0200060803000514030061
:1027520005200300052C0300053803000444030090
:1027620004500300055C03000568030002740300C3
:1027720002800300058C03000498030007A40300F1
:1027820005B0030005BC030004C8030005D4030020
:1027920005E0030004EC030003F803000504040051
:1027A20005100400071C0400052804000534040079
:1027B20004400400024C04000658040002640400B1
:1027C20005700400057C04000388040004940400DE
:1027D20004A0040004AC040004B8040004C404000F
:1027E20002D0040004DC040004E8040001F4040044
:1027F20001000500040C0500011805000524050070
:1028020004300500043C050004480500045405009A
:1028120002600500036C05000278050004840500CF
:1028220003900500059C050004A8050004B40500FA
:1028320003C0050003CC050003D8050003E405002E
:1028420004F0050002FC050000000000000000008A
:10285200000000000000000202020200020000006C
:102862000000000505050000000000000000000A4D
:102872000F0A050F050000000000040609030C09F9
:1028820006020000000000130B0B3434320000007B
:10289200000000040A0615091600000000000001ED
:1028A200010100000000000000000002010101011E
:1028B2000101020000000001020202020202010004
:1028C200000000041F0A0A000000000000000000CF
:1028D20004041F04040000000000000000000000C7
:1028E20001010000000000000000030000000000E1
:1028F20000000000000000000100000000000010C5
:102902000804040202010000000000060909090986
:102912000600000000000004070404040F00000089
:1029220000000006090804020F0000000000000772
:102932000806080906000000000000080C0A091F2A
:10294200080000000000000F01070809060000004F
:102952000000000609070909060000000000000F38
:10296200080402020200000000000006090609092C
:10297200060000000000000609090E08070000001A
:102982000000000001000000010000000000000043
:102992000100000001010000000000100C020C10F8
:1029A2000000000000000000001F001F00000000E7
:1029B200000000020C100C02000000000000000EDB
:1029C200090C0400040000000000001E212D3D013E
:1029D2001E00000000000004040A0A0E110000009C
:1029E2000000000F110F11110F0000000000000E77
:1029F200110101110E0000000000000F1111111150
:102A02000F0000000000000F010701010F0000008D
:102A12000000000F01070101010000000000000E8C
:102A220011011D111E00000000000011111F1111E3
:102A32001100000000000002020202020200000077
:102A42000000000202020202030000000000001166
:102A520009050B1111000000000000010101010134
:102A62000F00000000000063635555494900000053
:102A72000000001113151519110000000000000ECE
:102A8200111111110E0000000000000709090701D1
:102A9200010000000000000E111111110E100000C3
:102AA2000000000F11110F091100000000000006C4
:102AB20009060809060000000000000702020202DF
:102AC2000200000000000011111111110E0000009F
:102AD200000000110A0A0A04040000000000004974
:102AE2004955552222000000000000110A04040A80
:102AF20011000000000000110A0A04040400000092
:102B02000000000F080402010F0000000000000393
:102B12000101010101010300000000010204040897
:102B22000810200000000003020202020202030059
:102B3200000000040A110000000000000000000074
:102B420000000000001F000000000204000000005E
:102B5200000000000000000006090E090E0000003F
:102B62000000000107090909070000000000000039
:102B72000609010906000000000000080E09090903
:102B82000E0000000000000006090F010E00000008
:102B9200000000020103010101000000000000002A
:102BA2000E0906010E0907000000000107090909C4
:102BB2000900000000000001000101010100000005
:102BC20000000100010101010101000000000001FB
:102BD20009050705090000000000000101010101CB
:102BE20001000000000000000F151515150000007F
:102BF20000000000070909090900000000000000A8
:102C02000609090906000000000000000709090979
:102C120007010100000000000E0909090E08080062
:102C2200000000000301010101000000000000009B
:102C3200060102040300000000000001030101017B
:102C42000200000000000000090909090E0000004E
:102C5200000000000505050202000000000000005F
:102C620015151B0A0A0000000000000009060606EE
:102C72000900000000000000090A0A04040403001D
:102C82000000000007040201070000000000000429
:102C9200020202030202060000000004040404040B
:102CA2000404040000000001020202060202010004
:102CB20000000000000B0D000000000000000003F7
:082CC2000303030303030000F8
:102CCA00000020007F000B1002880100029301001F
:102CDA00029E010005A9010004B4010007BF01001A
:102CEA0006CA010001D5010003E0010003EB01005F
:102CFA0003F6010005010200020C0200031702009C
:102D0A0002220200032D02000538020003430200DA
:102D1A00044E02000459020005640200046F020016
:102D2A00057A02000485020005900200059B020054
:102D3A0002A6020002B1020005BC020005C7020099
:102D4A0004D2020004DD020008E8020006F30200D1
:102D5A0005FE02000509030006140300051F03000F
:102D6A00052A03000735030007400300034B03004D
:102D7A000356030006610300056C0300087703008D
:102D8A0007820300078D03000598030007A30300C9
:102D9A0006AE030004B9030005C4030007CF03000D
:102DAA0006DA030009E5030006FB03000506040032
:102DBA0005110400031C0400032704000232040066
:102DCA00043D04000548040002530400055E0400A3
:102DDA000569040004740400057F0400048A0400E1
:102DEA000495040005A0040006AB040003B6040021
:102DFA0002C1040005CC040003D7040008E2040061
:102E0A0006ED040005F8040005030500040E05009C
:102E1A000419050004240500032F0500053A0500DE
:102E2A000445050007500500045B0500046605001B
:102E3A0004710500027C0500028705000392050063
:102E4A00059D050002A80500000000000000000022
:102E5A00000000000000020202020002000000005E
:102E6A00000300000000000000000000080A1E0A1B
:102E7A000F020000000000040F050E0D0E040000F2
:102E8A00062515755B58543200000000000E0A0A28
:102E9A0036193F0000000000010000000000000099
:102EAA0000000404020202020404000000020204F8
:102EBA0004040404020000000000060400000000EC
:102ECA00000000000004041F0404000000000000C9
:102EDA0000000000020200000000000000070000DD
:102EEA0000000000000000000000020000000000D6
:102EFA00000404020202010000000000000E111189
:102F0A000E0000000000000003020207000000009B
:102F1A000000000604040F000000000000000E0874
:102F2A000E0808070000000000080C0A1F08080025
:102F3A00000000000E01060808070000001C020F2E
:102F4A0011110E000000000000000F09080404021D
:102F5A000000000E0A0609110E0000000000000021
:102F6A000E11111E080400000000000200000200F9
:102F7A000000000000000200000202000000000041
:102F8A00001806061800000000000000001F001FBD
:102F9A0000000000000000030C0C03000000000009
:102FAA000608040200060000000000007CC2B99571
:102FBA007D423C000000080C0A1E1133000000008C
:102FCA00001F120E12120F00000000001E03010162
:102FDA00031E00000000001F222222321F000000F0
:102FEA0000001F020E02021F00000000001F020E56
:102FFA0002020700000000001E030171233C0000CA
:10300A0000000067223E222267000000000007023B
:10301A000202020700000000000702020202020286
:10302A000100000037120E0E1A37000000000007D8
:10303A00020202121F0000000000C366665A5AE626
:10304A00000000000073262A2A3227000000000030
:10305A003E634141633E00000000001F12120E024F
:10306A000700000000003E634141633E0870000013
:10307A00001F12120E1A3700000000000E01030C86
:10308A00080700000000001F040404040E000000EA
:10309A00000077222222221C0000000000332212A4
:1030AA00140C00000000000000000093011201AAA5
:1030BA0000AC004C00440000000000000000331285
:1030CA000C0C123300000000001B110A04040E004D
:1030DA00000000001F080404021F0000000006028E
:1030EA0002020202020206000000010202020404B5
:1030FA0004000000030202020202020203000000AE
:10310A00040A0200000000000000000000000000A5
:10311A00001F000002000000000000000000000084
:10312A0000000E080E091F0000000003020E121212
:10313A00120E0000000000000E010101060000004E
:10314A00000C080E0909091E00000000000006090B
:10315A000F0106000000000C02070202020700002D
:10316A00000000001E09090F011F11000003021EC2
:10317A001212123F000000000200030202020700BE
:10318A00000000020003020202020202000003021F
:10319A001A0A060A1F0000000003020202020207BE
:1031AA000000000000006F525252FF0000000000B1
:1031BA00001F1212123F0000000000000E11111130
:1031CA000E0000000000000F1212120E0202000090
:1031DA0000000E0909090E0808000000000F02028B
:1031EA0002070000000000000F090609070000009E
:1031FA0000000207020202060000000000000F0A97
:10320A000A0A1E0000000000000B090A060400005A
:10321A00000000006B292A16100000000000000BB5
:10322A000604060F0000000000000B090A06040449
:10323A0002000000000F0404020E00000000020257
:10324A000202010202020200000202020202020259
:10325A00020200000202020204020202020000004C
:10326A00000000160D000000000000030303030322
:03327A0000000051
:10327D00000020007F000B00018801000193010078
:10328D00039E010007A9010005B4010009BF01005B
:10329D0006D5010001E0010003EB010002F601007B
:1032AD0005010200060C02000217020002220200B4
:1032BD00022D02000338020004430200044E0200F6
:1032CD000459020004640200056F0200047A020032
:1032DD000485020004900200049B020004A6020073
:1032ED0002B1020002BC020006C7020006D20200B3
:1032FD0006DD020004E8020007F3020006FE0200EC
:10330D000509030006140300061F0300052A030028
:10331D000535030006400300064B0300035603006A
:10332D0003610300056C03000477030007820300AB
:10333D00068D03000798030005A3030007AE0300E5
:10334D0005B9030005C4030005CF030006DA030029
:10335D0006E5030007F0030004FB03000506040067
:10336D0004110400021C04000327040002320400AF
:10337D00053D04000548040003530400045E0400E9
:10338D000469040003740400047F0400048A04002B
:10339D000395040004A0040004AB040001B604006E
:1033AD0002C1040004CC040001D7040007E20400AC
:1033BD0004ED040004F8040004030500040E0500E8
:1033CD000319050003240500022F0500043A05002A
:1033DD000545050007500500035B05000566050062
:1033ED0003710500037C05000287050003920500AB
:1033FD00069D050002A80500000000000000000069
:10340D0000000000000101010101000100000005A4
:10341D00050500000000000000000024247E143F7C
:10342D00121200000000041E05060C140F04040007
:10343D00000000460029002900D60028012801C4FB
:10344D0000000000000000060909160919260000F9
:10345D000001010100000000000000000402010154
:10346D000101010102040000010202020202020137
:10347D000004150E150400000000000000000008F7
:10348D00083E0808000000000000000000000202D5
:10349D00010000000000000003000000000000001B
:1034AD0000000000020200000004040202020202F9
:1034BD0001010000000609090909090600000000C4
:1034CD000406040404040E000000000708080402AA
:1034DD00010F00000000070808060808070000009B
:1034ED0000080C0A091F0808000000000F01010761
:1034FD000808070000000006010107090906000081
:10350D0000000F0804040202010000000006090972
:10351D0006090906000000000609090E0808060044
:10352D000000000000020200020200000000000086
:10353D000202000202010000000000201C021C20FB
:10354D00000000000000003F003F000000000000F0
:10355D0000021C201C0200000000070808040200E5
:10356D0002000000001C2259555539021C000000B4
:10357D000C0C12123F2121000000000709090F1148
:10358D00110F000000001C22010101221C0000008F
:10359D00000F11212121110F000000001F01010F4B
:1035AD0001011F000000001F01010F0101010000BA
:1035BD0000001C22013921223C00000000212121A4
:1035CD003F21212100000000070202020202070034
:1035DD0000000006040404040403000000001109A7
:1035ED000503050911000000000101010101010F92
:1035FD00000000006363555549494100000000215A
:10360D00232529312121000000001C2241414122A6
:10361D001C000000000F1111110F0101000000002E
:10362D001C22414141221C106000000F11110F0599
:10363D000911000000001E01010E10100F00000006
:10364D00001F0404040404040000000021212121B2
:10365D0021211E0000000021212112120C0C00005E
:10366D000000494955555522220000000009090660
:10367D000606090900000000110A0A0404040400EA
:10368D000000000F08040202010F000000030101F9
:10369D000101010101010300010102020202020404
:1036AD0004000003020202020202020203000004EF
:1036BD000A110000000000000000000000000000E2
:1036CD0000001F00020400000000000000000000C8
:1036DD00000006080E090E0000000101010709098E
:1036ED0009070000000000000601010106000000AE
:1036FD000808080E0909090E00000000000006095F
:10370D000F010E000000060101070101010100007B
:10371D00000000000E0909090E080600010101074D
:10372D000909090900000000010001010101010062
:10373D000000000200030202020202010001010169
:10374D000905030509000000010101010101010145
:10375D000000000000003749494949000000000001
:10376D000007090909090000000000000609090900
:10377D00060000000000000709090907010100000B
:10378D0000000E0909090E080800000000050301DC
:10379D000101000000000000070102040700000005
:1037AD0000000103010101020000000000000909F1
:1037BD0009090E000000000000110A0A0A040000A9
:1037CD0000000000494955362200000000000005A8
:1037DD0002020205000000000000110A0A0A04049A
:1037ED0002000000000704020107000000040202AD
:1037FD00020201020202040002020202020202029D
:10380D000202000102020202040202020100000093
:10381D00000026190000000000000003030303034D
:03382D0000000098
:10383000000020007F000B080288010002930100B5
:10384000049E010004A9010004B4010006BF0100A8
:1038500006CA010002D5010002E0010002EB0100EE
:1038600004F6010005010200020C0200021702002A
:1038700002220200042D0200043802000443020068
:10388000044E02000459020004640200046F0200A6
:10389000047A02000485020004900200049B0200E6
:1038A00002A6020002B1020004BC020004C702002A
:1038B00004D2020004DD020008E8020005F3020061
:1038C00005FE02000409030006140300041F0300A0
:1038D000042A03000535030005400300024B0300E2
:1038E0000256030005610300046C0300087703001F
:1038F00006820300058D03000598030006A303005C
:1039000005AE030004B9030005C4030006CF03009D
:1039100004DA030008E5030004F0030005FB0300DC
:103920000406040003110400041C04000227040020
:1039300004320400053D040003480400045304005D
:10394000055E04000369040004740400047F04009D
:10395000038A04000495040005A0040002AB0400DF
:1039600002B6040005C1040002CC040007D704001D
:1039700005E2040004ED040005F80400040305005A
:10398000040E05000319050003240500052F05009A
:10399000043A05000645050004500500045B0500D7
:1039A0000366050003710500037C0500038705001D
:1039B00004920500039D05000000000000000000C7
:1039C00000000000000002020202000200000000ED
:1039D000000A0A0000000000000000000A0F0A0FA1
:1039E000050500000000040E01030C08070200009A
:1039F000000027150F382C3A00000000000E0A0EB8
:103A00002F192E000000000002020000000000003C
:103A10000000000201010101010102000000010299
:103A20000202020202010000000E040E000000006B
:103A3000000000000004041F040400000000000057
:103A4000000000000202010000000000000300006E
:103A5000000000000000000000000200000000085C
:103A60000C04040202030100000000060909090910
:103A700006000000000004060404040E000000001C
:103A8000000F080804020F00000000000F080608DD
:103A900008070000000000060606050F04000000ED
:103AA00000000F010708080700000000000E010FCA
:103AB00009090600000000000F08040404020000C9
:103AC0000000000F09070F090F00000000000609A1
:103AD000090F0807000000000000000200000200BB
:103AE00000000000000002000002020100000000CF
:103AF000000807030C000000000000000F000F008A
:103B000000000000000000030C0C03000000000097
:103B10000E080C04000400000000007884BAAA7AA1
:103B2000063C00000000040A0A111F1100000000FA
:103B3000001E121E12120E00000000000E090101EC
:103B4000010E00000000001E322222321E00000082
:103B500000000E020E02020E00000000000E020223
:103B60000E020200000000001E13011D131E0000C3
:103B700000000012121E12121200000000000202C9
:103B80000202020200000000000202020202030020
:103B900000000000120A060E0A12000000000002D7
:103BA000020202020E0000000000C6C6AAAABA92D3
:103BB000000000000026262A2A3232000000000001
:103BC0000E111111110E00000000000E12120E0253
:103BD0000200000000000E111111111E3000000043
:103BE000001E12120E0A1200000000000E01030C4B
:103BF000080700000000001F040404040400000083
:103C0000000022222222221C0000000000090909D3
:103C10000A0606000000000092BAAAAAAA6C0000D8
:103C20000000000A0A04040A0A0000000000110A49
:103C30000A04040400000000000F080402010F0041
:103C4000000000000602020202020600000000015D
:103C5000020206040408000000000302020202023D
:103C60000300000000040A0A000000000000000039
:103C7000000000000000001F00000204000000001F
:103C800000000000000000000F0F090F00000000FE
:103C90000002021E12121E000000000000000601B9
:103CA0000107000000000008080E09090F000000CD
:103CB000000000000E0F010E0000000000060207C9
:103CC000020202000000000000000E09060F090FAA
:103CD00000000002021E121212000000000002008A
:103CE00002020202000000000002000202020202C0
:103CF0000300000002021A060A120000000000027F
:103D00000202020202000000000000007E52525235
:103D1000000000000000001E12121200000000004F
:103D200000000E090907000000000000001E12122A
:103D30001E020200000000000E09090F0808000022
:103D40000000000E02020200000000000000070355
:103D50000407000000000000020702020600000045
:103D6000000000001212121E000000000000000AF5
:103D70000A0A04000000000000002A2A361400008D
:103D800000000000000A040E0A000000000000000D
:103D90000A0A0A04040400000000000702020700E7
:103DA00000000000060202010202060000000004FA
:103DB00004040404040404000000030202040202D8
:103DC0000300000000000B0D0000000000000000D8
:083DD0000707070707000000C8
:103DD800000020007F000B08028801000293010008
:103DE800039E010005A9010005B4010006BF0100FA
:103DF80005CA010001D5010003E0010002EB010042
:103E080003F6010004010200020C0200041702007C
:103E180002220200042D02000438020002430200BC
:103E2800044E02000459020005640200046F0200F7
:103E3800047A02000485020004900200049B020038
:103E480002A6020002B1020003BC020004C702007D
:103E580003D2020004DD020007E8020006F30200B4
:103E680005FE02000509030005140300051F0300F1
:103E7800052A03000535030005400300024B030033
:103E88000456030005610300056C03000677030070
:103E980006820300058D03000598030006A30300AE
:103EA80005AE030005B9030004C4030005CF0300F1
:103EB80005DA030007E5030005F0030004FB03002F
:103EC8000506040003110400031C04000227040073
:103ED80004320400033D04000248040004530400B3
:103EE800045E04000469040004740400047F0400F0
:103EF800038A04000495040004A0040002AB040033
:103F080002B6040005C1040002CC040007D704006F
:103F180004E2040004ED040004F8040004030500AE
:103F2800040E05000419050002240500042F0500ED
:103F3800043A05000745050004500500045B050028
:103F48000466050003710500027C0500038705006F
:103F580004920500029D050000000000000000001A
:103F6800000000000000020202020002000000003F
:103F7800000505000000000000000000141E0A0AE9
:103F88001F0A00000000040E06061C140E040000A0
:103F98000000120D0A342C3200000000000C12023E
:103FA800161A1E00000000000101000000000000B9
:103FB80000000402020202020204000000010202E0
:103FC80002020202010000000001060000000000D9
:103FD800000000000000040E0400000000000000C3
:103FE800000000030301000000000000000E0000B4
:103FF80000000000000000000000030000000008AE
:1040080004040402020101000000000E0A0A0A0A60
:104018000E0000000000030202020202000000007D
:10402800000E0A0804020E00000000000E0A040830
:104038000B0E000000000004040A0A1E080000001D
:1040480000000E020E0A0A0E000000000004060E10
:104058000A0A0E00000000000F090404040600000C
:104068000000000E0A0E0A0A0E00000000000E0AE8
:104078000A0E040400000000000000030000030012
:10408800000000000000030003030100000000001E
:1040980000060600000000000000000E000E0000F0
:1040A80000000000000000060600000000000000FC
:1040B800060D0402000200000000003C425A666639
:1040C8007A021C000000040C0C121E3100000000D3
:1040D800001E120E12121E00000000000E12020234
:1040E800120E00000000001E121212121E00000024
:1040F80000001E020E02021E00000000001E020246
:104108000E020200000000000E12021A121E000029
:1041180000000012121E121212000000000002021B
:104128000202020200000000000808080808070050
:1041380000000000120A0E0E121200000000000219
:10414800020202021E0000000000223636362A2231
:1041580000000000002226262A3A32000000000053
:104168000E121212120E00000000001E12121E0281
:104178000200000000000E1212121A3E0000000099
:10418800001E12121E0A1200000000001E1206185D
:10419800101E00000000000F0404040404000000C6
:1041A800000012121212121E000000000011120A62
:1041B8000A0C040000000000495B5A56262600003D
:1041C800000000130A04040A110000000000090A94
:1041D8000604040400000000000E080404021F0086
:1041E80000000006020202020202060000000101AD
:1041F8000102020404040000000302020202020297
:104208000300000000040A00000000000000000095
:10421800000000000000070000000102000000008C
:10422800000000000000000E080E090E000000004B
:1042380002020E0A0A0A0E0000000000000E020226
:10424800020E0000000008080E0A0A0A0E0000000C
:104258000000000E0A0E020E00000000060207020F
:104268000202020000000000000E0A0A0A0E0806F8
:10427800000002020E0A0A0A0A00000000020002F8
:104288000202020200000000020002020202020210
:1042980003000002020A06060A1A000000000202D1
:1042A80002020202020000000000007E4A4A4A4A56
:1042B8000000000000000E0A0A0A0A0000000000C0
:1042C800000E0A0A0A0E0000000000000E0A0A0A80
:1042D8000E0202000000000E0A0A0A0E080800007A
:1042E80000000E020202020000000000000E020E92
:1042F800080F000000000002030202020200000092
:104308000000000A0A0A0A0E000000000000090A5C
:104318000A0604000000000000492A36361400008E
:10432800000000000A0604060A0000000000000958
:104338000A0606040402000000000E0C04020E0027
:10434800000000040202020202020204000002024B
:104358000202020202020000000102020206020238
:10436800020100000000000A0E000000000000002A
:0843780003030303030000002E
:10438000564F4C554D45204349535445524E415389
:01439000002C
:07439100434953545F520041
:104398004E762E204369737420412020202020204F
:0443A80020203A0097
:0643AC00434953543200A6
:0643B200434953543100A1
:1043B8004E762E204369737420422020202020202E
:0443C80020203A0077
:0643CC0056617A696100F0
:0643D20056617A696100EA
:1043D8004E762E2043697374205072696E63203ABA
:0143E80000D4
:1043E9004E762E20437820527561202020202020EF
:0243F9003A0088
:0643FB0056617A696100C1
:0644010056617A696100BA
:074407005B563256315D00E7
:01440E0000AD
:10440F004E6976656C20436169786173204427613A
:04441F00677561005C
:014423000098
:014424000097
:014425000096
:014426000095
:044427000000000091
:02442B009001FE
:07442D004E6F726D616C001F
:074434004E6F726D616C0018
:04443B004D616E0061
:10443F0052656C65205465726D69636F2042433A13
:01444F00006C
:104450004D6F646F204D616E2D41757420203A00C0
:10446000537461747573205632562020202020200A
:06447000202020203A008C
:044476004F66660027
:07447A005B415554315D0068
:01448100003A
:074482005B415554305D0061
:1044890052656C65205465726D69636F2042503ABC
:014499000022
:0E449A004D697363656C6C616E656F757300C0
:0744A8005B563256305D0047
:0144AF00000C
:0144B000000B
:0144B100000A
:0144B2000009
:0144B3000008
:1044B40000FE0202020202020202020202020202DE
:1044C400020A1A3A6AEAAAAAAAAAFA02FE0000FF93
:1044D40000000000000000000000000000000000D8
:1044E400000000000103060E1F00FF0000FF000093
:1044F40000000000000000000000000000000000B8
:104504000000000000000000FF00001F1010101049
:104514001010101010101010101010101010101097
:084524001010101010101F0010
:10452C0057041904380486040205E304A504C404E2
:02453C00F0038A
:10453E00CB01EA01FF021E033D03E0028302A20249
:02454E00C102A8
:08455000640383032702460205
:064558000C0C1E1E3F3F8B
:06455E0065020902AD0137
:04456400C203CA03C1
:0445680076047E0453
:020000040030CA
:0D000100331F3CFFBD81FF0FC00FE00F401B
:00000001FF
